:020000040800F2
:10000000005000200D140008CD020008CF020008A7
:10001000D1020008D3020008D50200080000000049
:10002000000000000000000000000000D7020008EF
:10003000D902000800000000DB020008DD02000811
:1000400055140008551400085514000855140008EC
:1000500055140008551400085514000855140008DC
:1000600055140008551400085514000855140008CC
:1000700055140008551400085514000855140008BC
:1000800055140008551400085514000855140008AC
:10009000E50200085514000855140008551400081E
:1000A000551400085514000855140008551400088C
:1000B000551400085514000855140008551400087C
:1000C000551400085514000855140008551400086C
:1000D000551400085514000855140008551400085C
:1000E00055140008551400085514000800000000BD
:1000F0000000000000000000000000000000000000
:0C01000000000000000000005FF808F1A3
:10010C0010B5054C237833B9044B13B10448AFF345
:10011C0000800123237010BD0C00002000000000A3
:10012C00B014000808B5034B1BB103490348AFF3E7
:10013C00008008BD0000000010000020B014000872
:10014C0030B587B0002402940394049405940F4BAB
:10015C009A6942F004029A619B6903F004030193CB
:10016C00019B0B4D22464FF45C71284601F0B0F810
:10017C004FF45C73029301230393049402230593BD
:10018C0002A9284600F0BAFF07B030BD00100240AB
:10019C000008014038B5254D254B2B6010236B60B2
:1001AC000024AC60EC602C616C612C766C76AC76C7
:1001BC00EC762C776C77284600F0FAF81D494C61E8
:1001CC008C610123CB610C604C608C60CC600C6149
:1001DC000B620E234B62284600F090F9A8B94FF43D
:1001EC00FA7000F06BFC114800F006FA90B94FF46D
:1001FC00FA7000F063FC02210C4800F0C4FA70B9EC
:10020C004FF4FA7000F05AFC38BD10210A4801F086
:10021C0065F8E4E72021084801F060F8E7E74FF4BF
:10022C008071054801F05AF8EAE700BF5000002041
:10023C0000640040280000200008014008B5064B6F
:10024C00064A0021064800F005FA4FF45C71054897
:10025C0001F044F808BD00BF7800002080000020A9
:10026C00500000200008014010B590B0242200215D
:10027C0007A801F00FF9002401940294039404944C
:10028C0005940223069301230A9310230B9306A8CB
:10029C0000F03EFC0F230193029403940494059404
:1002AC00214601A800F05CFE10B010BD08B500F0AE
:1002BC00E1FBFFF7D9FFFFF743FFFFF76BFFFEE70B
:1002CC007047FEE7FEE7FEE7FEE7704770477047B2
:1002DC0008B500F0E1FB08BD08B5024800F072FA61
:1002EC0008BD00BF5000002082B00E4B9A6942F04E
:1002FC0001029A619A6902F001020092009ADA698D
:10030C0042F08052DA61DB6903F080530193019B68
:10031C00054A536823F0E06343F08063536002B0F6
:10032C00704700BF001002400000014010B586B0BD
:10033C000023029303930493059302681A4B9A4289
:10034C0001D006B010BD03F5D633DA6942F0007265
:10035C00DA61DA6902F000720092009A9A6942F04E
:10036C0004029A619B6903F004030193019B4FF40F
:10037C00006302930D4C02A9204600F0BFFE4FF41F
:10038C0080530293022303930323059302A920466F
:10039C0000F0B4FE00221146142000F0B5FF14202A
:1003AC0000F0E6FFCDE700BF00640040000801400C
:1003BC00002800F0A18038B5044690F82030D3B165
:1003CC002268136823F00203136000F071FB0546EA
:1003DC0023685A6812F0020F10D000F069FB401B22
:1003EC000A28F5D9636A43F400336362052384F861
:1003FC002030012038BDFFF799FFE1E71A6842F081
:10040C0001021A6000F054FB054623685A6812F08A
:10041C00010F0DD100F04CFB401B0A28F5D9636A83
:10042C0043F400336362052384F820300120E1E7B4
:10043C00227E012A3DD01A6822F080021A60637E67
:10044C00012B3BD02268136823F040031360A37E7A
:10045C00012B39D02268136823F020031360E37E4C
:10046C00012B37D02268136843F010031360237FED
:10047C00012B35D02268136823F008031360637FC7
:10048C00012B33D02268136823F004031360A36894
:10049C00E268134322691343626913436268013AA9
:1004AC0021681343CB6100206062012384F8203063
:1004BC00A0E71A6842F080021A60C0E7226813684D
:1004CC0043F040031360C2E72268136843F0200333
:1004DC001360C4E72268136823F010031360C6E7A7
:1004EC002268136843F008031360C8E72268136896
:1004FC0043F004031360CAE701207047036890F8C7
:10050C002020013AD2B2012A05D9436A43F4802350
:10051C0043620120704770B4D3F8002242F001020C
:10052C00C3F800224A6902F01F02012000FA02F20D
:10053C00D3F81C42D0430440C3F81C42CC69ACB97C
:10054C00D3F80C420440C3F80C42CE688D884C6939
:10055C0045EA0645483443F834508E680D884C699A
:10056C0045EA0645483403EBC4046560CC69012CAC
:10057C0019D08C6974BBD3F804420440C3F804420C
:10058C000C696CBBD3F814422040C3F81402096AFE
:10059C0001292BD0D3F8002222F00102C3F800224B
:1005AC00002070BC7047D3F80C421443C3F80C42C3
:1005BC000E688D884C6945EA0645483443F834503A
:1005CC008E688D894C6945EA0645483403EBC404B2
:1005DC006560CEE7D3F804421443C3F80442CFE776
:1005EC00D3F814021043C3F81402D0E7D3F81C124A
:1005FC000A43C3F81C22CDE738B590F82030DBB2A3
:10060C00012B05D0436A43F400234362012038BD1B
:10061C000446022380F820300268136823F001039B
:10062C00136000F045FA054623685B6813F0010F70
:10063C000DD000F03DFA401B0A28F5D9636A43F44B
:10064C0000336362052384F820300120DFE70020AB
:10065C006062DCE730B490F82040013CE4B2012C3D
:10066C0000F28A8051B90468E46814F0030F10D1C9
:10067C00436A43F400134362012082E00468246956
:10068C0014F0030F05D1436A43F4001343620120B5
:10069C0077E0056801F11B0424012C5904F00404D3
:1006AC009460002C5AD1056801F11B0424012C59CB
:1006BC00640D1460056801F11B0424012D59C5F368
:1006CC004005D560056825446D6805F00F0515617A
:1006DC00056825446D68C5F30725956105682C44AC
:1006EC006468240C546104680A011444D4F8B841B9
:1006FC001C7004681444D4F8B841C4F307245C702B
:10070C0004681444D4F8B841C4F307449C700468DA
:10071C001444D4F8B841240EDC7004681444D4F8A2
:10072C00BC411C7104681444D4F8BC41C4F30724C4
:10073C005C7104681444D4F8BC41C4F307449C7144
:10074C0004682244D2F8BC21120EDA7171B9026825
:10075C00D36843F02003D360002012E0056801F158
:10076C001B0424012C59E4085460A3E702681369A4
:10077C0043F020031361EFE7436A43F480234362A1
:10078C00012030BC704790F82030013BDBB2012BCC
:10079C0005D9436A43F48023436201207047026801
:1007AC0053690B4353610020704770477047704783
:1007BC007047704770477047704770477047704775
:1007CC00704700002DE9F84F054603685C69D3F8C3
:1007DC0004809F68D3F80CA0D3F81090D3F818B00D
:1007EC004FF45C718F4800F079FD14F0010F5AD072
:1007FC0017F0010F18D02B6801229A6017F0020F26
:10080C0008D117F0040F2FD117F0080F07D04FF4B1
:10081C0080560AE02846FFF7C8FF002605E0284668
:10082C00FFF7C6FF002600E0002617F4807F0BD0F0
:10083C002B684FF480729A6017F4007F17D117F46D
:10084C00806F18D046F4005617F4803F2CD02B68DC
:10085C004FF480329A6017F4003F16D117F4802FB2
:10086C0017D046F400461FE04FF40066DDE728463B
:10087C00FFF79CFFE8E717F4006F02D046F48046C0
:10088C00E2E72846FFF795FFDEE72846FFF78FFFE4
:10089C000AE017F4002F02D046F4803604E0284614
:1008AC00FFF788FF00E0002614F0080F07D01AF0BD
:1008BC00100F04D046F400762B681022DA6014F086
:1008CC00040F02D01AF0080F69D114F0020F04D0F3
:1008DC002B68DB6813F0030F68D114F0400F07D0BE
:1008EC0019F0100F04D046F480662B6810221A61A0
:1008FC0014F0200F02D019F0080F5BD114F0100F78
:10090C0004D02B681B6913F0030F5AD114F4003F69
:10091C0002D018F0100F58D114F4803F02D018F008
:10092C00080F59D114F4004F35D018F0040F2FD004
:10093C0014F4807F04D01BF0010F01D046F00106A7
:10094C0014F4007F04D01BF0020F01D046F0020615
:10095C0014F4806F04D01BF0040F01D046F0040691
:10096C0014F4006F14D01BF0700B11D0BBF1300FCE
:10097C0045D038D9BBF1500F47D0BBF1600F47D0F1
:10098C00BBF1400F3ED02A68936923F0700393614A
:10099C002B6804225A60002E3DD1BDE8F88F2B68DD
:1009AC000822DA602846FFF706FF8EE72846FFF795
:1009BC0045FC92E72B6808221A612846FFF7FDFEDA
:1009CC009CE72846FFF7F8FEA0E72B6810225A6038
:1009DC002846FFF7F3FE9FE72B6808225A6028464B
:1009EC00FFF7EDFE9EE7BBF1100F05D0BBF1200F1A
:1009FC00C9D146F01006C6E746F00806C3E746F034
:100A0C002006C0E746F04006BDE746F08006BAE790
:100A1C0046F48076B7E76B6A1E436E622846FFF792
:100A2C00CFFEBAE70008014010B504460E4B18780B
:100A3C004FF47A73B3FBF0F30C4A1068B0FBF3F08D
:100A4C0000F0A2FC68B90F2C01D901200AE00022A9
:100A5C0021464FF0FF3000F057FC054B1C60002086
:100A6C0000E0012010BD00BF0000002008000020A5
:100A7C000400002008B5074A136843F01003136004
:100A8C00032000F02FFC0020FFF7CEFFFFF72CFC1B
:100A9C00002008BD00200240034A1168034B1B785C
:100AAC000B441360704700BF9C0000200000002026
:100ABC00014B1868704700BF9C00002038B50446F5
:100ACC00FFF7F6FF0546B4F1FF3F02D0044B1B784D
:100ADC001C44FFF7EDFF401BA042FAD338BD00BF0A
:100AEC000000002082B0084B1B68084AA2FB0323BD
:100AFC005B0A00FB03F0019000BF019B5A1E0192A0
:100B0C00002BF9D102B0704708000020D34D6210C1
:100B1C0070B582B00446036813F0010F2CD0AB4BB8
:100B2C005B6803F00C03042B1DD0A84B5B6803F02F
:100B3C000C03082B12D06368B3F5803F41D0002B17
:100B4C0055D103F1804303F504331A6822F4803243
:100B5C001A601A6822F480221A6037E09B4B5B689B
:100B6C0013F4803FE7D0994B1B6813F4003F03D07C
:100B7C006368002B00F0AE81236813F0020F75D070
:100B8C00924B5B6813F00C0F5FD0904B5B6803F0DB
:100B9C000C03082B54D02369002B00F089808C4B5C
:100BAC0001221A60FFF784FF0546884B1B6813F07F
:100BBC00020F74D1FFF77CFF401B0228F5D90320EC
:100BCC008DE1824A136843F480331360636843B346
:100BDC00FFF76EFF05467D4B1B6813F4003FCBD12E
:100BEC00FFF766FF401B6428F5D9032077E1B3F5C6
:100BFC00A02F09D0754B1A6822F480321A601A683B
:100C0C0022F480221A60E1E703F18043A3F53C3320
:100C1C001A6842F480221A601A6842F480321A6010
:100C2C00D4E7FFF745FF0546684B1B6813F4003FFC
:100C3C00A2D0FFF73DFF401B6428F5D903204EE1FD
:100C4C00624B5B6813F4803FA5D1604B1B6813F0BB
:100C5C00020F03D02369012B40F03E815B4A1368DD
:100C6C0023F0F803616943EAC1031360236813F0AE
:100C7C00080F32D0A369002B5BD0564B01221A60AF
:100C8C00FFF716FF0546514B5B6A13F0020F21D19B
:100C9C00FFF70EFF401B0228F5D903201FE14B4A3A
:100CAC00136823F0F803616943EAC1031360DDE7BD
:100CBC00474B00221A60FFF7FBFE0546434B1B68AF
:100CCC0013F0020FD2D0FFF7F3FE401B0228F5D928
:100CDC00032004E10120FFF705FF236813F0040F44
:100CEC0000F09880394BDB6913F0805F33D1374BC0
:100CFC00DA6942F08052DA61DB6903F080530193C8
:100D0C00019B0125344B1B6813F4807F25D0E368CD
:100D1C00012B36D0002B4CD103F1804303F5043367
:100D2C001A6A22F001021A621A6A22F004021A628A
:100D3C002CE0284B00221A60FFF7BAFE0546234B25
:100D4C005B6A13F0020FC8D0FFF7B2FE401B0228FB
:100D5C00F5D90320C3E00025D4E71F4A136843F4F8
:100D6C0080731360FFF7A4FE06461B4B1B6813F43D
:100D7C00807FCCD1FFF79CFE801B6428F5D9032023
:100D8C00ADE0124A136A43F001031362E3687BB3CC
:100D9C00FFF78EFE06460D4B1B6A13F0020F38D17F
:100DAC00FFF786FE801B41F288339842F3D903206B
:100DBC0095E0052B12D0054B1A6A22F001021A623B
:100DCC001A6A22F004021A62E0E700BF0010024027
:100DDC00000042428004424200700040424B1A6ABA
:100DEC0042F004021A621A6A42F001021A62CDE75A
:100DFC00FFF75EFE06463C4B1B6A13F0020F08D051
:100E0C00FFF756FE801B41F288339842F3D903203A
:100E1C0065E0E5B9E369002B60D0334A526802F013
:100E2C000C02082A5DD0022B17D0304B00221A601E
:100E3C00FFF73EFE04462C4B1B6813F0007F47D097
:100E4C00FFF736FE001B0228F5D9032047E0264A9F
:100E5C00D36923F08053D361DCE7244B00221A6062
:100E6C00FFF726FE0546204B1B6813F0007F06D0CB
:100E7C00FFF71EFE401B0228F5D903202FE0236A42
:100E8C00B3F5803F1AD018494B6823F47413226AC7
:100E9C00606A024313434B60144B01221A60FFF744
:100EAC0007FE0446104B1B6813F0007F0ED1FFF7B2
:100EBC00FFFD001B0228F5D9032010E00A4A5368F5
:100ECC0023F40033A1680B435360DCE7002006E0F9
:100EDC00002004E0012002E0012000E0002002B02C
:100EEC0070BD0120FBE700BF0010024060004242D1
:100EFC0010B487B0164C94E80F000DF1180C0CE9E7
:100F0C000F00238AADF80430124B5B6803F00C021F
:100F1C00082A03D0104807B010BC7047C3F38342B3
:100F2C00624412F8102C13F4803F0CD0094B5B6810
:100F3C00C3F34043634413F8143C074800FB02F02E
:100F4C00B0FBF3F0E7E7054800FB02F0E3E700BF76
:100F5C00C81400080010024000127A0000093D007D
:100F6C00624B1B6803F007038B420BD25F4A13687A
:100F7C0023F007030B431360136803F007038B4242
:100F8C0040F0AE8070B5036813F0020F17D013F069
:100F9C00040F04D0564A536843F4E063536003686B
:100FAC0013F0080F04D0524A536843F46053536053
:100FBC004F4A536823F0F0038468234353600D4673
:100FCC000446036813F0010F52D04368012B23D061
:100FDC00022B28D0464A126812F0020F00F08280D1
:100FEC0043494A6822F0030213434B60FFF760FD4C
:100FFC0006466368012B1DD0022B2AD03C4B5B6844
:10100C0013F00C0F34D0FFF753FD801B41F28833E3
:10101C009842F3D9032062E0354A126812F4003F7B
:10102C00DED101205BE0324A126812F0007FD7D18A
:10103C00012054E02E4B5B6803F00C03042B17D0FB
:10104C00FFF736FD801B41F288339842F2D903201A
:10105C0045E0274B5B6803F00C03082B08D0FFF727
:10106C0027FD801B41F288339842F2D9032036E0E9
:10107C001E4B1B6803F00703AB420AD91B4A1368CB
:10108C0023F007032B431360136803F00703AB42F1
:10109C002AD1236813F0040F06D0154A536823F4A1
:1010AC00E063E1680B435360236813F0080F07D02B
:1010BC000F4A536823F46053216943EAC103536018
:1010CC00FFF716FF0A4B5B68C3F30313094AD35CA3
:1010DC00D840094B18600020FFF7A6FC002070BD1B
:1010EC00012070470120FAE70120F8E700200240B8
:1010FC0000100240DC14000808000020F0B482B09C
:10110C0000263546A0E0002B58D0012B10D1CE681C
:10111C000EE0694FBB4251D048D9684FBB424DD00D
:10112C0007F58037BB4249D0A7F58017BB4245D0A5
:10113C00FF2A57D88446FF2A57D8AC00DCF8003079
:10114C000F27A74023EA070306FA04F42343CCF83D
:10115C0000304B6813F0805F75D0594B9C6944F09C
:10116C0001049C619B6903F001030193019BAC0892
:10117C00A71C544B53F8273005F00307BF004FF062
:10118C000F0C0CFA07FC23EA0C0C4F4B984232D094
:10119C0003F58063984270D003F5806398426ED05B
:1011AC0003F58063984224D0042325E0A7F580172B
:1011BC00BB4203D007F58037BB42B9D18B687BB1FA
:1011CC00012B08D044610826B2E7CE680836AFE799
:1011DC00CE680C36ACE704610826A9E70026A7E721
:1011EC000426A5E700F1040CA5E7A5F10804A4006A
:1011FC00A4E7032300E00023BB4043EA0C030234C2
:10120C00304F47F824304B6813F4803F39D02F4CC3
:10121C002368134323604B6813F4003F37D02B4CE7
:10122C006368134363604B6813F4801F35D0274CFD
:10123C00A3681343A3604B6813F4001F33D0234CF3
:10124C00E3681A43E26001350F2D32D80124AC401B
:10125C000A6822409442F6D14B68122BB8D03FF664
:10126C0058AF022BB1D07FF64EAF032BB6D0112B5B
:10127C007FF45EAFCE6804365AE70123BCE7022345
:10128C00BAE7124C236823EA02032360C3E70F4C2E
:10129C00636823EA02036360C5E70C4CA36823EA86
:1012AC000203A360C7E7094CE36823EA0202E26089
:1012BC00C9E702B0F0BC70470000211000003110EB
:1012CC0000100240000001400008014000040140F1
:1012DC000AB101617047090401617047C368594044
:1012EC00C1607047074AD36823F4E0631B041B0CEE
:1012FC00000200F4E060184340F0BF6040F400309E
:10130C00D060704700ED00E030B4174BDB68C3F3DE
:10131C000223C3F10704042C28BF04241D1D062D31
:10132C0001D9033B00E000234FF0FF3505FA04F42C
:10133C0021EA0401994005FA03F322EA0303194355
:10134C00002809DB0901C9B200F1604000F56140D9
:10135C0080F8001330BC704700F00F000901C9B2CF
:10136C00024B1954F6E700BF00ED00E014ED00E06D
:10137C0000F01F02400901239340024A42F820303A
:10138C00704700BF00E100E00138B0F1807F0AD265
:10139C00064B5860064AF02182F823100020986012
:1013AC0007221A6070470120704700BF10E000E070
:1013BC0000ED00E00F4B1A6842F001021A60596808
:1013CC000D4A0A405A601A6822F0847222F4803264
:1013DC001A601A6822F480221A605A6822F4FE02FB
:1013EC005A604FF41F029A60044B4FF000629A60EF
:1013FC00704700BF001002400000FFF800ED00E055
:10140C00002103E00B4B5B58435004310A480B4B53
:10141C0042189A42F6D30A4A02E0002342F8043BEF
:10142C00084B9A42F9D3FFF7C5FF00F00FF8FEF70F
:10143C003DFF7047F4140008000000200C00002051
:10144C000C000020A0000020FEE7000070B5002674
:10145C000C4D0D4C641BA410A64209D100F022F8CF
:10146C0000260A4D0A4C641BA410A64205D170BD7F
:10147C0055F8043B98470136EEE755F8043B98477E
:10148C000136F2E7EC140008EC140008EC14000828
:10149C00F014000803460244934200D1704703F84D
:1014AC00011BF9E7F8B500BFF8BC08BC9E467047B5
:0C14BC00F8B500BFF8BC08BC9E467047A5
:1014C80002030405060708090A0B0C0D0E0F10107D
:1014D80001020000000000000000000001020304F7
:0414E80006070809E2
:0414EC0031010008C2
:0414F0000D010008E2
:0C14F400010000001000000000A24A04EB
:040000050800140DCE
:00000001FF
