:020000040800F2
:100000000050002059210008DD070008DF07000824
:10001000E1070008E3070008E5070008000000000A
:10002000000000000000000000000000E7070008DA
:10003000E907000800000000EB070008ED070008D2
:10004000A1210008A1210008A1210008A121000888
:10005000A1210008A1210008A1210008A121000878
:10006000A1210008A1210008A1210008A121000868
:10007000A1210008A1210008A1210008A121000858
:10008000A1210008A1210008A1210008A121000848
:10009000F5070008A1210008A1210008A1210008FE
:1000A000A1210008A1210008A1210008A121000828
:1000B000A1210008A1210008A1210008A121000818
:1000C000A1210008A1210008A1210008A121000808
:1000D000A1210008A1210008A1210008A1210008F8
:1000E000A1210008A1210008A121000800000000B2
:1000F0000000000000000000000000000000000000
:0C01000000000000000000005FF808F1A3
:10010C0010B5054C237833B9044B13B10448AFF345
:10011C0000800123237010BD20000020000000008F
:10012C00FC21000808B5034B1BB103490348AFF38E
:10013C00008008BD0000000024000020FC21000805
:10014C002DE9F04186B000240294039404940594A4
:10015C001D4B9A6942F004029A619A6902F00402FA
:10016C000092009A9A6942F008029A619B6903F026
:10017C0008030193019BDFF8588022464FF45E710F
:10018C00404601F04BFF114D22464FF4F0712846CA
:10019C0001F044FF4FF45E7302930127039704941C
:1001AC000226059602A9404601F04EFE4FF4F0736C
:1001BC00029303970494059602A9284601F044FE85
:1001CC0006B0BDE8F08100BF00100240000C0140F9
:1001DC0000080140F8B5184D184B2B600026AE6096
:1001EC00EE606E614FF46023EB616E6004272F614B
:1001FC00284600F0D9FD124C266001266660A660E8
:10020C002146284600F058FC2660022363602146F4
:10021C00284600F051FC072323600323636021462A
:10022C00284600F049FC09232360676021462846D4
:10023C0000F042FCF8BD00BFC800002000240140C3
:10024C003C00002070B58AB0244D254B2B60022653
:10025C006E600024AC604FF08073EB604FF4402371
:10026C002B614FF480136B612C766C76AC76EC764C
:10027C002C776C77284600F03CFE1A4B0F221A6044
:10028C00DC609C6004221A611C75174B64221A6096
:10029C00DC609C601E611C75144B82221A60DC6051
:1002AC009C601E611C7505940694012307934FF402
:1002BC00E072009201944FF6E0720292039404945F
:1002CC0008936946284600F0BAFE284600F035FF30
:1002DC003146284600F0F8FF0AB070BD68000020D7
:1002EC0000640040B000002098000020480000206E
:1002FC0030B595B0242200210BA801F071FF002429
:10030C000594069407940894099401940294039418
:10031C00049402250A9501230E9310230F930AA827
:10032C0001F07EF90F230593069407940894099421
:10033C00214605A801F09CFB0195039401A801F04E
:10034C007BFC15B030BD00002DE9F0410746334D64
:10035C0000232B6001266E604FF00608C5F808805C
:10036C002F4C2946204600F0A7FB204600F07EFCCF
:10037C004FF47A71204600F0E3FA204600F098FB27
:10038C003880204600F098FD2E606E60C5F808801D
:10039C002946204600F090FB204600F067FC4FF405
:1003AC007A71204600F0CCFA204600F081FB788070
:1003BC00204600F081FD07232B606E60C5F8088095
:1003CC002946204600F078FB204600F04FFC4FF405
:1003DC007A71204600F0B4FA204600F069FBB88030
:1003EC00204600F069FD09232B606E60C5F808807B
:1003FC002946204600F060FB204600F037FC4FF405
:10040C007A71204600F09CFA204600F051FBF880EF
:10041C00204600F051FDBDE8F08100BF3C000020FB
:10042C00C800002030B583B000241FE00133DBB2DC
:10043C00092B13D830F81420584931F813108A427C
:10044C00F4D9591C554D35F811108A42EED8C3F128
:10045C00090202A9214401F8042CE7E702AB23446A
:10046C0013F8042C4E4B1A550134E4B2032C01D86A
:10047C000023DDE79DF805306BBB4A4B01225A7017
:10048C00F4221A709DF80430002B6CD001224FF42A
:10049C008071454801F0C2FD9DF80530002B69D0F4
:1004AC0001220821414801F0B9FD9DF80630002BCE
:1004BC0066D001224FF400713C4801F0AFFD9DF86D
:1004CC000730002B63D001224FF48071374801F0C4
:1004DC00A5FD03B030BD012B15D0022B19D0032B79
:1004EC001DD0042B21D0052B25D0062B29D0072B72
:1004FC002DD0082B31D0092BC4D12A4B08225A708D
:10050C00CA221A70BEE7274B03225A70E8221A70CF
:10051C00B8E7244B04225A70B0221A70B2E7214B70
:10052C0005225A7046221A70ACE71E4B05225A70EF
:10053C00DC221A70A6E71B4B06225A7072221A7024
:10054C00A0E7184B07225A7008221A709AE7154B2D
:10055C0007225A709E221A7094E7124B08225A7086
:10056C0034221A708EE700224FF480710E4801F08D
:10057C0055FD91E7002208210C4801F04FFD94E74E
:10058C0000224FF40071094801F048FD97E7002262
:10059C004FF48071054801F041FD9AE700000020FE
:1005AC009000002060000020000C01400008014079
:1005BC0000B583B000F0FAFFFFF79AFEFFF7C0FD1D
:1005CC00FFF708FEFFF73EFE6846FFF7BDFE6846E4
:1005DC00FFF728FFF8E70000704B1B880E2B00D0AC
:1005EC00704770B56E4B1C78012C1FD0022C2ED08E
:1005FC00042C3DD0082C4CD0102C5BD0202C6AD075
:10060C00674B5A789D78DC78FF2A73D0002A00F06B
:10061C008780FF2D00F08980002D00F09C80FF2C3E
:10062C0000F09F80002C00F0B28070BD5D4D002268
:10063C002021284601F0F2FC00224021284601F03E
:10064C00EDFC00228021284601F0E8FCCEE7554D58
:10065C0000222021284601F0E1FC002240212846FE
:10066C0001F0DCFC01228021284601F0D7FCBFE719
:10067C004C4D01222021284601F0D0FC00224021C3
:10068C00284601F0CBFC01228021284601F0C6FC53
:10069C00B0E7444D01222021284601F0BFFC002286
:1006AC004021284601F0BAFC00228021284601F0A6
:1006BC00B5FCA1E73B4D01222021284601F0AEFC00
:1006CC0000224021284601F0A9FC00228021284666
:1006DC0001F0A4FC92E7334C00222021204601F0CB
:1006EC009DFC4021204601F09FFC8021204601F01A
:1006FC009BFC85E7012210212B4801F08FFC294E31
:10070C0000222021304601F089FC01224021304694
:10071C0001F084FC00228021304601F07FFC78E758
:10072C001021214801F07AFC73E7012220211E4898
:10073C0001F074FC1B4D00222021284601F06EFCB8
:10074C0001224021284601F069FC00228021284624
:10075C0001F064FC63E700222021134801F05EFCE9
:10076C005DE701224021104801F058FC0D4C00229D
:10077C002021204601F052FC01224021204601F0AC
:10078C004DFC00228021204601F048FC4DE7002260
:10079C004021054801F042FC47E700BF040100205E
:1007AC00FC000020000C01400008014008B5054B7E
:1007BC00054A0021054800F0EEFC00B108BDFFF72A
:1007CC000BFFFBE7FC000020040100206800002068
:1007DC007047FEE7FEE7FEE7FEE77047704770479D
:1007EC0008B500F0F5FE08BD08B5024800F08AFD1A
:1007FC0008BD00BF6800002082B00E4B9A6942F021
:10080C0001029A619A6902F001020092009ADA6977
:10081C0042F08052DA61DB6903F080530193019B53
:10082C00054A536823F0E06343F08063536002B0E1
:10083C00704700BF001002400000014010B588B0A6
:10084C00002304930593069307930268184B9A426E
:10085C0001D008B010BD03F56C439A6942F40072E4
:10086C009A619A6902F400720192019A9A6942F0B3
:10087C0004029A619A6902F004020292029A9A693D
:10088C0042F008029A619B6903F008030393039BEF
:10089C00832304930324059404A9064801F0D4FA95
:1008AC0002230493059404A9034801F0CDFAD0E780
:1008BC000024014000080140000C014010B586B036
:1008CC000023029303930493059302681A4B9A42F4
:1008DC0001D006B010BD03F5D633DA6942F00072D0
:1008EC00DA61DA6902F000720092009A9A6942F0B9
:1008FC0004029A619B6903F004030193019B4FF47A
:10090C00006302930D4C02A9204601F09DFA4FF4AE
:10091C0080530293022303930323059302A92046D9
:10092C0001F092FA00221146142001F093FB1420DE
:10093C0001F0C4FBCDE700BF00640040000801409B
:10094C00F0B583B005460C460023019300F04CFE35
:10095C002B689A6812F4807F23D106465A6812F4E9
:10096C00807F03D1DB6A13F4700F24D04B4B1F68CC
:10097C00022001F0EBF9B7FBF0F02B681969484A3B
:10098C0011422FD1D96802F15C4211422AD1196966
:10099C00444A114239D1DA68434B1A4237D02927DD
:1009AC003AE0AB6A43F02003AB62002385F82430B5
:1009BC00012003B0F0BD2B681B6813F0020F48D167
:1009CC00B4F1FF3FF7D024B100F00EFE801BA04223
:1009DC00F1D9AB6A43F00403AB62002385F82430F1
:1009EC000320E6E719692F4A114204D1D96802F1B4
:1009FC006E4211420DD019692C4A0A405AB9DA6874
:100A0C002A4B13405BB1FC2706E0292704E014278E
:100A1C0002E0542700E0FC2707FB00F704E0542712
:100A2C00FAE7019B01330193019BBB4211D2B4F154
:100A3C00FF3FF6D024B100F0D7FD801BA042F0D9C7
:100A4C00AB6A43F00403AB62002385F82430032027
:100A5C00AFE72B686FF012021A60AB6A43F40073B5
:100A6C00AB622B689B6803F46023B3F5602F01D055
:100A7C0000209EE7EB686BB9AB6A23F48073AB6222
:100A8C00AB6A13F4805F07D1AB6A43F00103AB622E
:100A9C0000208EE700208CE700208AE71C00002055
:100AAC002449922492244912922449004992240008
:100ABC000368D86C7047000030B482B000230193F7
:100ACC0090F82430012B00F08B800246012380F833
:100ADC0024304B68062B29D80568686B03EB83031D
:100AEC00053B1F249C4020EA04000C6804FA03F325
:100AFC0003436B630B68092B38D91568E86803EB63
:100B0C0043031E3B07249C4020EA04008C6804FA33
:100B1C0003F30343EB600B68103B012B34D900202B
:100B2C00002382F8243002B030BC70470C2B0ED856
:100B3C000568286B03EB8303233B1F249C4020EAAE
:100B4C0004000C6804FA03F303432B63D2E7056833
:100B5C00E86A03EB8303413B1F249C4020EA04001A
:100B6C000C6804FA03F30343EB62C3E715682869C6
:100B7C0003EB430307249C4020EA04008C6804FA2E
:100B8C0003F303432B61C6E713681648834205D071
:100B9C00936A43F0200393620120C1E7986810F434
:100BAC00000F1BD1986840F4000098600B68102B64
:100BBC0001D00020B4E70C4B1B680C49A1FB0313BC
:100BCC009B0C03EB83035900019102E0019B013B59
:100BDC000193019B002BF9D10020A1E700209FE796
:100BEC000220A0E7002401401C00002083DE1B43F0
:100BFC0030B583B00023019303689A6812F0010F9B
:100C0C002DD19A6842F001029A60164B1B68164A65
:100C1C00A2FB03239B0C0193019B1BB1019B013B8A
:100C2C000193F9E7044600F0DFFC054623689B6856
:100C3C0013F0010F11D100F0D7FC401B0228F5D99D
:100C4C00A36A43F01003A362E36A43F00103E36277
:100C5C00002384F82430012002E0002000E0002072
:100C6C0003B030BD1C00002083DE1B4390F8243001
:100C7C00012B6BD010B50446012380F82430FFF70C
:100C8C00B7FF024600285CD1A36A23F4407323F01B
:100C9C00010343F48073A36221682E4B994228D040
:100CAC00A36A23F48013A3624B6813F4806F05D0FE
:100CBC00A36A23F4405343F48053A362A36A13F44E
:100CCC00805F2CD0E36A23F00603E362002384F8F0
:100CDC00243023686FF0020119602368996801F4CD
:100CEC006021B1F5602F1DD0996841F48011996095
:100CFC002AE0A3F580635B6813F4702FD0D0A36A4D
:100D0C0043F48013A362144B5B6813F4806FD5D04B
:100D1C00A36A23F4405343F48053A362CEE7002329
:100D2C00E362D3E70B498B4204D0996841F4A001EC
:100D3C00996009E0A1F58061496811F4702FD3D155
:100D4C00F3E7002384F82430104610BD022210462D
:100D5C00704700BF002801400024014038B50368EB
:100D6C009A6812F0010F01D1002038BD04469A6830
:100D7C0022F001029A6000F037FC054623689B685C
:100D8C0013F0010F0ED000F02FFC401B0228F5D9F8
:100D9C00A36A43F01003A362E36A43F00103E36226
:100DAC000120E2E70020E0E700287FD038B50446B8
:100DBC00836A002B33D02046FFF7D0FFA36A13F0D1
:100DCC0010036DD100286BD1A26A22F4885222F054
:100DDC00020242F00202A2626268E1690A43E5681B
:100DEC0042EA4502A168B1F5807F21D001291CD0CF
:100DFC00616901291FD02568696821F469410B4399
:100E0C006B6021688D682A4B2B4013438B60A36861
:100E1C00B3F5807F20D0012B1ED000211FE0C362D0
:100E2C0080F82430FFF70AFDC5E74FF48073DFE745
:100E3C004FF48073DCE735B9A169013943EA4133DA
:100E4C0043F40063D7E7A16A41F02001A162E16A93
:100E5C0041F00101E162CEE72369013B19052568E8
:100E6C00EB6A23F470030B43EB6223689968114B14
:100E7C000B409A420BD0A36A23F0120343F01003E9
:100E8C00A362E36A43F00103E36201200DE0002357
:100E9C00E362A36A23F0030343F00103A36204E0BB
:100EAC00A36A43F01003A362012038BD01207047F0
:100EBC00FDF7E1FFFE0E1FFF90F82430012B15D03B
:100ECC0010B50446012380F82430FFF747FF024693
:100EDC0038B9A36A23F4885323F0010343F00103C8
:100EEC00A362002384F82430104610BD0222104661
:100EFC007047002800F0A18038B5044690F82030E7
:100F0C00D3B12268136823F00203136000F06CFB6A
:100F1C00054623685A6812F0020F10D000F064FBEB
:100F2C00401B0A28F5D9636A43F400336362052336
:100F3C0084F82030012038BDFFF7C0FCE1E71A68C7
:100F4C0042F001021A6000F04FFB054623685A6814
:100F5C0012F0010F0DD100F047FB401B0A28F5D908
:100F6C00636A43F400336362052384F82030012064
:100F7C00E1E7227E012A3DD01A6822F080021A6035
:100F8C00637E012B3BD02268136823F0400313606F
:100F9C00A37E012B39D02268136823F02003136041
:100FAC00E37E012B37D02268136843F010031360E3
:100FBC00237F012B35D02268136823F008031360BC
:100FCC00637F012B33D02268136823F00403136072
:100FDC00A368E2681343226913436269134362688E
:100FEC00013A21681343CB6100206062012384F82D
:100FFC002030A0E71A6842F080021A60C0E722682D
:10100C00136843F040031360C2E72268136843F08F
:10101C0020031360C4E72268136823F010031360E5
:10102C00C6E72268136843F008031360C8E7226818
:10103C00136843F004031360CAE701207047036888
:10104C0090F82020013AD2B2012A05D9436A43F420
:10105C00802343620120704770B4D3F8002242F021
:10106C000102C3F800224A6902F01F02012000FAB3
:10107C0002F2D3F81C42D0430440C3F81C42CC69A2
:10108C00ACB9D3F80C420440C3F80C42CE688D883E
:10109C004C6945EA0645483443F834508E680D884F
:1010AC004C6945EA0645483403EBC4046560CC69D9
:1010BC00012C19D08C6974BBD3F804420440C3F8DA
:1010CC0004420C696CBBD3F814422040C3F81402E0
:1010DC00096A01292BD0D3F8002222F00102C3F8AF
:1010EC000022002070BC7047D3F80C421443C3F8A4
:1010FC000C420E688D884C6945EA0645483443F825
:10110C0034508E688D894C6945EA0645483403EBAA
:10111C00C4046560CEE7D3F804421443C3F8044218
:10112C00CFE7D3F814021043C3F81402D0E7D3F876
:10113C001C120A43C3F81C22CDE738B590F82030B6
:10114C00DBB2012B05D0436A43F400234362012038
:10115C0038BD0446022380F820300268136823F05F
:10116C000103136000F040FA054623685B6813F036
:10117C00010F0DD000F038FA401B0A28F5D9636A2C
:10118C0043F400336362052384F820300120DFE749
:10119C0000206062DCE730B490F82040013CE4B2FF
:1011AC00012C00F28A8051B90468E46814F0030F32
:1011BC0010D1436A43F400134362012082E00468B7
:1011CC00246914F0030F05D1436A43F400134362FE
:1011DC00012077E0056801F11B0424012C5904F06F
:1011EC0004049460002C5AD1056801F11B042401FD
:1011FC002C59640D1460056801F11B0424012D5950
:10120C00C5F34005D560056825446D6805F00F05EC
:10121C001561056825446D68C5F30725956105685A
:10122C002C446468240C546104680A011444D4F8F6
:10123C00B8411C7004681444D4F8B841C4F30724B2
:10124C005C7004681444D4F8B841C4F307449C702F
:10125C0004681444D4F8B841240EDC7004681444B7
:10126C00D4F8BC411C7104681444D4F8BC41C4F3D8
:10127C0007245C7104681444D4F8BC41C4F30744DB
:10128C009C7104682244D2F8BC21120EDA7171B937
:10129C000268D36843F02003D360002012E0056895
:1012AC0001F11B0424012C59E4085460A3E70268E3
:1012BC00136943F020031361EFE7436A43F480237F
:1012CC004362012030BC704790F82030013BDBB208
:1012DC00012B05D9436A43F48023436201207047F4
:1012EC00026853690B435361002070477047704785
:1012FC00704770477047704770477047704770472A
:10130C00704770472DE9F84F054603685C695F68C4
:10131C009E68D3F80CA0D3F81090D3F8188014F072
:10132C00010F5AD016F0010F17D001229A6016F057
:10133C00020F08D116F0040F30D116F0080F07D0A9
:10134C004FF4805B0BE0FFF7D1FF4FF0000B06E092
:10135C00FFF7CFFF4FF0000B01E04FF0000B16F43E
:10136C00807F0BD02B684FF480729A6016F4007F4C
:10137C0017D116F4806F18D04BF4005B16F4803F35
:10138C002DD02B684FF480329A6016F4003F16D1A2
:10139C0016F4802F17D04BF4004B20E04FF4006B69
:1013AC00DDE72846FFF7A3FFE8E716F4006F02D04D
:1013BC004BF4804BE2E72846FFF79CFFDEE728461C
:1013CC00FFF796FF0BE016F4002F02D04BF4803B96
:1013DC0005E02846FFF78FFF01E04FF0000B14F0FB
:1013EC00080F07D01AF0100F04D04BF4007B2B68B9
:1013FC001022DA6014F0040F02D01AF0080F6AD130
:10140C0014F0020F04D02B68DB6813F0030F69D1C2
:10141C0014F0400F07D019F0100F04D04BF4806B70
:10142C002B6810221A6114F0200F02D019F0080F4B
:10143C005CD114F0100F04D02B681B6913F0030F50
:10144C005BD114F4003F02D017F0100F59D114F4F3
:10145C00803F02D017F0080F5AD114F4004F35D04A
:10146C0017F0040F2FD014F4807F04D018F0010F64
:10147C0001D04BF0010B14F4007F04D018F0020FD4
:10148C0001D04BF0020B14F4806F04D018F0040F51
:10149C0001D04BF0040B14F4006F14D018F070084A
:1014AC0011D0B8F1300F46D039D9B8F1500F48D01F
:1014BC00B8F1600F48D0B8F1400F3FD02A6893695B
:1014CC0023F0700393612B6804225A60BBF1000F68
:1014DC003DD1BDE8F88F2B680822DA602846FFF76B
:1014EC000BFF8DE72846FFF761F991E72B6808227F
:1014FC001A612846FFF702FF9BE72846FFF7FDFE1F
:10150C009FE72B6810225A602846FFF7F8FE9EE7EB
:10151C002B6808225A602846FFF7F2FE9DE7B8F1C7
:10152C00100F05D0B8F1200FC8D14BF0100BC5E748
:10153C004BF0080BC2E74BF0200BBFE74BF0400B16
:10154C00BCE74BF0800BB9E74BF4807BB6E76B6ADA
:10155C0043EA0B036B622846FFF7D3FEB9E70000A2
:10156C0010B504460E4B18784FF47A73B3FBF0F3B6
:10157C000C4A1068B0FBF3F000F0ACFD68B90F2C0E
:10158C0001D901200AE0002221464FF0FF3000F083
:10159C0061FD054B1C60002000E0012010BD00BF68
:1015AC00160000201C0000201800002008B5074A77
:1015BC00136843F010031360032000F039FD002082
:1015CC00FFF7CEFFFFF718F9002008BD00200240FE
:1015DC00034A1168034B1B780B441360704700BF20
:1015EC002C01002016000020014B1868704700BF2A
:1015FC002C01002082B0084B1B68084AA2FB032375
:10160C005B0A00FB03F0019000BF019B5A1E019284
:10161C00002BF9D102B070471C000020D34D621092
:10162C0070B582B00446036813F0010F2CD0AB4B9D
:10163C005B6803F00C03042B1DD0A84B5B6803F014
:10164C000C03082B12D06368B3F5803F41D0002BFC
:10165C0055D103F1804303F504331A6822F4803228
:10166C001A601A6822F480221A6037E09B4B5B6880
:10167C0013F4803FE7D0994B1B6813F4003F03D061
:10168C006368002B00F0AE81236813F0020F75D055
:10169C00924B5B6813F00C0F5FD0904B5B6803F0C0
:1016AC000C03082B54D02369002B00F089808C4B41
:1016BC0001221A60FFF798FF0546884B1B6813F050
:1016CC00020F74D1FFF790FF401B0228F5D90320BD
:1016DC008DE1824A136843F480331360636843B32B
:1016EC00FFF782FF05467D4B1B6813F4003FCBD1FF
:1016FC00FFF77AFF401B6428F5D9032077E1B3F597
:10170C00A02F09D0754B1A6822F480321A601A681F
:10171C0022F480221A60E1E703F18043A3F53C3305
:10172C001A6842F480221A601A6842F480321A60F5
:10173C00D4E7FFF759FF0546684B1B6813F4003FCD
:10174C00A2D0FFF751FF401B6428F5D903204EE1CE
:10175C00624B5B6813F4803FA5D1604B1B6813F0A0
:10176C00020F03D02369012B40F03E815B4A1368C2
:10177C0023F0F803616943EAC1031360236813F093
:10178C00080F32D0A369002B5BD0564B01221A6094
:10179C00FFF72AFF0546514B5B6A13F0020F21D16C
:1017AC00FFF722FF401B0228F5D903201FE14B4A0B
:1017BC00136823F0F803616943EAC1031360DDE7A2
:1017CC00474B00221A60FFF70FFF0546434B1B687F
:1017DC0013F0020FD2D0FFF707FF401B0228F5D9F8
:1017EC00032004E10120FFF705FF236813F0040F29
:1017FC0000F09880394BDB6913F0805F33D1374BA5
:10180C00DA6942F08052DA61DB6903F080530193AC
:10181C00019B0125344B1B6813F4807F25D0E368B2
:10182C00012B36D0002B4CD103F1804303F504334C
:10183C001A6A22F001021A621A6A22F004021A626F
:10184C002CE0284B00221A60FFF7CEFE0546234BF6
:10185C005B6A13F0020FC8D0FFF7C6FE401B0228CC
:10186C00F5D90320C3E00025D4E71F4A136843F4DD
:10187C0080731360FFF7B8FE06461B4B1B6813F40E
:10188C00807FCCD1FFF7B0FE801B6428F5D90320F4
:10189C00ADE0124A136A43F001031362E3687BB3B1
:1018AC00FFF7A2FE06460D4B1B6A13F0020F38D150
:1018BC00FFF79AFE801B41F288339842F3D903203C
:1018CC0095E0052B12D0054B1A6A22F001021A6220
:1018DC001A6A22F004021A62E0E700BF001002400C
:1018EC00000042428004424200700040424B1A6A9F
:1018FC0042F004021A621A6A42F001021A62CDE73F
:10190C00FFF772FE06463C4B1B6A13F0020F08D021
:10191C00FFF76AFE801B41F288339842F3D903200B
:10192C0065E0E5B9E369002B60D0334A526802F0F8
:10193C000C02082A5DD0022B17D0304B00221A6003
:10194C00FFF752FE04462C4B1B6813F0007F47D068
:10195C00FFF74AFE001B0228F5D9032047E0264A70
:10196C00D36923F08053D361DCE7244B00221A6047
:10197C00FFF73AFE0546204B1B6813F0007F06D09C
:10198C00FFF732FE401B0228F5D903202FE0236A13
:10199C00B3F5803F1AD018494B6823F47413226AAC
:1019AC00606A024313434B60144B01221A60FFF729
:1019BC001BFE0446104B1B6813F0007F0ED1FFF783
:1019CC0013FE001B0228F5D9032010E00A4A5368C5
:1019DC0023F40033A1680B435360DCE7002006E0DE
:1019EC00002004E0012002E0012000E0002002B011
:1019FC0070BD0120FBE700BF0010024060004242B6
:101A0C0010B487B0164C94E80F000DF1180C0CE9CB
:101A1C000F00238AADF80430124B5B6803F00C0204
:101A2C00082A03D0104807B010BC7047C3F3834298
:101A3C00624412F8102C13F4803F0CD0094B5B68F5
:101A4C00C3F34043634413F8143C074800FB02F013
:101A5C00B0FBF3F0E7E7054800FB02F0E3E700BF5B
:101A6C00142200080010024000127A0000093D0008
:101A7C00624B1B6803F007038B420BD25F4A13685F
:101A8C0023F007030B431360136803F007038B4227
:101A9C0040F0AE8070B5036813F0020F17D013F04E
:101AAC00040F04D0564A536843F4E0635360036850
:101ABC0013F0080F04D0524A536843F46053536038
:101ACC004F4A536823F0F0038468234353600D4658
:101ADC000446036813F0010F52D04368012B23D046
:101AEC00022B28D0464A126812F0020F00F08280B6
:101AFC0043494A6822F0030213434B60FFF774FD1D
:101B0C0006466368012B1DD0022B2AD03C4B5B6828
:101B1C0013F00C0F34D0FFF767FD801B41F28833B4
:101B2C009842F3D9032062E0354A126812F4003F60
:101B3C00DED101205BE0324A126812F0007FD7D16F
:101B4C00012054E02E4B5B6803F00C03042B17D0E0
:101B5C00FFF74AFD801B41F288339842F2D90320EB
:101B6C0045E0274B5B6803F00C03082B08D0FFF70C
:101B7C003BFD801B41F288339842F2D9032036E0BA
:101B8C001E4B1B6803F00703AB420AD91B4A1368B0
:101B9C0023F007032B431360136803F00703AB42D6
:101BAC002AD1236813F0040F06D0154A536823F486
:101BBC00E063E1680B435360236813F0080F07D010
:101BCC000F4A536823F46053216943EAC1035360FD
:101BDC00FFF716FF0A4B5B68C3F30313094AD35C88
:101BEC00D840094B18600020FFF7BAFC002070BDEC
:101BFC00012070470120FAE70120F8E7002002409D
:101C0C00001002403C2200081C000020014B186808
:101C1C00704700BF1C00002008B5FFF7F7FF044B0E
:101C2C005B68C3F3C223034AD35CD84008BD00BF32
:101C3C00001002404C22000870B582B004460368C4
:101C4C0013F0010F34D03E4BDB6913F0805F48D1A9
:101C5C003B4BDA6942F08052DA61DB6903F0805366
:101C6C000193019B0125374B1B6813F4807F3AD0FD
:101C7C00334B1B6A13F4407311D0626802F4407248
:101C8C009A420CD02E4A136A23F440702E49012636
:101C9C000E6000260E60106213F0010F37D1284A37
:101CAC00136A23F4407361680B431362002D3FD118
:101CBC00236813F0020F06D0214A536823F44043E3
:101CCC00A1680B435360236813F0100F35D01C4AE6
:101CDC00536823F48003E1680B435360002002B087
:101CEC0070BD0025BFE7174A136843F48073136077
:101CFC00FFF77AFC0646134B1B6813F4807FB7D1B1
:101D0C00FFF772FC801B6428F5D90320E7E7FFF787
:101D1C006BFC06460A4B1B6A13F0020FBFD1FFF790
:101D2C0063FC801B41F288339842F3D90320D6E739
:101D3C00D36923F08053D361BAE70020CFE700BF0B
:101D4C0000100240007000404004424230B587B0A1
:101D5C000546384C94E80F000DF1180C0CE90F00F7
:101D6C00238AADF80430022D51D0102D04D0012D52
:101D7C002CD0002007B030BD2F4B5A681B6813F0D5
:101D8C00807F4FD0C2F3834306A90B4413F8100C89
:101D9C0012F4803F16D0284B5B68C3F340430B44CE
:101DAC0013F8142C254BB3FBF2F300FB03F0224B7E
:101DBC005B6813F4800FDDD14000214BA3FB003096
:101DCC004008D7E71F4B03FB00F0F0E71A4B1B6AE8
:101DDC0040F202321A40B2F5817F25D003F44073F1
:101DEC00B3F5007F04D0B3F5407F09D00020C1E7E4
:101DFC00114A526A12F0020FF5D049F64040B9E789
:101E0C000D4B1B6813F4003F11D10020B2E7FFF714
:101E1C0003FF094B5B68C3F3813301335B00B0FBF9
:101E2C00F3F0A7E70020A5E74FF40040A2E74FF23C
:101E3C0024409FE7282200080010024000127A007C
:101E4C00ABAAAAAA00093D00F0B482B00026354620
:101E5C00A0E0002B58D0012B10D1CE680EE0694FBA
:101E6C00BB4251D048D9684FBB424DD007F58037A3
:101E7C00BB4249D0A7F58017BB4245D0FF2A57D8A3
:101E8C008446FF2A57D8AC00DCF800300F27A74057
:101E9C0023EA070306FA04F42343CCF800304B681A
:101EAC0013F0805F75D0594B9C6944F001049C6120
:101EBC009B6903F001030193019BAC08A71C544BD5
:101ECC0053F8273005F00307BF004FF00F0C0CFA46
:101EDC0007FC23EA0C0C4F4B984232D003F580637D
:101EEC00984270D003F5806398426ED003F58063FE
:101EFC00984224D0042325E0A7F58017BB4203D0D9
:101F0C0007F58037BB42B9D18B687BB1012B08D068
:101F1C0044610826B2E7CE680836AFE7CE680C36C7
:101F2C00ACE704610826A9E70026A7E70426A5E785
:101F3C0000F1040CA5E7A5F10804A400A4E7032311
:101F4C0000E00023BB4043EA0C030234304F47F857
:101F5C0024304B6813F4803F39D02F4C2368134343
:101F6C0023604B6813F4003F37D02B4C636813434A
:101F7C0063604B6813F4801F35D0274CA368134360
:101F8C00A3604B6813F4001F33D0234CE3681A434F
:101F9C00E26001350F2D32D80124AC400A68224092
:101FAC009442F6D14B68122BB8D03FF658AF022BA7
:101FBC00B1D07FF64EAF032BB6D0112B7FF45EAFB2
:101FCC00CE6804365AE70123BCE70223BAE7124C69
:101FDC00236823EA02032360C3E70F4C636823EAF8
:101FEC0002036360C5E70C4CA36823EA0203A360F9
:101FFC00C7E7094CE36823EA0202E260C9E702B0D2
:10200C00F0BC70470000211000003110001002409D
:10201C000000014000080140000401400AB10161C8
:10202C007047090401617047C3685940C16070472B
:10203C00074AD36823F4E0631B041B0C000200F472
:10204C00E060184340F0BF6040F40030D06070474F
:10205C0000ED00E030B4174BDB68C3F30223C3F18F
:10206C000704042C28BF04241D1D062D01D9033B95
:10207C0000E000234FF0FF3505FA04F421EA0401D7
:10208C00994005FA03F322EA03031943002809DBFC
:10209C000901C9B200F1604000F5614080F80013FD
:1020AC0030BC704700F00F000901C9B2024B195443
:1020BC00F6E700BF00ED00E014ED00E000F01F02B9
:1020CC00400901239340024A42F82030704700BF78
:1020DC0000E100E00138B0F1807F0AD2064B586075
:1020EC00064AF02182F823100020986007221A601B
:1020FC0070470120704700BF10E000E000ED00E0E9
:10210C000F4B1A6842F001021A6059680D4A0A40D6
:10211C005A601A6822F0847222F480321A601A68AB
:10212C0022F480221A605A6822F4FE025A604FF49C
:10213C001F029A60044B4FF000629A60704700BF18
:10214C00001002400000FFF800ED00E0002103E069
:10215C000B4B5B58435004310A480B4B42189A42C4
:10216C00F6D30A4A02E0002342F8043B084B9A4299
:10217C00F9D3FFF7C5FF00F00FF8FEF719FA704717
:10218C005C2200080000002020000020200000201D
:10219C0030010020FEE7000070B500260C4D0D4C00
:1021AC00641BA410A64209D100F022F800260A4DA7
:1021BC000A4C641BA410A64205D170BD55F8043B13
:1021CC0098470136EEE755F8043B98470136F2E79D
:1021DC0054220008542200085422000858220008F7
:1021EC0003460244934200D1704703F8011BF9E700
:1021FC00F8B500BFF8BC08BC9E467047F8B500BFE8
:08220C00F8BC08BC9E467047B7
:1022140002030405060708090A0B0C0D0E0F101023
:102224000102000002030405060708090A0B0C0D4D
:102234000E0F10100102000000000000000000005A
:102244000102030406070809000000000102030458
:04225400310100084C
:042258000D0100086C
:10225C000000670201049B053507CF08690A030CCF
:10226C009D0D370FFF0F01001000000000A24A0463
:040000050800215975
:00000001FF
