:020000040800F2
:1000000000500020B9210008C1060008C5060008FC
:10001000C9060008CD060008D1060008000000004F
:10002000000000000000000000000000D5060008ED
:10003000D906000800000000DD060008E1060008FF
:100040000122000801220008012200080122000804
:1000500001220008012200080122000801220008F4
:1000600001220008012200080122000801220008E4
:1000700001220008012200080122000801220008D4
:1000800001220008012200080122000801220008C4
:10009000E9060008012200080122000801220008E8
:1000A00001220008012200080122000801220008A4
:1000B0000122000801220008012200080122000894
:1000C0000122000801220008012200080122000884
:1000D0000122000801220008012200080122000874
:1000E000012200080122000801220008000000008F
:1000F0000000000000000000000000000000000000
:0C01000000000000000000005FF808F1A3
:10010C00044B05481B1A062B02D9044B03B11847A4
:10011C00704700BF270000202400002000000000D2
:10012C0005490648091A891001EBD171491002D012
:10013C00034B03B118477047240000202400002013
:10014C000000000010B5064C237843B9FFF7D8FF28
:10015C00044B13B10448AFF300800123237010BD8E
:10016C0024000020000000005022000808B5084BB5
:10017C001BB108480849AFF300800848036813B95D
:10018C00BDE80840CCE7064B002BF9D09847F7E7C1
:10019C00000000005022000828000020240000204D
:1001AC00000000002DE9F04186B000240294039475
:1001BC00049405941D4B9A6942F004029A619A6961
:1001CC0002F004020092009A9A6942F008029A61C5
:1001DC009B6903F008030193019BDFF858804046AC
:1001EC004FF45E71224601F04FFF114D28464FF43B
:1001FC00F071224601F048FF4FF45E730293012721
:10020C000397049402260596404602A901F04AFE83
:10021C004FF4F0730293039704940596284602A9B1
:10022C0001F040FE06B0BDE8F08100BF00100240B6
:10023C00000C014000080140F8B5184D184B2B601C
:10024C000026AE60EE606E614FF46023EB616E6071
:10025C0004272F61284600F025FD124C266001264C
:10026C006660A6602846214600F0A2FB26600223A9
:10027C0063602846214600F09BFB07232360032381
:10028C0063602846214600F093FB092323606760D6
:10029C002846214600F08CFBF8BD00BF94000020DE
:1002AC00002401404000002070B58AB01B4D1C4B4F
:1002BC002B6002266E600024AC604FF04073EB6044
:1002CC004FF420232B614FF440136B612C766C762A
:1002DC00AC76EC762C776C77284600F085FD114BCC
:1002EC000F221A60DC609C6004221A611C75059454
:1002FC0006940123079300940194029403940494AC
:10030C0008932846694600F019FE284600F092FE34
:10031C002846314600F0D0FF0AB070BD4C000020DA
:10032C00006400407C00002030B595B000240B9494
:10033C000C940D94109411941294139405940694A7
:10034C00079408940994019402940394049402254C
:10035C000A9501230E9310230F930AA801F072F94A
:10036C000F230593069407940894099405A8214635
:10037C0001F0A0FB0195039401A801F085FC15B0D8
:10038C0030BD00BF2DE9F0410746334D00232B60F3
:10039C0001266E604FF00608C5F808802F4C2046E9
:1003AC00294600F005FB204600F0D8FB20464FF410
:1003BC007A7100F03FFA204600F0F6FA38802046B9
:1003CC0000F0F6FC2E606E60C5F8088020462946C9
:1003DC0000F0EEFA204600F0C1FB20464FF47A7193
:1003EC0000F028FA204600F0DFFA7880204600F072
:1003FC00DFFC07232B606E60C5F808802046294679
:10040C0000F0D6FA204600F0A9FB20464FF47A7192
:10041C0000F010FA204600F0C7FAB880204600F031
:10042C00C7FC09232B606E60C5F80880204629465E
:10043C0000F0BEFA204600F091FB20464FF47A7192
:10044C0000F0F8F9204600F0AFFAF880204600F0F2
:10045C00AFFCBDE8F08100BF4000002094000020FC
:10046C0030B583B0002420E030F81420304931F846
:10047C0013108A420BD9591C2D4D35F811108A4294
:10048C0005D8C3F1090102AA224402F8041C013365
:10049C00DBB200E00023092BE6D902AB234413F8AE
:1004AC00042C244B1A550134E4B2032CF2D99DF8D8
:1004BC00043033B120484FF48071012201F0E4FD87
:1004CC0005E01D484FF48071002201F0DDFD9DF820
:1004DC0005302BB119480821012201F0D5FD04E0AB
:1004EC0016480821002201F0CFFD9DF8063033B1EB
:1004FC0012484FF40071012201F0C6FD05E00F48CF
:10050C004FF40071002201F0BFFD9DF8073033B1AC
:10051C000A484FF48071012201F0B6FD05E007484E
:10052C004FF48071002201F0AFFD03B030BD00BF6D
:10053C000000002074000020000C01400008014065
:10054C0008B505480021054A054B00F017FE10B907
:10055C00FF22044B1A7008BD4C000020D000002074
:10056C00C8000020EC00002070B5364B1C88D02C45
:10057C003CD1354B1A785E789D78FF2A05D13348EB
:10058C001021012201F080FD04E01AB92F4810213E
:10059C0001F07AFDFF2E05D12C482021012201F01B
:1005AC0073FD05E026B929482021002201F06CFDDD
:1005BC00FF2D05D125484021012201F065FD05E004
:1005CC0025B922484021002201F05EFD204D28462D
:1005DC002021002201F058FD28464021012201F083
:1005EC0053FD28468021002201F04EFDD12C24D150
:1005FC00154B1C78FF2C0FD1154D284620210122BC
:10060C0001F042FD28464021002201F03DFD284624
:10061C008021002201F038FD7CB90D4C20462021B0
:10062C00002201F031FD20464021002201F02CFD7A
:10063C0020468021012201F027FD0022054B1A7073
:10064C0070BD00BFD0000020C80000200008014091
:10065C00000C0140EC00002000B583B000F0A4FFBA
:10066C00FFF762FEFFF79EFDFFF7E6FDFFF71CFEAE
:10067C000B4B1B78DBB2FF2B01D1FFF775FF6846E4
:10068C00FFF780FE6846FFF7EBFE06480649074A6F
:10069C00074B00F0FFFC4FF47A7000F0A9FFE7E77E
:1006AC00EC0000204C0000207C0000207400002096
:1006BC00C4000020704700BFFEE700BFFEE700BF8C
:1006CC00FEE700BFFEE700BF704700BF704700BFEA
:1006DC00704700BF08B500F079FF08BD08B50248A7
:1006EC0000F014FE08BD00BF4C00002082B00E4B81
:1006FC009A6942F001029A619A6902F00102009231
:10070C00009ADA6942F08052DA61DB6903F08053B7
:10071C000193019B054A536823F0E06343F0806327
:10072C00536002B0704700BF00100240000001404F
:10073C0010B588B0002304930593069307930268C1
:10074C00184B9A422BD103F56C439A6942F4007210
:10075C009A619A6902F400720192019A9A6942F0C4
:10076C0004029A619A6902F004020292029A9A694E
:10077C0042F008029A619B6903F008030393039B00
:10078C008323049303240594074804A901F08AFBEE
:10079C00022304930594054804A901F083FB08B0D7
:1007AC0010BD00BF0024014000080140000C0140B6
:1007BC0030B587B00023029303930493059302682A
:1007CC001A4B9A4230D103F5D633DA6942F00072F3
:1007DC00DA61DA6902F000720092009A9A6942F0CA
:1007EC0004029A619B6903F004030193019B06AC1C
:1007FC004FF4006344F8103D0D4D2846214601F09E
:10080C0051FB4FF48053029302230393032305936C
:10081C002846214601F046FB142000210A4601F02F
:10082C004BFC142001F07AFC07B030BD0064004092
:10083C0000080140F0B583B005460C460023019337
:10084C0000F0D0FE2B689A6812F4807F08D0AB6A57
:10085C0043F02003AB62002385F82430012097E09D
:10086C0006465A6812F4807F1CD1DB6A13F4700FB1
:10087C0012D017E0B4F1FF3F0ED024B100F0B2FE5D
:10088C00801BA04208D9AB6A43F00403AB6200237F
:10089C0085F8243003207BE02B681B6813F0020FD3
:1008AC00E8D051E03B4B1F68022001F077FAB7FB10
:1008BC00F0F02B681969384A114212D1D96802F14B
:1008CC005C4211420DD11969344A114205D1DA68E2
:1008DC00334B1A4203D029231BE0292319E014239C
:1008EC0017E019692D4A114204D1D96802F16E4200
:1008FC00114209D019692B4A0A403AB9DA68294BD6
:10090C0013402BB1FC2304E0542302E0FC2300E051
:10091C00542303FB00F714E0B4F1FF3F0ED024B1D5
:10092C0000F060FE801BA04208D9AB6A43F00403C0
:10093C00AB62002385F82430032029E0019B0133AE
:10094C000193019BBB42E7D32B686FF012021A6034
:10095C00AB6A43F40073AB622B689B6803F46023AF
:10096C00B3F5602F0FD1EB687BB9AB6A23F48073BE
:10097C00AB62AB6A13F4805F09D1AB6A43F001033D
:10098C00AB62002004E0002002E0002000E0002028
:10099C0003B0F0BD20000020244992249224491277
:1009AC0092244900499224000368D86C704700BF18
:1009BC0070B483B00023019390F82430012B00F025
:1009CC008380012380F824304B68062B0DD80668F1
:1009DC00756B03EB8303053B1F229A4025EA020447
:1009EC000A689A40224372631CE00C2B0DD80668EF
:1009FC00356B03EB8303233B1F229A4025EA020449
:100A0C000A689A40224332630CE00668F56A03EBED
:100A1C008303413B1F229A4025EA02040A689A404C
:100A2C002243F2620B68092B0DD90668F56803EBBB
:100A3C0043031E3B07229A4025EA02048A689A4027
:100A4C002243F2600BE00668356903EB430307228F
:100A5C009A4025EA02048A689A40224332610B6864
:100A6C00103B012B26D80368194A93421CD19A6873
:100A7C0012F4000F20D19A6842F400029A600B68BD
:100A8C00102B1BD1134B1B68134AA2FB03239B0C8B
:100A9C0003EB83035B00019302E0019B013B019399
:100AAC00019B002BF9D10AE0836A43F02003836297
:100ABC00012304E0002302E0002300E000230022D5
:100ACC0080F82420184600E0022003B070BC704768
:100ADC00002401402000002083DE1B4330B583B08E
:100AEC000023019303689A6812F0010F2FD19A68C2
:100AFC0042F001029A60174B1B68174AA2FB0323B2
:100B0C009B0C019302E0019B013B0193019B002B89
:100B1C00F9D1044600F066FD054611E000F062FDD7
:100B2C00401B02280CD9A36A43F01003A362E36AAA
:100B3C0043F00103E362002384F82430012007E032
:100B4C0023689B6813F0010FE8D0002000E0002020
:100B5C0003B030BD2000002083DE1B4390F824300E
:100B6C00012B70D010B50446012380F82430FFF718
:100B7C00B5FF0346002861D1A26A22F4407222F02C
:100B8C00010242F48072A262226830498A4205D185
:100B9C00A1F58061496811F4702F0ED1A16A21F47E
:100BAC008011A162516811F4806F1CD0A16A21F4EC
:100BBC00405141F48051A16215E0A16A41F48011C9
:100BCC00A16223498A4203D001F580618A420AD18D
:100BDC001F49496811F4806F05D0A16A21F4405176
:100BEC0041F48051A162A16A11F4805F04D0E16AE2
:100BFC0021F00601E16201E00021E162002184F8AC
:100C0C0024106FF0020111602268916801F46021D8
:100C1C00B1F5602F0DD10D498A4205D1A1F5806146
:100C2C00496811F4702F04D1916841F4A0019160CE
:100C3C0007E0916841F48011916002E0002284F891
:100C4C002420184610BD0220704700BF0028014028
:100C5C000024014038B503689A6812F0010F1ED0C9
:100C6C0004469A6822F001029A6000F0BBFC05462B
:100C7C000EE000F0B7FC401B022809D9A36A43F030
:100C8C001003A362E36A43F00103E362012038BD61
:100C9C0023689B6813F0010FEBD1002038BD0020B6
:100CAC0038BD00BF00287DD038B50446836A23B90F
:100CBC00C36280F82430FFF73BFD2046FFF7CAFFE4
:100CCC00A36A13F0100F67D1002865D1A36A23F42F
:100CDC00885323F0020343F00203A3626268E369C2
:100CEC001343E16843EA4103A268B2F5807F04D064
:100CFC00012A05D14FF4807203E04FF4807200E0BA
:100D0C0000226569012D0FD131B9A169013942EA7F
:100D1C00413242F4006207E0A16A41F02001A16275
:100D2C00E16A41F00101E1622568696821F46941D9
:100D3C000A436A6021688D681B4A2A401A438A60FC
:100D4C00A268B2F5807F01D0012A03D12269013A51
:100D5C00110500E000212568EA6A22F470020A43BA
:100D6C00EA6222689168114A0A40934208D1002332
:100D7C00E362A36A23F0030343F00103A36238BDCB
:100D8C00A36A23F0120343F01003A362E36A43F057
:100D9C000103E362012038BDA36A43F01003A36290
:100DAC00012038BD01207047FDF7E1FFFE0E1FFF4B
:100DBC0090F82430012B15D010B50446012380F88F
:100DCC002430FFF747FF034638B9A26A22F4885251
:100DDC0022F0010242F00102A262002284F82420D7
:100DEC00184610BD02207047002800F0A48038B5CA
:100DFC00044690F8203013F0FF0F01D1FFF7D8FC18
:100E0C002268136823F00203136000F0EBFB054625
:100E1C000DE000F0E7FB401B0A2808D9636A43F495
:100E2C0000336362052384F82030012038BD236829
:100E3C005A6812F0020FECD11A6842F001021A60E3
:100E4C0000F0D0FB05460DE000F0CCFB401B0A285F
:100E5C0008D9636A43F400336362052384F82030B5
:100E6C00012038BD23685A6812F0010FECD0227EA5
:100E7C00012A04D11A6842F080021A6003E01A6851
:100E8C0022F080021A60637E012B05D12268136860
:100E9C0043F04003136004E02268136823F040031E
:100EAC001360A37E012B05D12268136843F0200345
:100EBC00136004E02268136823F020031360E37EC0
:100ECC00012B05D12268136823F01003136004E092
:100EDC002268136843F010031360237F012B05D1A4
:100EEC002268136843F00803136004E02268136857
:100EFC0023F008031360637F012B05D1226813686C
:100F0C0043F00403136004E02268136823F0040325
:100F1C0013602168A268E3681A4323691A43636962
:100F2C001A436368013B1343CB61002060620123C9
:100F3C0084F8203038BD0120704700BF026890F85B
:100F4C002030013BDBB2012B6CD870B4D2F80032EC
:100F5C0043F00103C2F800324B6903F01F00012378
:100F6C008340D2F81C02DC432040C2F81C02C86942
:100F7C00A8B9D2F80C022040C2F80C024869CE681D
:100F8C008D8845EA0645483042F8305048698E68ED
:100F9C000D8845EA0645483002EBC0004560C8693B
:100FAC00012815D1D2F80C021843C2F80C0248697A
:100FBC000E688D8845EA0645483042F8305048693D
:100FCC008E688D8945EA0645483002EBC0004560C5
:100FDC00886928B9D2F804022040C2F8040204E05F
:100FEC00D2F804021843C2F80402086928B9D2F8EE
:100FFC0014020440C2F8144204E0D2F8140218435C
:10100C00C2F81402096A012904D1D2F81C120B434C
:10101C00C2F81C32D2F8003223F00103C2F80032BD
:10102C00002005E0436A43F48023436201207047AB
:10103C0070BC704738B590F82030DBB2012B22D150
:10104C000446022380F820300268136823F0010361
:10105C00136000F0C7FA05460DE000F0C3FA401B20
:10106C000A2808D9636A43F400336362052384F8C1
:10107C002030012038BD23685B6813F0010FECD1E0
:10108C000020606238BD436A43F4002343620120B0
:10109C0038BD00BF70B490F820400568AD68013CC5
:1010AC00E4B2012C62D815F0E05F59D0C5F30165AC
:1010BC00022D05D9436A43F40003436201205AE030
:1010CC000124AC401C608B684BB904680E68CB687B
:1010DC0043EA465605F118031B01E65009E0066881
:1010EC004C6843EAC403CC68234305F1180424017B
:1010FC00335103680C6905F1180603EB06135C60A9
:10110C000B7D012B06D1036803EB0613596841F4E0
:10111C00807159600168D47993791B0443EA0463A4
:10112C00547943EA0423147923432C012144C1F854
:10113C008C310168D67893781B0443EA06635678A1
:10114C0043EA0623127813432144C1F8883102681C
:10115C0018352D01535943F00103535100200AE077
:10116C00436A43F400134362012004E0436A43F4EE
:10117C0080234362012070BC704700BF30B490F8EC
:10118C002040013CE4B2012C00F28E8051B904687D
:10119C00E46814F0030F10D1436A43F40013436264
:1011AC00012086E00468246914F0030F05D1436A1A
:1011BC0043F40013436201207BE0056801F11B043A
:1011CC0024012C5904F0040494603CB9056801F125
:1011DC001B0424012C59640D146006E0056801F110
:1011EC001B0424012C59E4085460056801F11B040C
:1011FC0024012D59C5F34005D560056825446D685B
:10120C0005F00F051561056825446D68C5F30725C4
:10121C00956105682C446468240C546104680A01C7
:10122C001444D4F8B8411C7004681444D4F8B84180
:10123C00C4F307245C7004681444D4F8B841C4F3B4
:10124C0007449C7004681444D4F8B841240EDC7034
:10125C000468144404F5DC7464681C710468144458
:10126C0004F5DC746468C4F307245C7104681444EA
:10127C0004F5DC746468C4F307449C71046822446C
:10128C0002F5DC725268120EDA7131B90268D36859
:10129C0043F02003D36000200BE00268136943F095
:1012AC0020031361002004E0436A43F4802343626B
:1012BC00012030BC704700BF90F82030013BDBB2FE
:1012CC00012B05D803685A691143596100207047F6
:1012DC00436A43F48023436201207047704700BF88
:1012EC00704700BF704700BF704700BF704700BF1A
:1012FC00704700BF704700BF704700BF704700BF0A
:10130C00704700BF704700BF704700BF2DE9F84F12
:10131C00054603685C695F689E68D3F80C90D3F847
:10132C001080D3F818A014F0010F5AD016F0010F4A
:10133C0014D001229A6016F0020F04D0FFF7CEFFF2
:10134C004FF0000B12E016F0040F0AD116F0080F44
:10135C000AD1FFF7C9FF4FF0000B07E04FF0000B6D
:10136C0004E04FF4006B01E04FF4805B16F4807FD7
:10137C0019D02B684FF480729A6016F4007F03D05A
:10138C002846FFF7ADFF0EE016F4806F02D04BF449
:10139C00005B08E016F4006F02D04BF4804B02E0C7
:1013AC002846FFF7A3FF16F4803F1CD02B684FF4A0
:1013BC0080329A6016F4003F03D02846FFF792FF64
:1013CC0011E016F4802F02D04BF4004B0BE016F416
:1013DC00002F02D04BF4803B05E02846FFF788FF36
:1013EC0001E04FF0000B14F0080F07D019F0100FAC
:1013FC0004D04BF4007B2B681022DA6014F0040F3D
:10140C0008D019F0080F05D02B680822DA6028469E
:10141C00FFF770FF14F0020F07D02B68DB6813F096
:10142C00030F02D02846FFF78BF814F0400F07D0BB
:10143C0018F0100F04D04BF4806B2B6810221A613B
:10144C0014F0200F08D018F0080F05D02B680822D4
:10145C001A612846FFF752FF14F0100F07D02B68C3
:10146C001B6913F0030F02D02846FFF745FF14F455
:10147C00003F08D017F0100F05D02B6810225A60CF
:10148C002846FFF73DFF14F4803F08D017F0080FF3
:10149C0005D02B6808225A602846FFF733FF14F456
:1014AC00004F4ED017F0040F48D014F4807F04D0B6
:1014BC001AF0010F01D04BF0010B14F4007F04D093
:1014CC001AF0020F01D04BF0020B14F4806F04D011
:1014DC001AF0040F01D04BF0040B14F4006F2DD054
:1014EC001AF0700A2AD0BAF1300F17D006D8BAF118
:1014FC00100F0DD0BAF1200F0DD01AE0BAF1500F29
:10150C0012D0BAF1600F12D0BAF1400F11D108E02D
:10151C004BF0080B0DE04BF0100B0AE04BF0200BDE
:10152C0007E04BF0400B04E04BF0800B01E04BF478
:10153C00807B2A68936923F0700393612B680422E3
:10154C005A60BBF1000F06D06B6A43EA0B036B6267
:10155C002846FFF7D9FEBDE8F88F00BF10B504464A
:10156C000E4B18784FF47A73B3FBF0F30C4A1068F7
:10157C00B0FBF3F000F0DEFD58B90F2C0BD84FF098
:10158C00FF302146002200F097FD064B1C60002026
:10159C0010BD012010BD012010BD00BF1C0000209B
:1015AC00200000201800002008B5074A136843F0FB
:1015BC0010031360032000F06DFD0020FFF7CEFF39
:1015CC00FFF794F8002008BD00200240034A13687E
:1015DC00034909780B441360704700BFF0000020EA
:1015EC001C000020014B1868704700BFF000002061
:1015FC0038B50446FFF7F6FF0546B4F1FF3F02D0BD
:10160C00044B1B781C44FFF7EDFF401B8442FAD8B7
:10161C0038BD00BF1C00002082B0084B1B68084A74
:10162C00A2FB03235B0A00FB03F0019000BF019BAC
:10163C005A1E0192002BF9D102B0704720000020F5
:10164C00D34D621070B582B00446036813F0010FDD
:10165C006BD0A84B5B6803F00C03042B0AD0A54B92
:10166C005B6803F00C03082B0DD1A24B5B6813F4E1
:10167C00803F08D09F4B1B6813F4003F55D0636824
:10168C00002B52D1B8E16368B3F5803F05D1994A7C
:10169C00136843F48033136026E063B903F180438D
:1016AC0003F504331A6822F480321A601A6822F4A3
:1016BC0080221A6018E0B3F5A02F0CD103F18043FF
:1016CC00A3F53C331A6842F480221A601A6842F47B
:1016DC0080321A6008E0874B1A6822F480321A6054
:1016EC001A6822F480221A6063687BB1FFF77AFFD4
:1016FC00054605E0FFF776FF401B642800F27E816B
:10170C007C4B1B6813F4003FF4D00EE0FFF76AFF2C
:10171C00054605E0FFF766FF401B642800F2708168
:10172C00744B1B6813F4003FF4D1236813F0020FC1
:10173C0050D0704B5B6813F00C0F0AD06D4B5B688C
:10174C0003F00C03082B16D16A4B5B6813F4803F33
:10175C0011D1684B1B6813F0020F03D02369012BC6
:10176C0040F05081634A136823F0F803616943EA3F
:10177C00C10313602EE02369D3B101225E4B1A60C2
:10178C00FFF730FF054605E0FFF72CFF401B022852
:10179C0000F23A81574B1B6813F0020FF4D0554AF4
:1017AC00136823F0F803616943EAC103136011E085
:1017BC000022514B1A60FFF715FF054605E0FFF7B5
:1017CC0011FF401B022800F221814A4B1B6813F0C9
:1017DC00020FF4D1236813F0080F29D0A369ABB121
:1017EC000122464B1A60FFF7FDFE054605E0FFF7A8
:1017FC00F9FE401B022800F20B813E4B5B6A13F092
:10180C00020FF4D00120FFF707FF11E000223B4B41
:10181C001A60FFF7E7FE054605E0FFF7E3FE401B05
:10182C00022800F2F780334B5B6A13F0020FF4D1FD
:10183C00236813F0040F00F089802E4BDB6913F042
:10184C00805F0BD12B4BDA6942F08052DA61DB6995
:10185C0003F080530193019B012500E00025284BE8
:10186C001B6813F4807F13D1254A136843F48073EB
:10187C001360FFF7B7FE064605E0FFF7B3FE801BCB
:10188C00642800F2C9801E4B1B6813F4807FF4D0CF
:10189C00E368012B05D1174A136A43F00103136265
:1018AC0022E063B903F1804303F504331A6A22F092
:1018BC0001021A621A6A22F004021A6214E0052B61
:1018CC0009D10C4B1A6A42F004021A621A6A42F0ED
:1018DC0001021A6208E0074B1A6A22F001021A622E
:1018EC001A6A22F004021A62E368CBB1FFF77AFE9F
:1018FC0006460FE0001002400000424280044242C3
:10190C0000700040FFF76EFE801B41F28833984256
:10191C0000F28480494B1B6A13F0020FF2D00FE0E7
:10192C00FFF760FE064606E0FFF75CFE801B41F207
:10193C008833984274D8414B1B6A13F0020FF3D1D1
:10194C0025B13E4AD36923F08053D361E369002B60
:10195C0068D03A4A526802F00C02082A64D0022B72
:10196C0037D10022364B1A60FFF73CFE054604E0E7
:10197C00FFF738FE401B022858D8304B1B6813F079
:10198C00007FF5D1236AB3F5803F06D12B494B6814
:10199C0023F40032A36813434B602848436823F4B4
:1019AC007411236A626A13430B4343600122244B74
:1019BC001A60FFF717FE044604E0FFF713FE001B46
:1019CC00022835D81D4B1B6813F0007FF5D0002082
:1019DC0031E000221A4B1A60FFF704FE044604E0C3
:1019EC00FFF700FE001B022824D8144B1B6813F0D1
:1019FC00007FF5D100201EE001201CE003201AE03E
:101A0C00032018E0012016E0032014E0032012E06C
:101A1C00032010E003200EE003200CE003200AE07A
:101A2C00032008E0002006E0012004E0032002E08F
:101A3C00032000E0032002B070BD00BF0010024084
:101A4C006000424230B486B0164D02AC286869681A
:101A5C00AA68EB680FC42B8AADF80430124B5B6894
:101A6C0003F00C02082A19D1C3F3834206A90A44D5
:101A7C0012F8100C13F4803F0CD00B4B5B68C3F3C3
:101A8C0040430B4413F8142C084B03FB00F0B0FB41
:101A9C00F2F004E0064B03FB00F000E0034806B054
:101AAC0030BC7047682200080010024000127A0017
:101ABC0000093D0070B5654B1B6803F007038B42B2
:101ACC000BD2624A136823F007030B4313601368AD
:101ADC0003F007038B4240F0A880036813F0020F59
:101AEC0017D013F0040F04D0594A536843F4E06341
:101AFC005360036813F0080F04D0554A536843F43D
:101B0C0060535360524C636823F0F00283681343B4
:101B1C0063600D460446036813F0010F4DD0426814
:101B2C00012A05D14A4B1B6813F4003F0DD17EE00E
:101B3C00022A05D1464B1B6813F0007F05D178E0D3
:101B4C00434B1B6813F0020F75D041494B6823F0CF
:101B5C00030313434B60FFF745FD06466368012BF7
:101B6C000ED106E0FFF73EFD801B41F28833984210
:101B7C0063D8374B5B6803F00C03042BF2D11CE0E9
:101B8C00022B15D106E0FFF72DFD801B41F28833A7
:101B9C00984254D82E4B5B6803F00C03082BF2D1FF
:101BAC000BE0FFF71FFD801B41F28833984248D8A9
:101BBC00274B5B6813F00C0FF3D1244B1B6803F01D
:101BCC000703AB420AD9214A136823F007032B43BE
:101BDC001360136803F00703AB4234D1236813F08E
:101BEC00040F06D01A494B6823F4E062E3681343F0
:101BFC004B60236813F0080F07D0154A536823F481
:101C0C006053216943EAC1035360FFF71BFF104B7C
:101C1C005B68C3F303130F4AD35CD8400E4B1860B8
:101C2C000020FFF79BFC002070BD012070BD01203F
:101C3C0070BD012070BD012070BD032070BD03205C
:101C4C0070BD032070BD012070BD00BF002002409C
:101C5C00001002409022000820000020014B186860
:101C6C00704700BF2000002008B5FFF7F7FF044BBA
:101C7C005B68C3F3C223034AD35CD84008BD00BFE2
:101C8C0000100240A022000870B582B00446036820
:101C9C0013F0010F5CD03E4BDB6913F0805F0BD16E
:101CAC003B4BDA6942F08052DA61DB6903F0805316
:101CBC000193019B012600E00026364B1B6813F4B0
:101CCC00807F12D1334A136843F480731360FFF79B
:101CDC0089FC054604E0FFF785FC401B64284FD8BF
:101CEC002C4B1B6813F4807FF5D0294B1B6A13F423
:101CFC00407321D0626802F440729A421CD0244A8C
:101D0C00136A23F44070244901250D6000250D60F1
:101D1C00106213F0010F0FD0FFF764FC054606E0CC
:101D2C00FFF760FC401B41F2883398422AD8184BCD
:101D3C001B6A13F0020FF3D015490B6A23F440729F
:101D4C00636813430B621EB1CB6923F08053CB61E4
:101D5C00236813F0020F06D00D494B6823F4404260
:101D6C00A36813434B60236813F0100F0CD0084981
:101D7C004B6823F48002E36813434B60002004E0BB
:101D8C00032002E0032000E0002002B070BD00BF81
:101D9C0000100240007000404004424270B586B012
:101DAC0006463B4D02AC28686968AA68EB680FC40C
:101DBC002B8AADF80430022E4ED0102E02D0012EFC
:101DCC0055D12DE0334B5A681B6813F0807F50D0EF
:101DDC00C2F3834306A90B4413F8103C12F480326F
:101DEC000ED02C494968C1F3404106A8014411F8B2
:101DFC00140C4AB1284AB2FBF0F003FB00F004E0EB
:101E0C00264800FB03F000E00020224B5B6813F433
:101E1C00800F3AD14000224BA3FB0030400834E045
:101E2C001C4B1B6A40F202321A40B2F5817F22D061
:101E3C0003F44073B3F5007F04D1164A526A12F0D2
:101E4C00020F1BD1B3F5407F1BD1124B1B6813F44F
:101E5C00003F18D1002018E0FFF706FF0D4B5B6820
:101E6C00C3F3813301335B00B0FBF3F00DE00020D2
:101E7C000BE0002009E04FF4004006E049F640403A
:101E8C0003E0002001E04FF2244006B070BD00BF1B
:101E9C007C2200080010024000127A0000093D006C
:101EAC00ABAAAAAAF0B583B000273C46DAE001221F
:101EBC00A2400B681340934240F0D3804D68122D22
:101ECC002DD00BD8022D27D003D85DB3012D1ED0F9
:101EDC0035E0032D30D0112D1BD030E0644EB542CF
:101EEC0020D008D8A6F58016B5421BD006F5803652
:101EFC00B54224D116E05F4EB54213D006F58036BC
:101F0C00B5420FD0A6F58016B54218D10AE0CF68BD
:101F1C0015E0CF68043712E0CF6808370FE0CF68C0
:101F2C000C370CE08D684DB1012D02D102610827F0
:101F3C0005E04261082702E0002700E00427FF2BA0
:101F4C0001D8844601E000F1040CFF2B02D84FEAC3
:101F5C00840E03E0A4F1080E4FEA8E0EDCF800604C
:101F6C000F2202FA0EF226EA020507FA0EF22A43B3
:101F7C00CCF800204A6812F0805F72D03E4A956916
:101F8C0045F001059561926902F001020192019AF6
:101F9C004FEA940E0EF10205384A52F8256004F00F
:101FAC00030C4FEA8C0C0F2202FA0CF226EA020503
:101FBC00334A904213D002F5806290420DD002F564
:101FCC008062904207D002F58062904201D10322D8
:101FDC0006E0042204E0022202E0012200E00022DA
:101FEC0002FA0CF22A430EF1020E244D45F82E2073
:101FFC004A6812F4803F05D005F580652A681A43BB
:10200C002A6004E01F4D2A6822EA03022A604A680B
:10201C0012F4003F04D01B4D6A681A436A6004E056
:10202C00184D6A6822EA03026A604A6812F4801F3B
:10203C0004D0144DAA681A43AA6004E0114DAA6892
:10204C0022EA0302AA604A6812F4001F04D00D4D64
:10205C00EA681343EB6004E00A4DEA6822EA0303E2
:10206C00EB6001340F2C7FF622AF03B0F0BD00BF44
:10207C00000021100000311000100240000001404F
:10208C0000080140000401400AB1016170470904D5
:10209C000161704700F00700064AD36823F4E0633F
:1020AC001B041B0C43EA002040F0BF6040F40030DE
:1020BC00D060704700ED00E030B4164BDC68C4F320
:1020CC000224C4F10705042D28BF0425231D062B6B
:1020DC0001D9033C00E00024012303FA05F5013D7E
:1020EC002940A140A340013B1A400A43002806DACC
:1020FC0000F00F001201D2B2074B1A5407E0120184
:10210C00D2B200F1604000F5614080F8002330BC91
:10211C00704700BF00ED00E014ED00E0410900F055
:10212C001F0001238340024A42F82130704700BF50
:10213C0000E100E00138B0F1807F0AD2064B586014
:10214C00F021064A82F823100020986007221A60BA
:10215C0070470120704700BF10E000E000ED00E088
:10216C000F4B1A6842F001021A6059680D4A0A4076
:10217C005A601A6822F0847222F480321A601A684B
:10218C0022F480221A605A6822F4FE025A604FF43C
:10219C001F029A604FF00062034B9A60704700BFB9
:1021AC00001002400000FFF800ED00E0002103E009
:1021BC000B4B5B58435004310A480B4B42189A4264
:1021CC00F6D30A4A02E0002342F8043B084B9A4239
:1021DC00F9D3FFF7C5FF00F00FF8FEF73DFA704793
:1021EC00B022000800000020240000202400002061
:1021FC00F4000020FEE700000E4B70B51E460E4C9E
:10220C000025E41AA410A54204D056F825309847AE
:10221C000135F8E700F016F8084B094C1E46E41A95
:10222C00A4100025A54204D056F825309847013556
:10223C00F8E770BDA8220008A8220008A822000810
:10224C00AC220008F8B500BFF8BC08BC9E4670472D
:0C225C00F8B500BFF8BC08BC9E467047F7
:1022680002030405060708090A0B0C0D0E0F1010CF
:102278000102000002030405060708090A0B0C0DF9
:102288000E0F101001020000000000000000000006
:102298000102030406070809000000000102030404
:0422A80079010008B0
:0422AC0051010008D4
:1022B0000000670201049B053507CF08690A030C7B
:1022C0009D0D370FFF0F00001000000001000000FF
:0422D00000A24A041A
:04000005080021B915
:00000001FF
