:020000040800F2
:100000000050002045230008C1080008C30800086C
:10001000C5080008C7080008C9080008000000005B
:10002000000000000000000000000000CB080008F5
:10003000CD08000800000000CF080008D108000823
:100040008D2300088D2300088D2300088D230008D0
:100050008D2300088D2300088D2300088D230008C0
:100060008D2300088D2300088D2300088D230008B0
:100070008D2300088D2300088D2300088D230008A0
:100080008D2300088D2300088D2300088D23000890
:10009000D90800088D2300088D2300088D2300084F
:1000A0008D2300088D2300088D2300088D23000870
:1000B0008D2300088D2300088D2300088D23000860
:1000C0008D2300088D2300088D2300088D23000850
:1000D0008D2300088D2300088D2300088D23000840
:1000E0008D2300088D2300088D23000800000000E8
:1000F0000000000000000000000000000000000000
:0C01000000000000000000005FF808F1A3
:10010C000348044B834202D0034B03B1184770479A
:10011C0020000020200000200000000005480649B7
:10012C00091A891001EBD171491002D0034B03B1AC
:10013C00184770472000002020000020000000001D
:10014C0010B5064C237843B9FFF7DAFF044B13B113
:10015C000448AFF300800123237010BD2000002061
:10016C00000000009023000808B5044B1BB10449A3
:10017C000448AFF30080BDE80840CFE70000000062
:10018C00240000209023000870B50D4E0D4D761BF9
:10019C00B61006D00024013455F8043B9847A6420B
:1001AC00F9D1094E094D02F0EDF8761BB61006D0C8
:1001BC000024013455F8043B9847A642F9D170BD90
:1001CC00E8230008E8230008EC230008E8230008D3
:1001DC00F0B4860743D0541E002A3ED0CAB2034660
:1001EC0002E014F1FF3438D303F8012B9D07F8D14A
:1001FC00032C2BD9CDB245EA05250F2C45EA054534
:10020C0016D9A4F110073F0903F1200606EB0716D7
:10021C0003F1100242E9045542E902551032B24290
:10022C00F8D104F00F040137032C03EB07130DD99D
:10023C001E462246043A032A46F8045BFAD8221FCB
:10024C0022F003020432134404F003042CB1C9B2AB
:10025C001C4403F8011B9C42FBD1F0BC70471446B4
:10026C000346C5E72DE9F04186B0002402940394BF
:10027C00049405941D4B9A6942F004029A619A69A0
:10028C0002F004020092009A9A6942F008029A6104
:10029C009B6903F008030193019BDFF85880224609
:1002AC004FF45E71404601F0B3FF114D22464FF4FE
:1002BC00F071284601F0ACFF4FF45E7302930127F6
:1002CC00039704940226059602A9404601F0B6FE57
:1002DC004FF4F073029303970494059602A92846F1
:1002EC0001F0ACFE06B0BDE8F08100BF001002408A
:1002FC00000C014000080140F8B5184D184B2B605C
:10030C000026AE60EE606E614FF46023EB616E60B0
:10031C0004272F61284600F0BBFD124C26600126F5
:10032C006660A6602146284600F03AFC266002234F
:10033C0063602146284600F033FC07232360032327
:10034C0063602146284600F02BFC0923236067607C
:10035C002146284600F024FCF8BD00BFC800002050
:10036C00002401403C00002070B58AB0214D224B86
:10037C002B6002266E600024AC60EC604FF40033FE
:10038C002B614FF440136B612C766C76AC76EC766B
:10039C002C776C77284600F020FE184B0F221A6041
:1003AC00DC609C6004221A611C75154B64221A6077
:1003BC00DC609C601E611C75124B82221A60DC6032
:1003CC009C601E611C750594069401230793009490
:1003DC00019402940394049408936946284600F00F
:1003EC00A2FE284600F01DFF3146284601F056F8C3
:1003FC000AB070BD6800002000640040B00000200E
:10040C00980000204800002030B595B0242200212F
:10041C000BA8FFF7DDFE00240594069407940894BE
:10042C000994019402940394049402250A950123DF
:10043C000E9310230F930AA801F0EEF90F230593E6
:10044C000694079408940994214605A801F00AFC27
:10045C000195039401A801F0E9FC15B030BD000032
:10046C002DE9F0410746334D00232B6001266E60C9
:10047C004FF00608C5F808802F4C2946204600F09E
:10048C008FFB204600F068FC4FF47A71204600F098
:10049C00CBFA204600F080FB3880204600F080FD2F
:1004AC002E606E60C5F808802946204600F078FB67
:1004BC00204600F051FC4FF47A71204600F0B4FA5B
:1004CC00204600F069FB7880204600F069FD072388
:1004DC002B606E60C5F808802946204600F060FB52
:1004EC00204600F039FC4FF47A71204600F09CFA5B
:1004FC00204600F051FBB880204600F051FD092346
:10050C002B606E60C5F808802946204600F048FB39
:10051C00204600F021FC4FF47A71204600F084FA5A
:10052C00204600F039FBF880204600F039FDBDE88C
:10053C00F08100BF3C000020C800002030B583B023
:10054C0000241FE00133DBB2092B13D830F8142040
:10055C00574931F813108A42F4D9591C544D35F8C7
:10056C0011108A42EED8C3F1090202A9214401F804
:10057C00042CE7E702AB234413F8042C4D4B1A551B
:10058C000134E4B2032C01D80023DDE79DF80540CB
:10059C005CBB494B01225A70F4221A709DF804304E
:1005AC00002B6AD001224FF48071444801F030FED8
:1005BC00002C69D001220821414801F029FE9DF848
:1005CC000630002B66D001224FF400713C4801F03C
:1005DC001FFE9DF80730002B63D100224FF4807171
:1005EC00374801F015FE03B030BD012C15D0022C9C
:1005FC0019D0032C1DD0042C21D0052C25D0062C71
:10060C0029D0072C2DD0082C31D0092CC6D12A4B3F
:10061C0008225A70CA221A70C0E7274B03225A705C
:10062C00E8221A70BAE7244B04225A70B0221A70CE
:10063C00B4E7214B05225A7046221A70AEE71E4BC6
:10064C0005225A70DC221A70A8E71B4B06225A703E
:10065C0072221A70A2E7184B07225A7008221A70DD
:10066C009CE7154B07225A709E221A7096E7124B84
:10067C0008225A7034221A7090E700224FF48071CD
:10068C000E4801F0C5FD93E7002208210C4801F04B
:10069C00BFFD94E700224FF40071094801F0B8FD4A
:1006AC0097E701224FF48071054801F0B1FD9AE7FC
:1006BC00000000209000002060000020000C014091
:1006CC000008014008B5054B054A0021054800F01B
:1006DC004BFE10B9044BFF221A7008BDFC00002021
:1006EC0004010020680000202801002070B54A4B4E
:1006FC001C88D02C07D0D12C46D0A52C6CD0474BC5
:10070C0000221A7070BD464B1A785E789D78FF2ACD
:10071C0017D0E2B1FF2E1FD026B3FF2D28D06DB31A
:10072C00404D00222021284601F072FD012240217B
:10073C00284601F06DFD00228021284601F068FD5D
:10074C00D9E701221021384801F062FDE2E71021BF
:10075C00354801F05DFDDDE701222021324801F032
:10076C0057FDDAE7002220212F4801F051FDD4E794
:10077C00012240212C4801F04BFDD1E70022402101
:10078C00294801F045FDCBE7254B1D78FF2D12D0F4
:10079C00002DB2D1234D00222021284601F038FD36
:1007AC0000224021284601F033FD012280212846F9
:1007BC0001F02EFDA1E71B4E01222021304601F055
:1007CC0027FD00224021304601F022FD002280212D
:1007DC00304601F01DFDDBE7114B9C78DB7804EB18
:1007EC000324A4B2312C0CD9312C88D90F4A032301
:1007FC005370E82313700E4B0E490F4800F03FFD69
:10080C007DE70A4A002353701370094B09490A48C3
:10081C0000F035FDE8E700BF0401002028010020AE
:10082C00FC000020000C01400008014020010020C9
:10083C00F8000020480000206800002000B583B0BC
:10084C0000F09CFFFFF7E0FDFFF70CFDFFF754FDF8
:10085C00FFF78AFD17E06846FFF702FE6846FFF7D0
:10086C006DFE0D4D0D4C2B460D4A0E49204600F0E9
:10087C0006FD2B460C4A0D49204600F000FD4FF4B6
:10088C007A7000F09FFF0A4B1B78DBB2FF2BE2D192
:10089C00FFF72CFFDFE700BFF80000206800002006
:1008AC0090000020B0000020600000209800002084
:1008BC00280100207047FEE7FEE7FEE7FEE77047E1
:1008CC007047704708B500F06BFF08BD08B50248CB
:1008DC0000F002FE08BD00BF6800002082B00E4B85
:1008EC009A6942F001029A619A6902F0010200923F
:1008FC00009ADA6942F08052DA61DB6903F08053C6
:10090C000193019B054A536823F0E06343F0806335
:10091C00536002B0704700BF00100240000001405D
:10092C0010B588B0002304930593069307930268CF
:10093C00184B9A4201D008B010BD03F56C439A696C
:10094C0042F400729A619A6902F400720192019A5F
:10095C009A6942F004029A619A6902F004020292C6
:10096C00029A9A6942F008029A619B6903F00803A3
:10097C000393039B832304930324059404A906483F
:10098C0001F05CFB02230493059404A9034801F0D5
:10099C0055FBD0E70024014000080140000C014049
:1009AC0030B587B000230293039304930593026838
:1009BC001B4B9A4201D007B030BD03F5D633DA6930
:1009CC0042F00072DA61DA6902F000720092009A69
:1009DC009A6942F004029A619B6903F00403019343
:1009EC00019B06AC4FF4006344F8103D0D4D2146BD
:1009FC00284601F023FB4FF4805302930223039308
:100A0C00032305932146284601F018FB00221146CA
:100A1C00142001F015FC142001F046FCCBE700BFBC
:100A2C000064004000080140F0B583B005460C4658
:100A3C000023019300F0C0FE2B689A6812F4807FAB
:100A4C0023D106465A6812F4807F03D1DB6A13F473
:100A5C00700F24D04B4B1F68022001F071FAB7FBCA
:100A6C00F0F02B681969484A11422FD1D96802F16C
:100A7C005C4211422AD11969444A114239D1DA68CF
:100A8C00434B1A4237D029273AE0AB6A43F0200394
:100A9C00AB62002385F82430012003B0F0BD2B6835
:100AAC001B6813F0020F48D1B4F1FF3FF7D024B10B
:100ABC0000F082FE801BA042F1D9AB6A43F0040324
:100ACC00AB62002385F824300320E6E719692F4A2E
:100ADC00114204D1D96802F16E4211420DD019694C
:100AEC002C4A0A405AB9DA682A4B13405BB1FC27EE
:100AFC0006E0292704E0142702E0542700E0FC2735
:100B0C0007FB00F704E05427FAE7019B013301933C
:100B1C00019BBB4211D2B4F1FF3FF6D024B100F0DF
:100B2C004BFE801BA042F0D9AB6A43F00403AB62CE
:100B3C00002385F824300320AFE72B686FF01202F6
:100B4C001A60AB6A43F40073AB622B689B6803F4C6
:100B5C006023B3F5602F01D000209EE7EB686BB9E2
:100B6C00AB6A23F48073AB62AB6A13F4805F07D17A
:100B7C00AB6A43F00103AB6200208EE700208CE7E8
:100B8C0000208AE71C000020244992249224491258
:100B9C0092244900499224000368D86C70470000E5
:100BAC0030B482B00023019390F82430012B00F074
:100BBC008B800246012380F824304B68062B29D801
:100BCC000568686B03EB8303053B1F249C4020EAFC
:100BDC0004000C6804FA03F303436B630B68092BE2
:100BEC0038D91568E86803EB43031E3B07249C4087
:100BFC0020EA04008C6804FA03F30343EB600B68EF
:100C0C00103B012B34D90020002382F8243002B091
:100C1C0030BC70470C2B0ED80568286B03EB830394
:100C2C00233B1F249C4020EA04000C6804FA03F3C5
:100C3C0003432B63D2E70568E86A03EB8303413B6C
:100C4C001F249C4020EA04000C6804FA03F30343BD
:100C5C00EB62C3E71568286903EB430307249C4048
:100C6C0020EA04008C6804FA03F303432B61C6E703
:100C7C0013681648834205D0936A43F020039362AD
:100C8C000120C1E7986810F4000F1BD1986840F45C
:100C9C00000098600B68102B01D00020B4E70C4BBF
:100CAC001B680C49A1FB03139B0C03EB830359003A
:100CBC00019102E0019B013B0193019B002BF9D1B7
:100CCC000020A1E700209FE70220A0E700240140BC
:100CDC001C00002083DE1B4330B583B0002301933E
:100CEC0003689A6812F0010F2ED19A6842F0010243
:100CFC009A60174B1B68174AA2FB03239B0C0193AA
:100D0C0002E0019B013B0193019B002BF9D10446AE
:100D1C0000F052FD054623689B6813F0010F11D1BA
:100D2C0000F04AFD401B0228F5D9A36A43F01003DA
:100D3C00A362E36A43F00103E362002384F82430E6
:100D4C00012002E0002000E0002003B030BD00BF15
:100D5C001C00002083DE1B4390F82430012B6AD04A
:100D6C0010B50446012380F82430FFF7B5FF024686
:100D7C0000285BD1A36A23F4407323F0010343F4EE
:100D8C008073A36223682D498B4227D0A16A21F47A
:100D9C008011A162596811F4806F05D0A16A21F409
:100DAC00405141F48051A162A16A11F4805F2BD0B3
:100DBC00E16A21F00601E162002184F824106FF051
:100DCC00020119602368996801F46021B1F5602F64
:100DDC001DD0996841F4801199602AE0A1F58061D9
:100DEC00496811F4702FD1D0A16A41F48011A1622D
:100DFC001349496811F4806FD6D0A16A21F440518F
:100E0C0041F48051A162CFE70021E162D4E70B49A4
:100E1C008B4204D0996841F4A001996009E0A1F5D6
:100E2C008061496811F4702FD3D1F3E7002384F863
:100E3C002430104610BD0222104670470028014095
:100E4C000024014038B503689A6812F0010F01D1F3
:100E5C00002038BD04469A6822F001029A6000F026
:100E6C00ABFC054623689B6813F0010F0ED000F015
:100E7C00A3FC401B0228F5D9A36A43F01003A3621C
:100E8C00E36A43F00103E3620120E2E70020E0E7BC
:100E9C0000287FD038B50446836A002B33D0204617
:100EAC00FFF7D0FFA36A13F010036DD100286BD1AC
:100EBC00A26A22F4885222F0020242F00202A262DA
:100ECC006268E1690A43E56842EA4502A168B1F546
:100EDC00807F21D001291CD0616901291FD0256890
:100EEC00696821F469410B436B6021688D682A4B5A
:100EFC002B4013438B60A368B3F5807F20D0012B6C
:100F0C001ED000211FE0C36280F82430FFF708FDDB
:100F1C00C5E74FF48073DFE74FF48073DCE735B936
:100F2C00A169013943EA413343F40063D7E7A16A6D
:100F3C0041F02001A162E16A41F00101E162CEE7DA
:100F4C002369013B19052568EB6A23F470030B43F5
:100F5C00EB6223689968114B0B409A420BD0A36A41
:100F6C0023F0120343F01003A362E36A43F001037E
:100F7C00E36201200DE00023E362A36A23F0030384
:100F8C0043F00103A36204E0A36A43F01003A362DD
:100F9C00012038BD01207047FDF7E1FFFE0E1FFF59
:100FAC0090F82430012B15D010B50446012380F89D
:100FBC002430FFF747FF024638B9A36A23F488535D
:100FCC0023F0010343F00103A362002384F82430CF
:100FDC00104610BD022210467047002800F0A18078
:100FEC0038B5044690F82030D3B12268136823F04A
:100FFC000203136000F0E0FB054623685A6812F008
:10100C00020F10D000F0D8FB401B0A28F5D9636AF8
:10101C0043F400336362052384F82030012038BD8B
:10102C00FFF7BEFCE1E71A6842F001021A6000F01B
:10103C00C3FB054623685A6812F0010F0DD100F06E
:10104C00BBFB401B0A28F5D9636A43F40033636287
:10105C00052384F820300120E1E7227E012A3DD0CF
:10106C001A6822F080021A60637E012B3BD0226842
:10107C00136823F040031360A37E012B39D0226840
:10108C00136823F020031360E37E012B37D0226812
:10109C00136843F010031360237F012B35D02268B3
:1010AC00136823F008031360637F012B33D022688D
:1010BC00136823F004031360A368E26813432269E6
:1010CC001343626913436268013A21681343CB618D
:1010DC0000206062012384F82030A0E71A6842F0F7
:1010EC0080021A60C0E72268136843F04003136063
:1010FC00C2E72268136843F020031360C4E7226838
:10110C00136823F010031360C6E72268136843F0DA
:10111C0008031360C8E72268136843F004031360E4
:10112C00CAE701207047036890F82020013AD2B238
:10113C00012A05D9436A43F4802343620120704796
:10114C0070B4D3F8002242F00102C3F800224A69BD
:10115C0002F01F02012000FA02F2D3F81C42D04325
:10116C000440C3F81C42CC69ACB9D3F80C4204401F
:10117C00C3F80C42CE688D884C6945EA0645483464
:10118C0043F834508E680D884C6945EA064548345E
:10119C0003EBC4046560CC69012C19D08C6974BB59
:1011AC00D3F804420440C3F804420C696CBBD3F876
:1011BC0014422040C3F81402096A01292BD0D3F839
:1011CC00002222F00102C3F80022002070BC7047FC
:1011DC00D3F80C421443C3F80C420E688D884C694A
:1011EC0045EA0645483443F834508E688D894C697D
:1011FC0045EA0645483403EBC4046560CEE7D3F8F2
:10120C0004421443C3F80442CFE7D3F8140210434A
:10121C00C3F81402D0E7D3F81C120A43C3F81C22FB
:10122C00CDE738B590F82030DBB2012B05D0436AFE
:10123C0043F400234362012038BD0446022380F8A6
:10124C0020300268136823F00103136000F0B4FA35
:10125C00054623685B6813F0010F0DD000F0ACFA63
:10126C00401B0A28F5D9636A43F4003363620523F3
:10127C0084F820300120DFE700206062DCE770B4E6
:10128C0090F820400568AD68013CE4B2012C06D909
:10129C00436A43F480234362012070BC704715F00D
:1012AC00E05F5BD0C5F30165022D3ED80124AC4054
:1012BC001C608B68002B3ED10E68CB68046843EA37
:1012CC00465605F118031B01E65003680C6905F13D
:1012DC00180603EB06135C600B7D012B36D0D1791D
:1012EC0093791B0443EA0163517943EA012314798E
:1012FC00016823432C012144C1F88C31D1789378B7
:10130C001B0443EA0163517843EA01231178026814
:10131C000B432244C2F88831026818352D01535909
:10132C0043F0010353510020B7E7436A43F4000331
:10133C0043620120B1E74C6843EAC403CC680668F9
:10134C00234305F1180424013351BEE7036803EB72
:10135C000613596841F480715960C0E7436A43F43D
:10136C0000134362012098E730B490F82040013C10
:10137C00E4B2012C06D9436A43F480234362012072
:10138C0030BC704700296FD10468E46814F0030F77
:10139C0064D0056801F11B0424012C5904F00404E9
:1013AC009460002C6BD1056801F11B0424012C59AD
:1013BC00640D1460056801F11B0424012D59C5F35B
:1013CC004005D560056825446D6805F00F0515616D
:1013DC00056825446D68C5F30725956105682C449F
:1013EC006468240C546104680A011444D4F8B841AC
:1013FC001C7004681444D4F8B841C4F307245C701E
:10140C0004681444D4F8B841C4F307449C700468CD
:10141C001444D4F8B841240EDC7004681444D4F895
:10142C00BC411C7104681444D4F8BC41C4F30724B7
:10143C005C7104681444D4F8BC41C4F307449C7137
:10144C0004682244D2F8BC21120EDA71F9B9026890
:10145C00D36843F02003D360002091E7436A43F440
:10146C000013436201208BE70468246914F0030F16
:10147C008FD1436A43F400134362012080E705686F
:10148C0001F11B0424012C59E408546092E7026812
:10149C00136943F020031361002071E790F82030AA
:1014AC00013BDBB2012B05D9436A43F48023436231
:1014BC00012070470268536919435161002070473D
:1014CC007047704770477047704770477047704758
:1014DC0070477047704770472DE9F84F0546036811
:1014EC005C695F689E68D3F80C90D3F81080D3F8D1
:1014FC0018A014F0010F5AD016F0010F17D00122CA
:10150C009A6016F0020F08D116F0040F30D116F0C5
:10151C00080F07D04FF4805B0BE0FFF7D1FF4FF0C3
:10152C00000B06E0FFF7CFFF4FF0000B01E04FF090
:10153C00000B16F4807F0BD02B684FF480729A60EE
:10154C0016F4007F17D116F4806F18D04BF4005BA3
:10155C0016F4803F2DD02B684FF480329A6016F42D
:10156C00003F16D116F4802F17D04BF4004B20E01F
:10157C004FF4006BDDE72846FFF7A3FFE8E716F40E
:10158C00006F02D04BF4804BE2E72846FFF79CFF3C
:10159C00DEE72846FFF796FF0BE016F4002F02D08B
:1015AC004BF4803B05E02846FFF78FFF01E04FF03E
:1015BC00000B14F0080F07D019F0100F04D04BF4E7
:1015CC00007B2B681022DA6014F0040F02D019F0A3
:1015DC00080F60D114F0020F04D02B68DB6813F0F5
:1015EC00030F5FD114F0400F07D018F0100F04D088
:1015FC004BF4806B2B6810221A6114F0200F02D070
:10160C0018F0080F52D114F0100F04D02B681B697E
:10161C0013F0030F51D114F4003F02D017F0100F48
:10162C004FD114F4803F02D017F0080F50D114F4AE
:10163C00004F67D017F0040F61D014F4807F04D0F2
:10164C001AF0010F01D04BF0010B14F4007F04D001
:10165C001AF0020F01D04BF0020B14F4806F04D07F
:10166C001AF0040F01D04BF0040B14F4006F46D0A9
:10167C001AF0700A43D0BAF1300F48D02FD9BAF112
:10168C00500F47D0BAF1600F47D0BAF1400F31D1AB
:10169C004BF0400B2EE02B680822DA602846FFF74F
:1016AC0015FF97E72846FFF70DF89BE72B680822F4
:1016BC001A612846FFF70CFFA5E72846FFF707FF3E
:1016CC00A9E72B6810225A602846FFF702FFA8E70B
:1016DC002B6808225A602846FFF7FCFEA7E7BAF1F0
:1016EC00100F05D0BAF1200F04D14BF0100B01E014
:1016FC004BF0080B2A68936923F0700393612B68F5
:10170C0004225A60BBF1000F0AD1BDE8F88F4BF0F0
:10171C00200BEFE74BF0800BECE74BF4807BE9E719
:10172C006B6A43EA0B036B622846FFF7D4FEECE7C7
:10173C0010B504460E4B18784FF47A73B3FBF0F3E4
:10174C000C4A1068B0FBF3F000F0BAFD68B90F2C2E
:10175C0001D901200AE0002221464FF0FF3000F0B1
:10176C006FFD054B1C60002000E0012010BD00BF88
:10177C00160000201C0000201800002008B5074AA5
:10178C00136843F010031360032000F047FD0020A2
:10179C00FFF7CEFFFFF7A2F8002008BD00200240A3
:1017AC00034A1168034B1B780B441360704700BF4E
:1017BC002C01002016000020014B1868704700BF58
:1017CC002C01002038B50446FFF7F6FF0546B4F1AE
:1017DC00FF3F02D0044B1B781C44FFF7EDFF401B6E
:1017EC00A042FAD338BD00BF1600002082B0084BCF
:1017FC001B68084AA2FB03235B0A00FB03F0019061
:10180C0000BF019B5A1E0192002BF9D102B0704708
:10181C001C000020D34D621070B582B004460368E2
:10182C0013F0010F2CD0AB4B5B6803F00C03042BB3
:10183C001DD0A84B5B6803F00C03082B12D0636817
:10184C00B3F5803F41D0002B55D103F1804303F514
:10185C0004331A6822F480321A601A6822F4802247
:10186C001A6037E09B4B5B6813F4803FE7D0994BD1
:10187C001B6813F4003F03D06368002B00F0AE81AB
:10188C00236813F0020F76D0924B5B6813F00C0FA9
:10189C005FD0904B5B6803F00C03082B54D023698A
:1018AC00002B00F08A808C4B01221A60FFF784FF1A
:1018BC000546884B1B6813F0020F75D1FFF77CFFB0
:1018CC00401B0228F5D903208BE1824A136843F4AC
:1018DC0080331360636843B3FFF76EFF05467D4B9F
:1018EC001B6813F4003FCBD1FFF766FF401B642845
:1018FC00F5D9032075E1B3F5A02F09D0754B1A6803
:10190C0022F480321A601A6822F480221A60E1E70D
:10191C0003F18043A3F53C331A6842F480221A6029
:10192C001A6842F480321A60D4E7FFF745FF054687
:10193C00684B1B6813F4003FA2D0FFF73DFF401B20
:10194C006428F5D903204CE1624B5B6813F4803FAB
:10195C00A5D1604B1B6813F0020F04D02369012B37
:10196C0001D001203DE15B4A136823F0F803616963
:10197C0043EAC1031360236813F0080F32D0A36944
:10198C00002B5BD0554B01221A60FFF715FF054663
:10199C00504B5B6A13F0020F21D1FFF70DFF401B78
:1019AC000228F5D903201CE14A4A136823F0F803F6
:1019BC00616943EAC1031360DDE7474B00221A60FB
:1019CC00FFF7FAFE0546434B1B6813F0020FD2D00B
:1019DC00FFF7F2FE401B0228F5D9032001E101209C
:1019EC00FFF704FF236813F0040F00F09780394BC6
:1019FC00DB6913F0805F33D1364BDA6942F08052E9
:101A0C00DA61DB6903F080530193019B0125344BB0
:101A1C001B6813F4807F25D0E368012B36D0002B94
:101A2C004CD103F1804303F504331A6A22F001020E
:101A3C001A621A6A22F004021A622CE0274B002266
:101A4C001A60FFF7B9FE0546224B5B6A13F0020FD2
:101A5C00C8D0FFF7B1FE401B0228F5D90320C0E027
:101A6C000025D4E71E4A136843F480731360FFF714
:101A7C00A3FE06461A4B1B6813F4807FCCD1FFF7EC
:101A8C009BFE801B6428F5D90320AAE0114A136A37
:101A9C0043F001031362E36873B3FFF78DFE064650
:101AAC000C4B1B6A13F0020F37D1FFF785FE801B1E
:101ABC0041F288339842F3D9032092E0052B11D0E0
:101ACC00044B1A6A22F001021A621A6A22F004020A
:101ADC001A62E0E7001002400000424280044242D9
:101AEC0000700040414B1A6A42F004021A621A6AF2
:101AFC0042F001021A62CEE7FFF75EFE06463B4B50
:101B0C001B6A13F0020F08D0FFF756FE801B41F240
:101B1C0088339842F3D9032063E0E5B9E369002BDD
:101B2C005ED0324A526802F00C02082A5BD0022BBB
:101B3C0017D02F4B00221A60FFF73EFE04462B4BAA
:101B4C001B6813F0007F47D0FFF736FE001B0228FE
:101B5C00F5D9032045E0254AD36923F08053D3619E
:101B6C00DCE7234B00221A60FFF726FE05461F4BCD
:101B7C001B6813F0007F06D0FFF71EFE401B0228E7
:101B8C00F5D903202DE0236AB3F5803F1AD017490D
:101B9C004B6823F47413226A606A024313434B604C
:101BAC00134B01221A60FFF707FE04460F4B1B680C
:101BBC0013F0007F0ED1FFF7FFFD001B0228F5D9B3
:101BCC0003200EE0094A536823F40033A1680B4349
:101BDC005360DCE7002004E0002002E0012000E07C
:101BEC00002002B070BD0120FBE700BF00100240D6
:101BFC006000424210B487B0164C94E80F000DF10F
:101C0C00180C0CE90F00238AADF80430124B5B68FA
:101C1C0003F00C02082A1AD1C3F38342624412F86F
:101C2C00102C13F4803F05D10C4800FB02F007B0D8
:101C3C0010BC7047084B5B68C3F34043634413F814
:101C4C00143C074800FB02F0B0FBF3F0EFE704484C
:101C5C00EDE700BFA82300080010024000093D007A
:101C6C0000127A00624B1B6803F007038B420CD204
:101C7C005F4A136823F007030B431360136803F0E8
:101C8C0007038B4201D00120704770B5036813F035
:101C9C00020F17D013F0040F04D0564A536843F4C4
:101CAC00E0635360036813F0080F04D0514A536883
:101CBC0043F4605353604F4A536823F0F003846835
:101CCC00234353600D460446036813F0010F52D0B2
:101CDC004368012B23D0022B28D0464A126812F0FD
:101CEC00020F00F0828043494A6822F0030213433A
:101CFC004B60FFF761FD06466368012B1DD0022B7C
:101D0C002AD03C4B5B6813F00C0F34D0FFF754FD1A
:101D1C00801B41F288339842F3D9032064E0354AA2
:101D2C00126812F4003FDED101205DE0314A1268E6
:101D3C0012F0007FD7D1012056E02E4B5B6803F0E8
:101D4C000C03042B17D0FFF737FD801B41F28833AF
:101D5C009842F2D9032047E0264B5B6803F00C0352
:101D6C00082B08D0FFF728FD801B41F288339842DE
:101D7C00F2D9032038E01E4B1B6803F00703AB427B
:101D8C000CD91B4A136823F007032B431360136809
:101D9C0003F00703AB4201D0012025E0236813F0C8
:101DAC00040F06D0134A536823F4E063E1680B4335
:101DBC005360236813F0080F07D00E4A536823F4BE
:101DCC006053216943EAC1035360FFF713FF094BCA
:101DDC005B68C3F30313084AD35CD840074B186005
:101DEC000020FFF7A5FC002070BD0120FCE700BF20
:101DFC000020024000100240D02300081C000020EC
:101E0C00014B1868704700BF1C00002008B5FFF795
:101E1C00F7FF044B5B68C3F3C223034AD35CD8407F
:101E2C0008BD00BF00100240E023000870B582B06E
:101E3C000446036813F0010F34D03E4BDB6913F0FA
:101E4C00805F48D13B4BDA6942F08052DA61DB6942
:101E5C0003F080530193019B0125374B1B6813F44E
:101E6C00807F3AD0334B1B6A13F4407311D06268F5
:101E7C0002F440729A420CD02E4A136A23F440703A
:101E8C002E4901260E6000260E60106213F0010F21
:101E9C0037D1284A136A23F4407361680B431362E9
:101EAC00002D3FD1236813F0020F06D0214A53684E
:101EBC0023F44043A1680B435360236813F0100FC5
:101ECC0035D01C4A536823F48003E1680B435360FC
:101EDC00002002B070BD0025BFE7174A136843F419
:101EEC0080731360FFF768FC0646134B1B6813F4F2
:101EFC00807FB7D1FFF760FC801B6428F5D90320E5
:101F0C00E7E7FFF759FC06460A4B1B6A13F0020F72
:101F1C00BFD1FFF751FC801B41F288339842F3D9B3
:101F2C000320D6E7D36923F08053D361BAE70020AE
:101F3C00CFE700BF00100240007000404004424256
:101F4C0030B587B00546384C94E80F000DF1180CED
:101F5C000CE90F00238AADF80430022D50D0102D5F
:101F6C0003D0012D2BD0002054E0304B5A681B6855
:101F7C0013F0807F50D0C2F3834306A90B4413F8AF
:101F8C00100C12F4803F16D0284B5B68C3F340430F
:101F9C000B4413F8142C264BB3FBF2F300FB03F0A9
:101FAC00224B5B6813F4800F34D14000214BA3FB10
:101FBC00003040082EE0204B03FB00F0F0E71B4BF9
:101FCC001B6A40F202321A40B2F5817F26D003F42C
:101FDC004073B3F5007F04D0B3F5407F09D00020E7
:101FEC0018E0124A526A12F0020FF5D049F640403E
:101FFC0010E00E4B1B6813F4003F12D1002009E0D7
:10200C00FFF704FF094B5B68C3F3813301335B00BB
:10201C00B0FBF3F007B030BD0020FBE74FF40040FD
:10202C00F8E74FF22440F5E7BC230008001002400B
:10203C0000127A00ABAAAAAA00093D00F0B482B043
:10204C0000263546A1E0002C59D0012C00D1CE68D9
:10205C00FF2B68D88446FF2B68D8AC00DCF8002036
:10206C000F27A74022EA070206FA04F42243CCF811
:10207C0000204A6812F0805F00F086805E4A946906
:10208C0044F001049461926902F001020192019AF8
:10209C00AC08A71C594A52F8272005F00307BF00CB
:1020AC004FF00F0C0CFA07FC22EA0C0C544A90422D
:1020BC0042D002F5806290427FD002F5806290425D
:1020CC007DD002F58062904234D0042235E04D4F31
:1020DC00BC4214D00BD94C4FBC4210D007F5803702
:1020EC00BC420CD0A7F58017BC42B1D107E0A7F5D4
:1020FC008017BC4203D007F58037BC42A8D18C684E
:10210C007CB1012C08D042610826A1E7CE680836C4
:10211C009EE7CE680C369BE70261082698E70026FE
:10212C0096E7042694E700F1040C94E7A5F1080463
:10213C00A40093E7032200E00022BA4042EA0C021A
:10214C0002342E4F47F824204A6812F4803F38D0CE
:10215C002E4C22681A4322604A6812F4003F36D093
:10216C002A4C62681A4362604A6812F4801F34D0A9
:10217C00264CA2681A43A2604A6812F4001F32D09F
:10218C00224CE2681343E36001350F2D31D8012254
:10219C00AA400B6813409A42F6D14C68122CB8D066
:1021AC0095D8022CB2D07FF64EAF032CB7D0112CA1
:1021BC007FF44EAFCE6804364AE70122BDE7022217
:1021CC00BBE7124C226822EA03022260C4E70F4CE0
:1021DC00626822EA03026260C6E70C4CA26822EA3B
:1021EC000302A260C8E7094CE26822EA0303E36039
:1021FC00CAE702B0F0BC704700100240000001407A
:10220C0000080140000021100000311000040140C2
:10221C0012B909040161704701617047074AD3681C
:10222C0023F4E0631B041B0C000200F4E060184371
:10223C0040F0BF6040F40030D060704700ED00E02B
:10224C0030B4174BDB68C3F30223C3F10704042C2F
:10225C0028BF04241D1D062D18D9033B4FF0FF3554
:10226C0005FA04F421EA0401994005FA03F322EA81
:10227C000303194300280BDB0901C9B200F16040CC
:10228C0000F5614080F8001330BC70470023E5E78F
:10229C0000F00F000901C9B2024B1954F4E700BF5A
:1022AC0000ED00E014ED00E000F01F0240090123F6
:1022BC009340024A42F82030704700BF00E100E032
:1022CC000138B0F1807F0AD2064B5860064AF021E3
:1022DC0082F823100020986007221A6070470120B2
:1022EC00704700BF10E000E000ED00E00F4B1A68F3
:1022FC0042F001021A6059680D4A0A405A601A6885
:10230C0022F0847222F480321A601A6822F480223D
:10231C001A605A6822F4FE025A604FF41F029A6047
:10232C00044B4FF000629A60704700BF00100240EF
:10233C000000FFF800ED00E0002103E00B4B5B58C0
:10234C00435004310A480B4B42189A42F6D30A4ABE
:10235C0002E0002342F8043B084B9A42F9D3FFF702
:10236C00C5FFFDF711FFFEF769FA7047F02300086F
:10237C000000002020000020200000203001002060
:10238C00FEE70000F8B500BFF8BC08BC9E467047DD
:0C239C00F8B500BFF8BC08BC9E467047B6
:1023A80002030405060708090A0B0C0D0E0F10108E
:1023B8000102000002030405060708090A0B0C0DB8
:1023C8000E0F1010010200000000000000000000C5
:1023D80001020304060708090000000001020304C3
:0423E8007501000873
:0423EC004D01000897
:1023F0000000670201049B053507CF08690A030C3A
:102400009D0D370FFF0F01001000000000A24A04CD
:040000050800234587
:00000001FF
