:020000040800F2
:1000000000500020A9240008110A0008130A000863
:10001000150A0008170A0008190A00080000000065
:100020000000000000000000000000001B0A0008A3
:100030001D0A0008000000001F0A0008210A00082D
:10004000F1240008F1240008F1240008F12400083C
:10005000F1240008F1240008F1240008F12400082C
:10006000F1240008F1240008F1240008F12400081C
:10007000F1240008F1240008F1240008F12400080C
:10008000F1240008F1240008F1240008F1240008FC
:10009000290A0008F1240008F1240008F1240008CE
:1000A000F1240008F1240008F1240008F1240008DC
:1000B000F1240008F1240008F1240008F1240008CC
:1000C000F1240008F1240008F1240008F1240008BC
:1000D000F1240008F1240008F1240008F1240008AC
:1000E000F1240008F1240008F124000800000000B9
:1000F0000000000000000000000000000000000000
:0C01000000000000000000005FF808F1A3
:10010C00044B05481B1A062B02D9044B03B11847A4
:10011C00704700BF230000202000002000000000DA
:10012C0005490648091A891001EBD171491002D012
:10013C00034B03B11847704720000020200000201B
:10014C000000000010B5064C237843B9FFF7D8FF28
:10015C00044B13B10448AFF300800123237010BD8E
:10016C002000002000000000F424000808B5084B13
:10017C001BB108490848AFF300800848036813B95D
:10018C00BDE80840CCE7064B002BF9D09847F7E7C1
:10019C000000000024000020F424000820000020AF
:1001AC000000000070402DE964609FE564509FE5FD
:1001BC00066065E04661B0E10040A0130500000A4E
:1001CC00014084E2043095E40FE0A0E113FF2FE13D
:1001DC00040056E1F9FFFF1A3C609FE53C509FE597
:1001EC00066065E0BF0800FA4661B0E10040A0136C
:1001FC000500000A014084E2043095E40FE0A0E120
:10020C0013FF2FE1040056E1F9FFFF1A7040BDE81F
:10021C001EFF2FE14C2500084C2500085025000836
:10022C004C250008030010E310402DE93700000AAC
:10023C00000052E3012042E23200000AFFC001E25A
:10024C000030A0E1020000EA000052E3012042E28B
:10025C002C00000A01C0C3E4030013E3F9FFFF1AEA
:10026C00030052E32000009AFFE001E20EE48EE16D
:10027C000F0052E30EE88EE11000009A0240A0E15C
:10028C0010C083E2104044E20F0054E310E00CE590
:10029C000CE00CE508E00CE504E00CE510C08CE289
:1002AC00F7FFFF8A10C042E20FC0CCE30F2002E23E
:1002BC0010C08CE2030052E30C3083E00A00009A79
:1002CC000340A0E102C0A0E104C04CE203005CE3E7
:1002DC0004E084E4FBFFFF8A04C042E203C0CCE3E9
:1002EC0004C08CE20C3083E0032002E2000052E3F5
:1002FC00FF100112022083100200000A0110C3E457
:10030C00020053E1FCFFFF1A1040BDE81EFF2FE175
:10031C000030A0E1D1FFFFEA2DE9F04186B00024C6
:10032C0002940394049405941D4B9A6942F00402C0
:10033C009A619A6902F004020092009A9A6942F05A
:10034C0008029A619B6903F008030193019BDFF893
:10035C00588022464FF45E71404602F00DF8114D64
:10036C0022464FF4F071284602F006F84FF45E7303
:10037C0002930127039704940226059602A940468E
:10038C0001F004FF4FF4F073029303970494059665
:10039C0002A9284601F0FAFE06B0BDE8F08100BFC4
:1003AC0000100240000C014000080140F8B5184D47
:1003BC00184B2B600026AE60EE606E614FF460232C
:1003CC00EB616E6004272F61284600F009FE124C89
:1003DC00266001266660A6602146284600F088FC4F
:1003EC002660022363602146284600F081FC072327
:1003FC002360032363602146284600F079FC09231F
:10040C00236067602146284600F072FCF8BD00BFEF
:10041C00C8000020002401403C00002070B58AB0C8
:10042C00214D224B2B6002266E600024AC60EC60E8
:10043C004FF400332B614FF440136B612C766C76C8
:10044C00AC76EC762C776C77284600F06EFE184B69
:10045C000F221A60DC609C6004221A611C75154B1B
:10046C0064221A60DC609C601E611C75124B822237
:10047C001A60DC609C601E611C7505940694012357
:10048C00079300940194029403940494089369468E
:10049C00284600F0F0FE284600F06BFF3146284657
:1004AC0001F0A4F80AB070BD6800002000640040A0
:1004BC00B0000020980000204800002030B595B016
:1004CC00282200210DEB0200FFF7ACFE002405945E
:1004DC000694079408940994019402940394049448
:1004EC0002250A9501230E9310230F930AA801F0FD
:1004FC003BFA0F230593069407940894099421461C
:10050C0005A801F057FC0195039401A801F036FDF4
:10051C0015B030BD2DE9F0410746334D00232B605B
:10052C0001266E604FF00608C5F808802F4C29464E
:10053C00204600F0DDFB204600F0B6FC4FF47A714B
:10054C00204600F019FB204600F0CEFB38802046F8
:10055C0000F0CEFD2E606E60C5F80880294620465E
:10056C0000F0C6FB204600F09FFC4FF47A71204649
:10057C0000F002FB204600F0B7FB7880204600F02C
:10058C00B7FD07232B606E60C5F80880294620460E
:10059C0000F0AEFB204600F087FC4FF47A71204649
:1005AC0000F0EAFA204600F09FFBB880204600F0ED
:1005BC009FFD09232B606E60C5F8088029462046F4
:1005CC0000F096FB204600F06FFC4FF47A71204649
:1005DC0000F0D2FA204600F087FBF880204600F0AD
:1005EC0087FDBDE8F08100BF3C000020C800002062
:1005FC0030B583B000241FE00133DBB2092B13D8D4
:10060C0030F81420574931F813108A42F4D9591C88
:10061C00544D35F811108A42EED8C3F1090202A9E3
:10062C00214401F8042CE7E702AB234413F8042C13
:10063C004D4B1A550134E4B2032C01D80023DDE7ED
:10064C009DF805405CBB494B01225A70F4221A708C
:10065C009DF80430002B6AD001224FF4807144487D
:10066C0001F08AFE002C69D001220821414801F0DA
:10067C0083FE9DF80630002B66D001224FF40071EA
:10068C003C4801F079FE9DF80730002B63D1002225
:10069C004FF48071374801F06FFE03B030BD012C70
:1006AC0015D0022C19D0032C1DD0042C21D0052CD4
:1006BC0025D0062C29D0072C2DD0082C31D0092C74
:1006CC00C6D12A4B08225A70CA221A70C0E7274B8F
:1006DC0003225A70E8221A70BAE7244B04225A708B
:1006EC00B0221A70B4E7214B05225A7046221A70B8
:1006FC00AEE71E4B05225A70DC221A70A8E71B4B82
:10070C0006225A7072221A70A2E7184B07225A70EE
:10071C0008221A709CE7154B07225A709E221A70F9
:10072C0096E7124B08225A7034221A7090E7002276
:10073C004FF480710E4801F01FFE93E70022082150
:10074C000C4801F019FE94E700224FF4007109489F
:10075C0001F012FE97E701224FF48071054801F079
:10076C000BFE9AE7000000209000002060000020A3
:10077C00000C01400008014008B5054B054A00215A
:10078C00054800F099FE10B9FF22044B1A7008BD01
:10079C00FC0000200401002068000020280100203B
:1007AC0070B5714B1C88D02C08D0D12C47D0A52CFF
:1007BC0000F0B98000226D4B1A7070BD6C4B1A782A
:1007CC005E789D78FF2A17D0E2B1FF2E1FD026B39A
:1007DC00FF2D28D06DB3674D00222021284601F053
:1007EC00CBFD01224021284601F0C6FD00228021CC
:1007FC00284601F0C1FDD8E7012210215E4801F026
:10080C00BBFDE2E710215C4801F0B6FDDDE70122FB
:10081C002021594801F0B0FDDAE70022202156488A
:10082C0001F0AAFDD4E701224021534801F0A4FDB8
:10083C00D1E700224021504801F09EFDCBE74C4B04
:10084C001D78012D1AD0022D29D0042D38D0082D59
:10085C0047D0102D56D0202DA9D1464D0022202155
:10086C00284601F089FD01224021284601F084FD33
:10087C0001228021284601F07FFD98E73D4E0022A1
:10088C002021304601F078FD00224021304601F055
:10089C0073FD00228021304601F06EFDD3E7354E0A
:1008AC0000222021304601F067FD00224021304615
:1008BC0001F062FD01228021304601F05DFDC4E7AC
:1008CC002C4E00222021304601F056FD0022402102
:1008DC00304601F051FD01228021304601F04CFDE3
:1008EC00B5E7244E01222021304601F045FD0022BF
:1008FC004021304601F040FD00228021304601F0BD
:10090C003BFDA6E71B4E01222021304601F034FDB1
:10091C0000224021304601F02FFD0022802130467C
:10092C0001F02AFD97E7124B9C78DB7804EB03244B
:10093C00A4B2312C0DD9312C7FF63CAF0F4A0323D6
:10094C005370E82313700E4B0E490F4800F03FFD17
:10095C0030E70A4A002353701370094B09490A48BF
:10096C0000F035FDE7E700BF04010020280100205E
:10097C00FC000020000C0140000801402001002078
:10098C00F8000020480000206800002000B583B06B
:10099C0000F09CFFFFF792FDFFF7BEFCFFF706FD92
:1009AC00FFF73CFD17E06846FFF7B4FD6846FFF71C
:1009BC001FFE0D4D0D4C2B460D4A0E49204600F0E6
:1009CC0006FD2B460C4A0D49204600F000FD4FF465
:1009DC007A7000F09FFF0A4B1B78DBB2FF2BE2D141
:1009EC00FFF7DEFEDFE700BFF80000206800002004
:1009FC0090000020B0000020600000209800002033
:100A0C00280100207047FEE7FEE7FEE7FEE770478F
:100A1C007047704708B500F06BFF08BD08B5024879
:100A2C0000F002FE08BD00BF6800002082B00E4B33
:100A3C009A6942F001029A619A6902F001020092ED
:100A4C00009ADA6942F08052DA61DB6903F0805374
:100A5C000193019B054A536823F0E06343F08063E4
:100A6C00536002B0704700BF00100240000001400C
:100A7C0010B588B00023049305930693079302687E
:100A8C00184B9A4201D008B010BD03F56C439A691B
:100A9C0042F400729A619A6902F400720192019A0E
:100AAC009A6942F004029A619A6902F00402029275
:100ABC00029A9A6942F008029A619B6903F0080352
:100ACC000393039B832304930324059404A90648EE
:100ADC0001F05CFB02230493059404A9034801F084
:100AEC0055FBD0E70024014000080140000C0140F8
:100AFC0030B587B0002302930393049305930268E7
:100B0C001B4B9A4201D007B030BD03F5D633DA69DE
:100B1C0042F00072DA61DA6902F000720092009A17
:100B2C009A6942F004029A619B6903F004030193F1
:100B3C00019B06AC4FF4006344F8103D0D4D21466B
:100B4C00284601F023FB4FF48053029302230393B6
:100B5C00032305932146284601F018FB0022114679
:100B6C00142001F021FC142001F050FCCBE700BF55
:100B7C000064004000080140F0B583B005460C4607
:100B8C000023019300F0C0FE2B689A6812F4807F5A
:100B9C0023D106465A6812F4807F03D1DB6A13F422
:100BAC00700F24D04B4B1F68022001F071FAB7FB79
:100BBC00F0F72B681969484A11422FD1D96802F114
:100BCC005C4211422AD11969444A114239D1DA687E
:100BDC00434B1A4237D029203AE0AB6A43F020034A
:100BEC00AB62002385F82430012003B0F0BD2B68E4
:100BFC001B6813F0020F48D1B4F1FF3FF7D024B1BA
:100C0C0000F082FE801B8442F1D2AB6A43F00403F5
:100C1C00AB62002385F824300320E6E719692F4ADC
:100C2C00114204D1D96802F16E4211420DD01969FA
:100C3C002C4A0A405AB9DA682A4B13405BB1FC20A3
:100C4C0006E0292004E0142002E0542000E0FC20FF
:100C5C0007FB00F704E05420FAE7019B01330193F2
:100C6C00019B9F4211D9B4F1FF3FF6D024B100F0A3
:100C7C004BFE801B8442F0D2AB6A43F00403AB62A0
:100C8C00002385F824300320AFE72B686FF01202A5
:100C9C001A60AB6A43F40073AB622B689B6803F475
:100CAC006023B3F5602F01D000209EE7EB686BB991
:100CBC00AB6A23F48073AB62AB6A13F4805F07D129
:100CCC00AB6A43F00103AB6200208EE700208CE797
:100CDC0000208AE71C000020244992249224491207
:100CEC0092244900499224000368D86C7047000094
:100CFC0030B482B00023019390F82430012B00F023
:100D0C008B800246012380F824304B68062B29D8AF
:100D1C000568686B03EB8303053B1F249C4020EAAA
:100D2C0004000C6804FA03F303436B630B68092B90
:100D3C0038D91568E86803EB43031E3B07249C4035
:100D4C0020EA04008C6804FA03F30343EB600B689D
:100D5C00103B012B34D90020002382F8243002B040
:100D6C0030BC70470C2B0ED80568286B03EB830343
:100D7C00233B1F249C4020EA04000C6804FA03F374
:100D8C0003432B63D2E70568E86A03EB8303413B1B
:100D9C001F249C4020EA04000C6804FA03F303436C
:100DAC00EB62C3E71568286903EB430307249C40F7
:100DBC0020EA04008C6804FA03F303432B61C6E7B2
:100DCC0013681648834205D0936A43F0200393625C
:100DDC000120C1E7986810F4000F1BD1986840F40B
:100DEC00000098600B68102B01D00020B4E70C4B6E
:100DFC001B680C49A1FB03139B0C03EB83035900E9
:100E0C00019102E0019B013B0193019B002BF9D165
:100E1C000020A1E700209FE70220A0E7002401406A
:100E2C001C00002083DE1B4330B583B000230193EC
:100E3C0003689A6812F0010F2ED19A6842F00102F1
:100E4C009A60174B1B68174AA2FB03239B0C019358
:100E5C0002E0019B013B0193019B002BF9D104465D
:100E6C0000F052FD054623689B6813F0010F11D169
:100E7C0000F04AFD401B0228F5D9A36A43F0100389
:100E8C00A362E36A43F00103E362002384F8243095
:100E9C00012002E0002000E0002003B030BD00BFC4
:100EAC001C00002083DE1B4390F82430012B02D160
:100EBC0002231846704710B50446012380F82430ED
:100ECC00FFF7B2FF034600285BD1A26A22F44072FE
:100EDC0022F0010242F48072A26222682B498A42FB
:100EEC0027D0A16A21F48011A162516811F4806F9E
:100EFC0005D0A16A21F4405141F48051A162A16A4C
:100F0C0011F4805F2BD0E16A21F00601E16200212F
:100F1C0084F824106FF0020111602268916801F4CA
:100F2C006021B1F5602F1DD0916841F48011916062
:100F3C002AE0A1F58061496811F4702FD1D0A16A23
:100F4C0041F48011A1621249496811F4806FD6D026
:100F5C00A16A21F4405141F48051A162CFE70021F4
:100F6C00E162D4E709498A4204D0916841F4A001B6
:100F7C00916009E0A1F58061496811F4702FD3D11B
:100F8C00F3E7002284F82420184610BD0028014005
:100F9C000024014038B503689A6812F0010F01D1A2
:100FAC00002038BD04469A6822F001029A6000F0D5
:100FBC00ABFC054623689B6813F0010F0ED000F0C4
:100FCC00A3FC401B0228F5D9A36A43F01003A362CB
:100FDC00E36A43F00103E362012038BD002038BD11
:100FEC0000287FD038B50446836A002B4AD02046AF
:100FFC00FFF7D0FFA36A13F010036DD100286BD15B
:10100C00A26A22F4885222F0020242F00202A26288
:10101C006268E1690A43E56842EA4502A168B1F5F4
:10102C00807F38D0012933D06169012936D02568F9
:10103C00696821F469410B436B6021688D682A4B08
:10104C002B4013438B60A368B3F5807F37D0012B03
:10105C0035D000232568E96A21F470010B43EB625B
:10106C0023689968214B0B409A422CD0A36A23F039
:10107C00120343F01003A362E36A43F00103E3623B
:10108C00012038BDC36280F82430FFF7F1FCAEE7D5
:10109C004FF48073C8E74FF48073C5E735B9A16985
:1010AC00013943EA413343F40063C0E7A16A41F0DC
:1010BC002001A162E16A41F00101E162B7E7236915
:1010CC00013B1B05C6E70023E362A36A23F003037D
:1010DC0043F00103A36238BDA36A43F01003A3627B
:1010EC00012038BD01207047FDF7E1FFFE0E1FFF08
:1010FC0090F82430012B02D102231846704710B50A
:10110C000446012380F82430FFF744FF034638B926
:10111C00A26A22F4885222F0010242F00102A26279
:10112C00002284F82420184610BD002800F0A1806D
:10113C0038B5044690F82030D3B12268136823F0F8
:10114C000203136000F0E0FB054623685A6812F0B6
:10115C00020F10D000F0D8FB401B0A28F5D9636AA7
:10116C0043F400336362052384F82030012038BD3A
:10117C00FFF7BEFCE1E71A6842F001021A6000F0CA
:10118C00C3FB054623685A6812F0010F0DD100F01D
:10119C00BBFB401B0A28F5D9636A43F40033636236
:1011AC00052384F82030012038BD227E012A3DD051
:1011BC001A6822F080021A60637E012B3BD02268F1
:1011CC00136823F040031360A37E012B39D02268EF
:1011DC00136823F020031360E37E012B37D02268C1
:1011EC00136843F010031360237F012B35D0226862
:1011FC00136823F008031360637F012B33D022683C
:10120C00136823F0040313602168A368E268134396
:10121C0022691343626913436268013A1343CB6139
:10122C0000206062012384F8203038BD1A6842F037
:10123C0080021A60C0E72268136843F04003136011
:10124C00C2E72268136843F020031360C4E72268E6
:10125C00136823F010031360C6E72268136843F089
:10126C0008031360C8E72268136843F00403136093
:10127C00CAE701207047026890F82030013BDBB2CE
:10128C00012B05D9436A43F4802343620120704744
:10129C0070B4D2F8003243F00103C2F800324B694B
:1012AC0003F01F03012000FA03F3D2F81C42D843C9
:1012BC000440C2F81C42CC69ACB9D2F80C420440D0
:1012CC00C2F80C424C69CE688D8845EA0645483414
:1012DC0042F834504C698E680D8845EA064548340E
:1012EC0002EBC4046560CC69012C19D08C6974BB09
:1012FC00D2F804420440C2F804420C696CBBD2F828
:10130C0014422040C2F81402096A01292BD0D2F8E9
:10131C00003223F00103C2F80032002070BC704789
:10132C00D2F80C421C43C2F80C424C690E688D88F2
:10133C0045EA0645483442F834504C698E688D892C
:10134C0045EA0645483402EBC4046560CEE7D2F8A2
:10135C0004421C43C2F80442CFE7D2F814021843EB
:10136C00C2F81402D0E7D2F81C120B43C2F81C329C
:10137C00CDE738B590F82030DBB2012B05D0436AAD
:10138C0043F400234362012038BD0446022380F855
:10139C0020300268136823F00103136000F0B4FAE4
:1013AC00054623685B6813F0010F0DD000F0ACFA12
:1013BC00401B0A28F5D9636A43F4003363620523A2
:1013CC0084F82030012038BD0020606238BD70B434
:1013DC0090F820400568AD68013CE4B2012C06D9B8
:1013EC00436A43F480234362012070BC704715F0BC
:1013FC00E05F5BD0C5F30165022D3ED80124AC4003
:10140C001C608B68002B3ED104680E68CB6843EAE5
:10141C00465605F118031B01E65003680C6905F1EB
:10142C00180603EB06135C600B7D012B36D00468A9
:10143C00D17993791B0443EA0163517943EA01237F
:10144C0011790B432E013444C4F88C310168D478E3
:10145C0093781B0443EA0463547843EA0423127818
:10146C0013433144C1F88831026818352D015359A2
:10147C0043F0010353510020B7E7436A43F40003E0
:10148C0043620120B1E704684E6843EAC603CE68A4
:10149C00334305F118063601A351BEE7036803EB8D
:1014AC000613596841F480715960C0E7436A43F4EC
:1014BC0000134362012098E730B490F82040013CBF
:1014CC00E4B2012C06D9436A43F480234362012021
:1014DC0030BC704700296FD10468E46814F0030F26
:1014EC0064D0056801F11B0424012C5904F0040498
:1014FC009460002C6BD1056801F11B0424012C595C
:10150C00640D1460056801F11B0424012D59C5F309
:10151C004005D560056825446D6805F00F0515611B
:10152C00056825446D68C5F30725956105682C444D
:10153C006468240C546104680A011444D4F8B8415A
:10154C001C7004681444D4F8B841C4F307245C70CC
:10155C0004681444D4F8B841C4F307449C7004687C
:10156C001444D4F8B841240EDC7004681444D4F844
:10157C00BC411C7104681444D4F8BC41C4F3072466
:10158C005C7104681444D4F8BC41C4F307449C71E6
:10159C0004682244D2F8BC21120EDA71F9B902683F
:1015AC00D36843F02003D360002091E7436A43F4EF
:1015BC000013436201208BE70468246914F0030FC5
:1015CC008FD1436A43F400134362012080E705681E
:1015DC0001F11B0424012C59E408546092E70268C1
:1015EC00136943F020031361002071E790F8203059
:1015FC00013BDBB2012B05D9436A43F480234362E0
:10160C0001207047026853691943516100207047EB
:10161C007047704770477047704770477047704706
:10162C0070477047704770472DE9F84F05460368BF
:10163C005C695F689E68D3F80C90D3F81080D3F87F
:10164C0018A014F0010F5AD016F0010F17D0012278
:10165C009A6016F0020F08D116F0040F30D116F074
:10166C00080F07D04FF4805B0BE0FFF7D1FF4FF072
:10167C00000B06E0FFF7CFFF4FF0000B01E04FF03F
:10168C00000B16F4807F0BD02B684FF480729A609D
:10169C0016F4007F17D116F4806F18D04BF4005B52
:1016AC0016F4803F2DD02B684FF480329A6016F4DC
:1016BC00003F16D116F4802F17D04BF4004B20E0CE
:1016CC004FF4006BDDE72846FFF7A3FFE8E716F4BD
:1016DC00006F02D04BF4804BE2E72846FFF79CFFEB
:1016EC00DEE72846FFF796FF0BE016F4002F02D03A
:1016FC004BF4803B05E02846FFF78FFF01E04FF0ED
:10170C00000B14F0080F07D019F0100F04D04BF495
:10171C00007B2B681022DA6014F0040F02D019F051
:10172C00080F60D114F0020F04D02B68DB6813F0A3
:10173C00030F5FD114F0400F07D018F0100F04D036
:10174C004BF4806B2B6810221A6114F0200F02D01E
:10175C0018F0080F52D114F0100F04D02B681B692D
:10176C0013F0030F51D114F4003F02D017F0100FF7
:10177C004FD114F4803F02D017F0080F50D114F45D
:10178C00004F67D017F0040F61D014F4807F04D0A1
:10179C001AF0010F01D04BF0010B14F4007F04D0B0
:1017AC001AF0020F01D04BF0020B14F4806F04D02E
:1017BC001AF0040F01D04BF0040B14F4006F46D058
:1017CC001AF0700A43D0BAF1300F48D02FD9BAF1C1
:1017DC00500F47D0BAF1600F47D0BAF1400F31D15A
:1017EC004BF0400B2EE02B680822DA602846FFF7FE
:1017FC0015FF97E72846FEF7BFFF9BE72B680822EB
:10180C001A612846FFF70CFFA5E72846FFF707FFEC
:10181C00A9E72B6810225A602846FFF702FFA8E7B9
:10182C002B6808225A602846FFF7FCFEA7E7BAF19E
:10183C00100F05D0BAF1200F04D14BF0100B01E0C2
:10184C004BF0080B2A68936923F0700393612B68A3
:10185C0004225A60BBF1000F0AD1BDE8F88F4BF09F
:10186C00200BEFE74BF0800BECE74BF4807BE9E7C8
:10187C006B6A4BEA03036B622846FFF7D4FEECE776
:10188C0010B504460E4B18784FF47A73B3FBF0F393
:10189C000C4A1068B0FBF3F000F0C4FD68B90F2CD3
:1018AC0001D9012010BD002221464FF0FF3000F07D
:1018BC007BFD054B1C60002010BD012010BD00BF3E
:1018CC00160000201C0000201800002008B5074A54
:1018DC00136843F010031360032000F053FD002045
:1018EC00FFF7CEFFFFF7A2F8002008BD0020024052
:1018FC00034A1168034B1B780B441360704700BFFD
:10190C002C01002016000020014B1868704700BF06
:10191C002C01002038B50446FFF7F6FF0546B4F15C
:10192C00FF3F02D0044B1B781C44FFF7EDFF401B1C
:10193C008442FAD838BD00BF1600002082B0084B94
:10194C001B68084AA2FB03235B0A00FB03F001900F
:10195C0000BF019B5A1E0192002BF9D102B07047B7
:10196C001C000020D34D621070B582B00446036891
:10197C0013F0010F3DD0AC4B5B6803F00C03042B50
:10198C002ED0A94B5B6803F00C03082B23D06368A3
:10199C00B3F5803F51D0002B55D103F1804303F5B3
:1019AC0004331A6822F480321A601A6822F48022F6
:1019BC001A606368002B60D0FFF7A6FF05469A4BB0
:1019CC001B6813F4003F14D1FFF79EFF401B6428E3
:1019DC00F5D90320AFE1944B5B6813F4803FD6D06C
:1019EC00914B1B6813F4003F03D06368002B00F08D
:1019FC009F81236813F0020F65D08B4B5B6813F04B
:101A0C000C0F4ED0884B5B6803F00C03082B43D0B3
:101A1C002369002B79D00122844B1A60FFF774FFE5
:101A2C000546814B1B6813F0020F65D1FFF76CFF65
:101A3C00401B0228F5D903207DE17B4A136843F44F
:101A4C0080331360B5E7B3F5A02F09D0764B1A6835
:101A5C0022F480321A601A6822F480221A60A8E7F5
:101A6C0003F18043A3F53C331A6842F480221A60D8
:101A7C001A6842F480321A609BE7FFF745FF05466F
:101A8C00694B1B6813F4003FB3D0FFF73DFF401BBD
:101A9C006428F5D903204EE1634B5B6813F4803F57
:101AAC00B6D1614B1B6813F0020F04D02369012BD4
:101ABC0001D001203FE15C4A136823F0F80361690F
:101ACC0043EAC1031360236813F0080F32D0A369F3
:101ADC00002B6ED00122564B1A60FFF715FF0546FE
:101AEC00514B5B6A13F0020F21D1FFF70DFF401B26
:101AFC000228F5D903201EE14B4A136823F0F803A2
:101B0C00616943EAC1031360DDE70022474B1A60A9
:101B1C00FFF7FAFE0546444B1B6813F0020FD2D0B8
:101B2C00FFF7F2FE401B0228F5D9032003E1012048
:101B3C00FFF704FF236813F0040F00F099803A4B71
:101B4C00DB6913F0805F46D1374BDA6942F0805283
:101B5C00DA61DB6903F080530193019B0125354B5E
:101B6C001B6813F4807F38D0E368012B49D0002B1D
:101B7C004DD103F1804303F504331A6A22F00102BC
:101B8C001A621A6A22F004021A62E368002B5DD012
:101B9C00FFF7BAFE0646244B1B6A13F0020F66D100
:101BAC00FFF7B2FE801B41F288339842F3D9032031
:101BBC00C1E000221E4B1A60FFF7A6FE05461A4B29
:101BCC005B6A13F0020FB5D0FFF79EFE401B022894
:101BDC00F5D90320AFE00025C1E7164A136843F49A
:101BEC0080731360FFF790FE0646124B1B6813F4CC
:101BFC00807FB9D1FFF788FE801B6428F5D90320BC
:101C0C0099E0094A136A43F001031362BDE7052BFF
:101C1C0012D0054B1A6A22F001021A621A6A22F0DB
:101C2C0004021A62B1E700BF0010024000004242F9
:101C3C008004424200700040414B1A6A42F0040298
:101C4C001A621A6A42F001021A629EE7FFF75CFE02
:101C5C0006463B4B1B6A13F0020F08D0FFF754FEED
:101C6C00801B41F288339842F3D9032063E0E5B935
:101C7C00E369002B5ED0324A526802F00C02082A4B
:101C8C005BD0022B17D000222E4B1A60FFF73CFEC4
:101C9C0004462B4B1B6813F0007F47D0FFF734FE34
:101CAC00001B0228F5D9032045E0254AD36923F00F
:101CBC008053D361DCE70022224B1A60FFF724FE2D
:101CCC0005461F4B1B6813F0007F06D0FFF71CFE68
:101CDC00401B0228F5D903202DE0236AB3F5803F81
:101CEC001AD017494B6823F47413226A606A0243B2
:101CFC0013434B600122134B1A60FFF705FE044699
:101D0C000F4B1B6813F0007F0ED1FFF7FDFD001B7E
:101D1C000228F5D903200EE0094A536823F4003356
:101D2C00A1680B435360DCE7002004E0002002E0D4
:101D3C00012000E0002002B070BD0120FBE700BFD5
:101D4C00001002406000424210B586B0154C94E879
:101D5C000F000DF1180E0EE90F00238AADF80430B8
:101D6C00114B5B6803F00C02082A18D1C3F38342B1
:101D7C00724412F8102C13F4803F03D10B4800FB73
:101D8C0002F00DE0084B5B68C3F34043734413F857
:101D9C00143C074800FB02F0B0FBF3F000E00448F1
:101DAC0006B010BD0C2500080010024000093D00D3
:101DBC0000127A00624B1B6803F007038B420CD2B3
:101DCC005F4A136823F007030B431360136803F097
:101DDC000703994201D00120704770B5036813F0D6
:101DEC00020F17D013F0040F04D0564A536843F473
:101DFC00E0635360036813F0080F04D0514A536832
:101E0C0043F4605353604F4A536823F0F0038468E3
:101E1C00234353600D460446036813F0010F52D060
:101E2C004368012B23D0022B28D0464A126812F0AB
:101E3C00020F00F0828043494A6822F003021343E8
:101E4C004B60FFF761FD06466368012B1DD0022B2A
:101E5C002AD03C4B5B6813F00C0F34D0FFF754FDC9
:101E6C00801B41F288339842F3D9032070BD354A68
:101E7C00126812F4003FDED1012070BD314A1268A5
:101E8C0012F0007FD7D1012070BD2E4B5B6803F0A0
:101E9C000C03042B17D0FFF737FD801B41F288335E
:101EAC009842F2D9032070BD264B5B6803F00C03FB
:101EBC00082B08D0FFF728FD801B41F2883398428D
:101ECC00F2D9032070BD1E4B1B6803F007039D4223
:101EDC000CD21B4A136823F007032B4313601368BF
:101EEC0003F007039D4201D0012070BD236813F05D
:101EFC00040F06D0134A536823F4E063E1680B43E4
:101F0C005360236813F0080F07D00E4A536823F46C
:101F1C006053216943EAC1035360FFF715FF094B76
:101F2C005B68C3F30313084AD35CD840074B1860B3
:101F3C000020FFF7A5FC002070BD012070BD00BF84
:101F4C000020024000100240342500081C00002034
:101F5C00014B1868704700BF1C00002008B5FFF744
:101F6C00F7FF044B5B68C3F3C223034AD35CD8402E
:101F7C0008BD00BF001002404425000870B582B0B7
:101F8C000446036813F0010F34D03E4BDB6913F0A9
:101F9C00805F48D13B4BDA6942F08052DA61DB69F1
:101FAC0003F080530193019B0125374B1B6813F4FD
:101FBC00807F3AD0334B1B6A13F4407311D06268A4
:101FCC0002F4407293420CD02E4A136A23F44070F0
:101FDC002E4901260E6000260E60106213F0010FD0
:101FEC0037D1284A136A23F4407361680B43136298
:101FFC00002D3FD1236813F0020F06D0214A5368FD
:10200C0023F44043A1680B435360236813F0100F73
:10201C0035D01C4A536823F48003E1680B435360AA
:10202C00002002B070BD0025BFE7174A136843F4C7
:10203C0080731360FFF768FC0646134B1B6813F4A0
:10204C00807FB7D1FFF760FC801B6428F5D9032093
:10205C00E7E7FFF759FC06460A4B1B6A13F0020F21
:10206C00BFD1FFF751FC801B41F288339842F3D962
:10207C000320D6E7D36923F08053D361BAE700205D
:10208C00CFE700BF00100240007000404004424205
:10209C0030B587B00546384C94E80F000DF1180E9A
:1020AC000EE90F00238AADF80430022D53D0102D09
:1020BC0003D0012D2BD0002057E0304B5A681B6801
:1020CC0013F0807F53D0C2F3834306A90B4413F85B
:1020DC00100C12F4803F16D0284B5B68C3F34043BE
:1020EC000B4413F8142C264BB3FBF2F303FB00F058
:1020FC00224B5B6813F4800F37D14000214BA3FBBC
:10210C000030400831E0204B03FB00F0F0E71B4BA4
:10211C001B6A40F202321A40B2F5817F29D003F4D7
:10212C004073B3F5007F04D0B3F5407F09D0002095
:10213C001BE0124A526A12F0020FF5D049F64040E9
:10214C0013E00E4B1B6813F4003F02D04FF22440F7
:10215C000BE0002009E0FFF701FF084B5B68C3F3BD
:10216C00813301335B00B0FBF3F007B030BD0020CE
:10217C00FBE74FF40040F8E7202500080010024070
:10218C0000127A00ABAAAAAA00093D00F0B583B0F0
:10219C000026344671E0002D00F0A180012D00D105
:1021AC00CE68FF2B00F2AF808646FF2B00F2AE808C
:1021BC00A500DEF800200F27AF4022EA070206FA3E
:1021CC0005F52A43CEF800204A6812F0805F53D000
:1021DC00634A956945F001059561926902F0010227
:1021EC000192019AA508AF1C5E4A52F8272004F010
:1021FC000307BF004FF00F0E0EFA07FE22EA0E0285
:10220C00DFF870E1704500F088800EF5806E704547
:10221C0000F086800EF5806E704500F084800EF51F
:10222C00806E704576D04FF0040E0EFA07F73A43E5
:10223C0002354C4F47F825204A6812F4803F75D080
:10224C00494D2A681A432A604A6812F4003F73D039
:10225C00454D6A681A436A604A6812F4801F71D04F
:10226C00414DAA681A43AA604A6812F4001F6FD045
:10227C003D4DEA681343EB6001340F2C6ED80122FC
:10228C00A2400B6813409A42F6D14D68122D30D003
:10229C000BD8022D2AD07FF67EAF032D2FD0112D17
:1022AC007FF47FAFCE6804367BE7304FBD4216D04B
:1022BC000CD92F4FBD4212D007F58037BD420ED03E
:1022CC00A7F58017BD427FF46CAF08E0A7F5801727
:1022DC00BD4204D007F58037BD427FF462AF8D68F4
:1022EC007DB1012D08D0426108265AE7CE68083628
:1022FC0057E7CE680C3654E70261082651E70026F2
:10230C004FE704264DE700F1040E4EE7A4F1080553
:10231C00AD004EE74FF0030E87E74FF0000E84E759
:10232C004FF0010E81E74FF0020E7EE70E4D2A684A
:10233C0022EA03022A6087E70B4D6A6822EA03024D
:10234C006A6089E7084DAA6822EA0302AA608BE753
:10235C00054DEA6822EA0303EB608DE703B0F0BD9C
:10236C000010024000000140000401400000211058
:10237C00000031100008014012B9090401617047D6
:10238C0001617047074AD36823F4E0631B041B0CFC
:10239C00000200F4E060184340F0BF6040F40030ED
:1023AC00D060704700ED00E030B4164BDB68C3F32F
:1023BC000223C3F10704042C28BF04241D1D062D81
:1023CC0017D9033B012505FA04F4013C214099403F
:1023DC0005FA03F3013B1340194300280BDB0901F9
:1023EC00C9B200F1604000F5614080F8001330BCC8
:1023FC0070470023E6E700F00F000901C9B2024B59
:10240C001954F4E700ED00E014ED00E0420900F08F
:10241C001F00012303FA00F0014B43F82200704720
:10242C0000E100E00138B0F1807F0AD2064B586021
:10243C00F021064A82F823100020986007221A60C7
:10244C0070470120704700BF10E000E000ED00E095
:10245C000F4B1A6842F001021A6059680D4A0A4083
:10246C005A601A6822F0847222F480321A601A6858
:10247C0022F480221A605A6822F4FE025A604FF449
:10248C001F029A604FF00062034B9A60704700BFC6
:10249C00001002400000FFF800ED00E0002103E016
:1024AC000B4B5B58435004310A480B4B42189A4271
:1024BC00F6D30A4A02E0002342F8043B084B9A4246
:1024CC00F9D3FFF7C5FFFDF76DFEFEF75FFA704716
:1024DC0054250008000000202000002020000020CF
:1024EC0030010020FEE70000F8B500BFF8BC08BCC6
:1024FC009E467047F8B500BFF8BC08BC9E467047B6
:10250C0002030405060708090A0B0C0D0E0F101028
:10251C000102000002030405060708090A0B0C0D52
:10252C000E0F10100102000000000000000000005F
:10253C00010203040607080900000000010203045D
:04254C007901000809
:04255000510100082D
:102554000000670201049B053507CF08690A030CD4
:102564009D0D370FFF0F01001000000000A24A0468
:04000005080024A922
:00000001FF
