:020000040800F2
:10000000005000209D1400086104000865040008E9
:10001000690400086D040008710400080000000075
:10002000000000000000000000000000750400084F
:1000300079040008000000007D0400088104000825
:10004000E5140008E5140008E5140008E5140008AC
:10005000E5140008E5140008E5140008E51400089C
:10006000E5140008E5140008E5140008E51400088C
:10007000E5140008E5140008E5140008E51400087C
:10008000E5140008E5140008E5140008E51400086C
:10009000E5140008E5140008E5140008E51400085C
:1000A000E5140008E5140008E5140008E51400084C
:1000B000E5140008E5140008E5140008E51400083C
:1000C000E5140008E5140008E5140008E51400082C
:1000D000E5140008E5140008E5140008E51400081C
:1000E000E5140008E5140008E5140008000000000D
:1000F0000000000000000000000000000000000000
:0C01000000000000000000005FF808F1A3
:10010C00044B05481B1A062B02D9044B03B11847A4
:10011C00704700BF0F0000200C0000200000000002
:10012C0005490648091A891001EBD171491002D012
:10013C00034B03B1184770470C0000200C00002043
:10014C000000000010B5064C237843B9FFF7D8FF28
:10015C00044B13B10448AFF300800123237010BD8E
:10016C000C000020000000003415000808B5084BF6
:10017C001BB108480849AFF300800848036813B95D
:10018C00BDE80840CCE7064B002BF9D09847F7E7C1
:10019C000000000034150008100000200C000020A6
:1001AC00000000002DE9F04389B00024049405946C
:1001BC00069407943F4B9A6942F010029A619A692F
:1001CC0002F010020092009A9A6942F020029A61A1
:1001DC009A6902F020020192019A9A6942F0040293
:1001EC009A619A6902F004020292029A9A6942F0A8
:1001FC0008029A619B6903F008030393039BDFF8E1
:10020C00C48040464FF40051224601F0BBF82A4FFF
:10021C00384642F23811224601F0B4F8DFF8A890C3
:10022C0048464FF48061224601F0ACF84FF400537D
:10023C00049301250595069402260796404604A9C9
:10024C0000F0AEFF4FF440430493059406944046EF
:10025C0004A900F0A5FF049505940694174804A979
:10026C0000F09EFF48F240430493059406943846F0
:10027C0004A900F095FF42F23813049305950694F7
:10028C000796384604A900F08BFF4FF48063049363
:10029C00059506940796484604A900F081FF084A84
:1002AC00536843F0E06343F40043536009B0BDE886
:1002BC00F08300BF00100240000C0140001401400C
:1002CC0000000140001001400008014070B584B0EE
:1002DC000025019502950395284C294B2360A560B8
:1002EC00E56065614FF46023E3616560012626617A
:1002FC00204600F01BFA019502960395204601A9B1
:10030C0000F056F9019602250295204601A900F04D
:10031C004FF9204601A900F04BF9032301930293F6
:10032C00204601A900F044F9204601A900F040F94B
:10033C0001950423029320460DEB030100F038F9DC
:10034C00204601A900F034F90823019305230293F8
:10035C00204601A900F02CF9204601A900F028F94B
:10036C000923019306230293204601A900F020F9EA
:10037C00204601A900F01CF904B070BD64000020F7
:10038C000024014008B50948094B03601023436061
:10039C0000238360C36003614361037643768376F5
:1003AC00C3760377437700F047FA08BD300000208E
:1003BC000064004030B595B000240B940C940D945F
:1003CC001094119412941394059406940794089421
:1003DC000994019402940394049402250A95012330
:1003EC000E9310230F930AA800F044FB0F230593E0
:1003FC00069407940894099405A8214600F072FD10
:10040C000195039401A800F041FE15B030BD00BF6A
:10041C0008B500F0E1FAFFF7CDFFFFF7C3FEFFF7D9
:10042C0055FFFFF7AFFF0A4C20464FF40051012255
:10043C0000F0A8FF4FF4967000F0F2FA20464FF44B
:10044C000051002200F09EFFC82000F0E9FAEAE714
:10045C0000100140704700BFFEE700BFFEE700BF81
:10046C00FEE700BFFEE700BF704700BF704700BF4C
:10047C00704700BF08B500F0C1FA08BD82B00E4B42
:10048C009A6942F001029A619A6902F001020092A3
:10049C00009ADA6942F08052DA61DB6903F080532A
:1004AC000193019B054A536823F0E06343F080639A
:1004BC00536002B0704700BF0010024000000140C2
:1004CC0010B588B000230493059306930793026834
:1004DC00174B9A422AD103F56C439A6942F4007285
:1004EC009A619A6902F400720192019A9A6942F037
:1004FC0004029A619A6902F004020292029A9A69C1
:10050C0042F008029A619B6903F008030393039B72
:10051C000F23049303240594064804A900F040FE1D
:10052C0004940594044804A900F03AFE08B010BDE8
:10053C000024014000080140000C014030B587B098
:10054C00002302930393049305930268164B9A427B
:10055C0028D103F5D633DA6942F00072DA61DA6930
:10056C0002F000720092009A9A6942F004029A61B9
:10057C009B6903F004030193019B06AC4FF40063E9
:10058C0044F8103D094D2846214600F009FE4FF471
:10059C008053029302230393032305932846214699
:1005AC0000F0FEFD07B030BD0064004000080140C3
:1005BC0070B483B00023019390F82430012B00F029
:1005CC008380012380F824304B68062B0DD80668F5
:1005DC00756B03EB8303053B1F229A4025EA02044B
:1005EC000A689A40224372631CE00C2B0DD80668F3
:1005FC00356B03EB8303233B1F229A4025EA02044D
:10060C000A689A40224332630CE00668F56A03EBF1
:10061C008303413B1F229A4025EA02040A689A4050
:10062C002243F2620B68092B0DD90668F56803EBBF
:10063C0043031E3B07229A4025EA02048A689A402B
:10064C002243F2600BE00668356903EB4303072293
:10065C009A4025EA02048A689A40224332610B6868
:10066C00103B012B26D80368194A93421CD19A6877
:10067C0012F4000F20D19A6842F400029A600B68C1
:10068C00102B1BD1134B1B68134AA2FB03239B0C8F
:10069C0003EB83035B00019302E0019B013B01939D
:1006AC00019B002BF9D10AE0836A43F0200383629B
:1006BC00012304E0002302E0002300E000230022D9
:1006CC0080F82420184600E0022003B070BC70476C
:1006DC00002401400800002083DE1B4338B503686A
:1006EC009A6812F0010F1ED004469A6822F001029B
:1006FC009A6000F08FF905460EE000F08BF9401B74
:10070C00022809D9A36A43F01003A362E36A43F0F9
:10071C000103E362012038BD23689B6813F0010FCD
:10072C00EBD1002038BD002038BD00BF00287DD0A3
:10073C0038B50446836A23B9C36280F82430FFF7C6
:10074C00BFFE2046FFF7CAFFA36A13F0100F67D154
:10075C00002865D1A36A23F4885323F0020343F0E5
:10076C000203A3626268E3691343E16843EA41034D
:10077C00A268B2F5807F04D0012A05D14FF48072B3
:10078C0003E04FF4807200E000226569012D0FD167
:10079C0031B9A169013942EA413242F4006207E001
:1007AC00A16A41F02001A162E16A41F00101E1621C
:1007BC002568696821F469410A436A6021688D687B
:1007CC001B4A2A401A438A60A268B2F5807F01D086
:1007DC00012A03D12269013A110500E000212568A4
:1007EC00EA6A22F470020A43EA6222689168114AAA
:1007FC000A40934208D10023E362A36A23F0030367
:10080C0043F00103A36238BDA36A23F0120343F043
:10081C001003A362E36A43F00103E362012038BDD5
:10082C00A36A43F01003A362012038BD0120704776
:10083C00FDF7E1FFFE0E1FFF002800F0A48038B585
:10084C00044690F8203013F0FF0F01D1FFF776FE2D
:10085C002268136823F00203136000F0DBF80546EE
:10086C000DE000F0D7F8401B0A2808D9636A43F45E
:10087C0000336362052384F82030012038BD2368DF
:10088C005A6812F0020FECD11A6842F001021A6099
:10089C0000F0C0F805460DE000F0BCF8401B0A283B
:1008AC0008D9636A43F400336362052384F820306B
:1008BC00012038BD23685A6812F0010FECD0227E5B
:1008CC00012A04D11A6842F080021A6003E01A6807
:1008DC0022F080021A60637E012B05D12268136816
:1008EC0043F04003136004E02268136823F04003D4
:1008FC001360A37E012B05D12268136843F02003FB
:10090C00136004E02268136823F020031360E37E75
:10091C00012B05D12268136823F01003136004E047
:10092C002268136843F010031360237F012B05D159
:10093C002268136843F00803136004E0226813680C
:10094C0023F008031360637F012B05D12268136821
:10095C0043F00403136004E02268136823F00403DB
:10096C0013602168A268E3681A4323691A43636918
:10097C001A436368013B1343CB610020606201237F
:10098C0084F8203038BD0120704700BF10B50446F4
:10099C000E4B18784FF47A73B3FBF0F30C4A1068D3
:1009AC00B0FBF3F000F038FD58B90F2C0BD84FF01A
:1009BC00FF302146002200F0FDFC064B1C6000209D
:1009CC0010BD012010BD012010BD00BF040000208F
:1009DC00080000200000002008B5074A136843F007
:1009EC0010031360032000F0D3FC0020FFF7CEFFB0
:1009FC00FFF744FD002008BD00200240034A1368A5
:100A0C00034909780B441360704700BFA400002011
:100A1C0004000020014B1868704700BFA4000020A0
:100A2C0038B50446FFF7F6FF0546B4F1FF3F02D098
:100A3C00044B1B781C44FFF7EDFF401B8442FAD893
:100A4C0038BD00BF0400002082B0084B1B68084A68
:100A5C00A2FB03235B0A00FB03F0019000BF019B88
:100A6C005A1E0192002BF9D102B0704708000020E9
:100A7C00D34D621070B582B00446036813F0010FB9
:100A8C006BD0A84B5B6803F00C03042B0AD0A54B6E
:100A9C005B6803F00C03082B0DD1A24B5B6813F4BD
:100AAC00803F08D09F4B1B6813F4003F55D0636800
:100ABC00002B52D1B8E16368B3F5803F05D1994A58
:100ACC00136843F48033136026E063B903F1804369
:100ADC0003F504331A6822F480321A601A6822F47F
:100AEC0080221A6018E0B3F5A02F0CD103F18043DB
:100AFC00A3F53C331A6842F480221A601A6842F457
:100B0C0080321A6008E0874B1A6822F480321A602F
:100B1C001A6822F480221A6063687BB1FFF77AFFAF
:100B2C00054605E0FFF776FF401B642800F27E8146
:100B3C007C4B1B6813F4003FF4D00EE0FFF76AFF08
:100B4C00054605E0FFF766FF401B642800F2708144
:100B5C00744B1B6813F4003FF4D1236813F0020F9D
:100B6C0050D0704B5B6813F00C0F0AD06D4B5B6868
:100B7C0003F00C03082B16D16A4B5B6813F4803F0F
:100B8C0011D1684B1B6813F0020F03D02369012BA2
:100B9C0040F05081634A136823F0F803616943EA1B
:100BAC00C10313602EE02369D3B101225E4B1A609E
:100BBC00FFF730FF054605E0FFF72CFF401B02282E
:100BCC0000F23A81574B1B6813F0020FF4D0554AD0
:100BDC00136823F0F803616943EAC103136011E061
:100BEC000022514B1A60FFF715FF054605E0FFF791
:100BFC0011FF401B022800F221814A4B1B6813F0A5
:100C0C00020FF4D1236813F0080F29D0A369ABB1FC
:100C1C000122464B1A60FFF7FDFE054605E0FFF783
:100C2C00F9FE401B022800F20B813E4B5B6A13F06D
:100C3C00020FF4D00120FFF707FF11E000223B4B1D
:100C4C001A60FFF7E7FE054605E0FFF7E3FE401BE1
:100C5C00022800F2F780334B5B6A13F0020FF4D1D9
:100C6C00236813F0040F00F089802E4BDB6913F01E
:100C7C00805F0BD12B4BDA6942F08052DA61DB6971
:100C8C0003F080530193019B012500E00025284BC4
:100C9C001B6813F4807F13D1254A136843F48073C7
:100CAC001360FFF7B7FE064605E0FFF7B3FE801BA7
:100CBC00642800F2C9801E4B1B6813F4807FF4D0AB
:100CCC00E368012B05D1174A136A43F00103136241
:100CDC0022E063B903F1804303F504331A6A22F06E
:100CEC0001021A621A6A22F004021A6214E0052B3D
:100CFC0009D10C4B1A6A42F004021A621A6A42F0C9
:100D0C0001021A6208E0074B1A6A22F001021A6209
:100D1C001A6A22F004021A62E368CBB1FFF77AFE7A
:100D2C0006460FE00010024000004242800442429E
:100D3C0000700040FFF76EFE801B41F28833984232
:100D4C0000F28480494B1B6A13F0020FF2D00FE0C3
:100D5C00FFF760FE064606E0FFF75CFE801B41F2E3
:100D6C008833984274D8414B1B6A13F0020FF3D1AD
:100D7C0025B13E4AD36923F08053D361E369002B3C
:100D8C0068D03A4A526802F00C02082A64D0022B4E
:100D9C0037D10022364B1A60FFF73CFE054604E0C3
:100DAC00FFF738FE401B022858D8304B1B6813F055
:100DBC00007FF5D1236AB3F5803F06D12B494B68F0
:100DCC0023F40032A36813434B602848436823F490
:100DDC007411236A626A13430B4343600122244B50
:100DEC001A60FFF717FE044604E0FFF713FE001B22
:100DFC00022835D81D4B1B6813F0007FF5D000205E
:100E0C0031E000221A4B1A60FFF704FE044604E09E
:100E1C00FFF700FE001B022824D8144B1B6813F0AC
:100E2C00007FF5D100201EE001201CE003201AE019
:100E3C00032018E0012016E0032014E0032012E048
:100E4C00032010E003200EE003200CE003200AE056
:100E5C00032008E0002006E0012004E0032002E06B
:100E6C00032000E0032002B070BD00BF0010024060
:100E7C006000424230B486B0164D02AC28686968F6
:100E8C00AA68EB680FC42B8AADF80430124B5B6870
:100E9C0003F00C02082A19D1C3F3834206A90A44B1
:100EAC0012F8100C13F4803F0CD00B4B5B68C3F39F
:100EBC0040430B4413F8142C084B03FB00F0B0FB1D
:100ECC00F2F004E0064B03FB00F000E0034806B030
:100EDC0030BC70474C1500080010024000127A001C
:100EEC0000093D0070B5654B1B6803F007038B428E
:100EFC000BD2624A136823F007030B431360136889
:100F0C0003F007038B4240F0A880036813F0020F34
:100F1C0017D013F0040F04D0594A536843F4E0631C
:100F2C005360036813F0080F04D0554A536843F418
:100F3C0060535360524C636823F0F0028368134390
:100F4C0063600D460446036813F0010F4DD04268F0
:100F5C00012A05D14A4B1B6813F4003F0DD17EE0EA
:100F6C00022A05D1464B1B6813F0007F05D178E0AF
:100F7C00434B1B6813F0020F75D041494B6823F0AB
:100F8C00030313434B60FFF745FD06466368012BD3
:100F9C000ED106E0FFF73EFD801B41F288339842EC
:100FAC0063D8374B5B6803F00C03042BF2D11CE0C5
:100FBC00022B15D106E0FFF72DFD801B41F2883383
:100FCC00984254D82E4B5B6803F00C03082BF2D1DB
:100FDC000BE0FFF71FFD801B41F28833984248D885
:100FEC00274B5B6813F00C0FF3D1244B1B6803F0F9
:100FFC000703AB420AD9214A136823F007032B439A
:10100C001360136803F00703AB4234D1236813F069
:10101C00040F06D01A494B6823F4E062E3681343CB
:10102C004B60236813F0080F07D0154A536823F45C
:10103C006053216943EAC1035360FFF71BFF104B58
:10104C005B68C3F303130F4AD35CD8400E4B186094
:10105C000020FFF79BFC002070BD012070BD01201B
:10106C0070BD012070BD012070BD032070BD032038
:10107C0070BD032070BD012070BD00BF0020024078
:10108C0000100240601500080800002070B582B006
:10109C000446036813F0010F5CD03E4BDB6913F080
:1010AC00805F0BD13B4BDA6942F08052DA61DB692D
:1010BC0003F080530193019B012600E00026364B80
:1010CC001B6813F4807F12D1334A136843F4807386
:1010DC001360FFF79FFC054604E0FFF79BFC401BE9
:1010EC0064284FD82C4B1B6813F4807FF5D0294B08
:1010FC001B6A13F4407321D0626802F440729A4266
:10110C001CD0244A136A23F44070244901250D6035
:10111C0000250D60106213F0010F0FD0FFF77AFC61
:10112C00054606E0FFF776FC401B41F288339842F7
:10113C002AD8184B1B6A13F0020FF3D015490B6A0F
:10114C0023F44072636813430B621EB1CB6923F026
:10115C008053CB61236813F0020F06D00D494B6806
:10116C0023F44042A36813434B60236813F0100F21
:10117C000CD008494B6823F48002E36813434B609E
:10118C00002004E0032002E0032000E0002002B075
:10119C0070BD00BF0010024000700040400442428D
:1011AC00F0B583B000273C46DAE00122A2400B6880
:1011BC001340934240F0D3804D68122D2DD00BD8A4
:1011CC00022D27D003D85DB3012D1ED035E0032DA1
:1011DC0030D0112D1BD030E0644EB54220D008D851
:1011EC00A6F58016B5421BD006F58036B54224D143
:1011FC0016E05F4EB54213D006F58036B5420FD0DF
:10120C00A6F58016B54218D10AE0CF6815E0CF6874
:10121C00043712E0CF6808370FE0CF680C370CE0CA
:10122C008D684DB1012D02D10261082705E04261A4
:10123C00082702E0002700E00427FF2B01D8844692
:10124C0001E000F1040CFF2B02D84FEA840E03E0FE
:10125C00A4F1080E4FEA8E0EDCF800600F2202FAA1
:10126C000EF226EA020507FA0EF22A43CCF8002009
:10127C004A6812F0805F72D03E4A956945F00105CC
:10128C009561926902F001020192019A4FEA940E63
:10129C000EF10205384A52F8256004F0030C4FEAAF
:1012AC008C0C0F2202FA0CF226EA0205334A904209
:1012BC0013D002F5806290420DD002F5806290420C
:1012CC0007D002F58062904201D1032206E004228D
:1012DC0004E0022202E0012200E0002202FA0CF2F9
:1012EC002A430EF1020E244D45F82E204A6812F4C2
:1012FC00803F05D005F580652A681A432A6004E012
:10130C001F4D2A6822EA03022A604A6812F4003F41
:10131C0004D01B4D6A681A436A6004E0184D6A6871
:10132C0022EA03026A604A6812F4801F04D0144D4A
:10133C00AA681A43AA6004E0114DAA6822EA0302C3
:10134C00AA604A6812F4001F04D00D4DEA681343DA
:10135C00EB6004E00A4DEA6822EA0303EB60013417
:10136C000F2C7FF622AF03B0F0BD00BF00002110A0
:10137C000000311000100240000001400008014044
:10138C00000401400AB10161704709040161704712
:10139C0000F00700064AD36823F4E0631B041B0C1F
:1013AC0043EA002040F0BF6040F40030D06070474A
:1013BC0000ED00E030B4164BDC68C4F30224C4F139
:1013CC000705042D28BF0425231D062B01D9033C3A
:1013DC0000E00024012303FA05F5013D2940A1405A
:1013EC00A340013B1A400A43002806DA00F00F0024
:1013FC001201D2B2074B1A5407E01201D2B200F11B
:10140C00604000F5614080F8002330BC704700BF9D
:10141C0000ED00E014ED00E00138B0F1807F0AD25D
:10142C00064B5860F021064A82F823100020986081
:10143C0007221A6070470120704700BF10E000E0DF
:10144C0000ED00E00F4B1A6842F001021A60596877
:10145C000D4A0A405A601A6822F0847222F48032D3
:10146C001A601A6822F480221A605A6822F4FE026A
:10147C005A604FF41F029A604FF00062034B9A605F
:10148C00704700BF001002400000FFF800ED00E0C4
:10149C00002103E00B4B5B58435004310A480B4BC3
:1014AC0042189A42F6D30A4A02E0002342F8043B5F
:1014BC00084B9A42F9D3FFF7C5FF00F00FF8FEF77F
:1014CC00A7FF704778150008000000200C000020D2
:1014DC000C000020A8000020FEE700000E4B70B5A9
:1014EC001E460E4C0025E41AA410A54204D056F852
:1014FC00253098470135F8E700F016F8084B094CF1
:10150C001E46E41AA4100025A54204D056F8253036
:10151C0098470135F8E770BD701500087015000884
:10152C007015000874150008F8B500BFF8BC08BCAD
:10153C009E467047F8B500BFF8BC08BC9E46704785
:10154C0002030405060708090A0B0C0D0E0F1010F8
:10155C000102000000000000000000000102030472
:04156C00060708095D
:0415700079010008F5
:041574005101000819
:0C157800100000000100000000A24A0466
:040000050800149D3E
:00000001FF
