:020000040800F2
:1000000000500020E12C0008911200089312000813
:1000100095120008971200089912000800000000CD
:100020000000000000000000000000009B1200081B
:100030009D120008000000009F120008A112000895
:10004000292D0008292D0008292D0008292D000838
:10005000292D0008292D0008292D0008292D000828
:10006000292D0008292D0008292D0008292D000818
:10007000292D0008292D0008292D0008292D000808
:10008000292D0008292D0008D9120008292D000863
:10009000E9120008292D0008292D0008292D000843
:1000A000292D0008292D0008292D0008292D0008D8
:1000B000292D0008292D0008292D0008292D0008C8
:1000C000292D0008292D0008292D0008292D0008B8
:1000D000292D0008292D0008292D0008292D0008A8
:1000E000292D0008292D0008292D000800000000F6
:1000F0000000000000000000000000000000000000
:0C01000000000000000000005FF808F1A3
:10011000044B05481B1A062B02D9044B03B11847A0
:10012000704700BF170000201400002000000000EE
:1001300005490648091A891001EBD171491002D00E
:10014000034B03B11847704714000020140000202F
:100150000000000010B5064C237843B9FFF7D8FF24
:10016000044B13B10448AFF300800123237010BD8A
:1001700014000020000000002C2D000808B5084BDA
:100180001BB108490848AFF300800848036813B959
:10019000BDE80840CCE7064B002BF9D09847F7E7BD
:1001A00000000000180000202C2D00081400002082
:1001B0000000000070402DE964609FE564509FE5F9
:1001C000066065E04661B0E10040A0130500000A4A
:1001D000014084E2043095E40FE0A0E113FF2FE139
:1001E000040056E1F9FFFF1A3C609FE53C509FE593
:1001F000066065E0CC0A00FA4661B0E10040A01359
:100200000500000A014084E2043095E40FE0A0E11B
:1002100013FF2FE1040056E1F9FFFF1A7040BDE81B
:100220001EFF2FE1842D0008842D0008882D000872
:10023000842D0008030010E310402DE93700000A68
:10024000000052E3012042E23200000AFFC001E256
:100250000030A0E1020000EA000052E3012042E287
:100260002C00000A01C0C3E4030013E3F9FFFF1AE6
:10027000030052E32000009AFFE001E20EE48EE169
:100280000F0052E30EE88EE11000009A0240A0E158
:1002900010C083E2104044E20F0054E310E00CE58C
:1002A0000CE00CE508E00CE504E00CE510C08CE285
:1002B000F7FFFF8A10C042E20FC0CCE30F2002E23A
:1002C00010C08CE2030052E30C3083E00A00009A75
:1002D0000340A0E102C0A0E104C04CE203005CE3E3
:1002E00004E084E4FBFFFF8A04C042E203C0CCE3E5
:1002F00004C08CE20C3083E0032002E2000052E3F1
:10030000FF100112022083100200000A0110C3E452
:10031000020053E1FCFFFF1A1040BDE81EFF2FE171
:100320000030A0E1D1FFFFEA81F0004102E000BF10
:1003300083F0004330B54FEA41044FEA430594EAA5
:10034000050F08BF90EA020F1FBF54EA000C55EAE0
:10035000020C7FEA645C7FEA655C00F0E2804FEAB1
:100360005454D4EB5555B8BF6D420CDD2C4480EA93
:10037000020281EA030382EA000083EA010180EAC3
:10038000020281EA0303362D88BF30BD11F0004F11
:100390004FEA01314FF4801C4CEA113102D0404247
:1003A00061EB410113F0004F4FEA03334CEA133382
:1003B00002D0524263EB430394EA050F00F0A7809A
:1003C000A4F10104D5F1200E0DDB02FA0EFC22FA95
:1003D00005F2801841F1000103FA0EF2801843FA89
:1003E00005F359410EE0A5F120050EF1200E012A7A
:1003F00003FA0EFC28BF4CF0020C43FA05F3C018B8
:1004000051EBE37101F0004507D54FF0000EDCF130
:10041000000C7EEB00006EEB0101B1F5801F1BD3D9
:10042000B1F5001F0CD349085FEA30004FEA3C0CDD
:1004300004F101044FEA445212F5800F80F09A80D3
:10044000BCF1004F08BF5FEA500C50F1000041EBD7
:10045000045141EA050130BD5FEA4C0C404141EBDB
:10046000010111F4801FA4F10104E9D191F0000F02
:1004700004BF01460020B1FA81F308BF2033A3F185
:100480000B03B3F120020CDA0C3208DD02F1140C7C
:10049000C2F10C0201FA0CF021FA02F10CE002F1B7
:1004A0001402D8BFC2F1200C01FA02F120FA0CFCB0
:1004B000DCBF41EA0C019040E41AA2BF01EB0451F9
:1004C000294330BD6FEA04041F3C1CDA0C340EDCF7
:1004D00004F11404C4F1200220FA04F001FA02F33A
:1004E00040EA030021FA04F345EA030130BDC4F1F8
:1004F0000C04C4F1200220FA02F001FA04F340EAED
:100500000300294630BD21FA04F0294630BD94F09D
:10051000000F83F4801306BF81F480110134013D84
:100520004EE77FEA645C18BF7FEA655C29D094EAF5
:10053000050F08BF90EA020F05D054EA000C04BF73
:100540001946104630BD91EA030F1EBF002100205E
:1005500030BD5FEA545C05D14000494128BF41F0FD
:10056000004130BD14F580043CBF01F5801130BD61
:1005700001F0004545F0FE4141F470014FF00000EC
:1005800030BD7FEA645C1ABF194610467FEA655C9D
:100590001CBF0B46024650EA013406BF52EA03353F
:1005A00091EA030F41F4002130BD00BF90F0000F2D
:1005B00004BF0021704730B54FF4806404F1320469
:1005C0004FF000054FF0000150E700BF90F0000F22
:1005D00004BF0021704730B54FF4806404F1320449
:1005E00010F0004548BF40424FF000013EE700BF19
:1005F00042004FEAE2014FEA31014FEA02701FBFA9
:1006000012F07F4393F07F4F81F06051704792F07A
:10061000000F14BF93F07F4F704730B54FF46074F4
:1006200001F0004521F0004120E700BF50EA01023F
:1006300008BF704730B54FF000050AE050EA0102EC
:1006400008BF704730B511F0004502D5404261EB5C
:1006500041014FF4806404F132045FEA915C3FF49D
:10066000DCAE4FF003025FEADC0C18BF03325FEA36
:10067000DC0C18BF033202EBDC02C2F1200300FAEB
:1006800003FC20FA02F001FA03FE40EA0E0021FA10
:1006900002F11444C1E600BF70B54FF0FF0C4CF4FA
:1006A000E06C1CEA11541DBF1CEA135594EA0C0FB0
:1006B00095EA0C0F00F0DEF82C4481EA030621EAEB
:1006C0004C5123EA4C5350EA013518BF52EA033526
:1006D00041F4801143F4801338D0A0FB02CE4FF0D8
:1006E0000005E1FB02E506F00042E0FB03E54FF008
:1006F0000006E1FB03569CF0000F18BF4EF0010E00
:10070000A4F1FF04B6F5007F64F5407404D25FEAFB
:100710004E0E6D4146EB060642EAC62141EA5551AE
:100720004FEAC52040EA5E504FEACE2EB4F1FD0CF0
:1007300088BFBCF5E06F1ED8BEF1004F08BF5FEA6E
:10074000500E50F1000041EB045170BD06F0004620
:1007500046EA010140EA020081EA0301B4EB5C04CD
:10076000C2BFD4EB0C0541EA045170BD41F48011C5
:100770004FF0000E013C00F3AB8014F1360FDEBFEA
:10078000002001F0004170BDC4F10004203C35DAC6
:100790000C341BDC04F11404C4F1200500FA05F349
:1007A00020FA04F001FA05F240EA020001F00042EA
:1007B00021F0004110EBD37021FA04F642EB060160
:1007C0005EEA430E08BF20EAD37070BDC4F10C048A
:1007D000C4F1200500FA04F320FA05F001FA04F24E
:1007E00040EA020001F0004110EBD37041F100013A
:1007F0005EEA430E08BF20EAD37070BDC4F1200545
:1008000000FA05F24EEA020E20FA04F301FA05F2AC
:1008100043EA020321FA04F001F0004121FA04F254
:1008200020EA020000EBD3705EEA430E08BF20EA24
:10083000D37070BD94F0000F0FD101F0004640005E
:1008400041EB010111F4801F08BF013CF7D041EAE0
:10085000060195F0000F18BF704703F000465200E4
:1008600043EB030313F4801F08BF013DF7D043EAB5
:100870000603704794EA0C0F0CEA135518BF95EA6B
:100880000C0F0CD050EA410618BF52EA4306D1D1F2
:1008900081EA030101F000414FF0000070BD50EA11
:1008A000410606BF1046194652EA430619D094EA9B
:1008B0000C0F02D150EA013613D195EA0C0F05D185
:1008C00052EA03361CBF104619460AD181EA0301D9
:1008D00001F0004141F0FE4141F470014FF0000091
:1008E00070BD41F0FE4141F4780170BD70B54FF02C
:1008F000FF0C4CF4E06C1CEA11541DBF1CEA1355AC
:1009000094EA0C0F95EA0C0F00F0A7F8A4EB05048D
:1009100081EA030E52EA03354FEA013100F0888084
:100920004FEA03334FF0805545EA131343EA12634D
:100930004FEA022245EA111545EA10654FEA002602
:100940000EF000419D4208BF964244F1FD0404F5BB
:10095000407402D25B084FEA3202B61A65EB030517
:100960005B084FEA32024FF480104FF4002CB6EBD4
:10097000020E75EB030E22BFB61A754640EA0C0054
:100980005B084FEA3202B6EB020E75EB030E22BF94
:10099000B61A754640EA5C005B084FEA3202B6EBD5
:1009A000020E75EB030E22BFB61A754640EA9C0094
:1009B0005B084FEA3202B6EB020E75EB030E22BF64
:1009C000B61A754640EADC0055EA060E18D04FEA22
:1009D000051545EA16754FEA06164FEAC30343EAC2
:1009E00052734FEAC2025FEA1C1CC0D111F4801F8F
:1009F0000BD141EA00014FF000004FF0004CB6E788
:100A000011F4801F04BF01430020B4F1FD0C88BF26
:100A1000BCF5E06F3FF6AFAEB5EB030C04BFB6EB31
:100A2000020C5FEA500C50F1000041EB045170BD24
:100A30000EF0004E4EEA113114EB5C04C2BFD4EB51
:100A40000C0541EA045170BD41F480114FF0000ED5
:100A5000013C90E645EA060E8DE60CEA135594EA51
:100A60000C0F08BF95EA0C0F3FF43BAF94EA0C0F54
:100A70000AD150EA01347FF434AF95EA0C0F7FF4C9
:100A800025AF104619462CE795EA0C0F06D152EA1D
:100A900003353FF4FDAE1046194622E750EA410601
:100AA00018BF52EA43067FF4C5AE50EA41047FF412
:100AB0000DAF52EA43057FF4EBAE12E74FF0FF3C77
:100AC00006E000BF4FF0010C02E000BF4FF0010C48
:100AD0004DF804CD4FEA410C7FEA6C5C4FEA430CC1
:100AE00018BF7FEA6C5C1BD001B050EA410C0CBF10
:100AF00052EA430C91EA030F02BF90EA020F002072
:100B0000704710F1000F91EA030F58BF994208BFD8
:100B100090422CBFD8176FEAE37040F00100704795
:100B20004FEA410C7FEA6C5C02D150EA013C07D1EC
:100B30004FEA430C7FEA6C5CD6D152EA033CD3D037
:100B40005DF8040B704700BF8446104662468C4631
:100B50001946634600E000BF01B5FFF7B7FF002864
:100B600048BF10F1000F01BD4DF808EDFFF7F4FF8D
:100B70000CBF012000205DF808FB00BF4DF808ED18
:100B8000FFF7EAFF34BF012000205DF808FB00BF3B
:100B90004DF808EDFFF7E0FF94BF012000205DF85D
:100BA00008FB00BF4DF808EDFFF7CEFF94BF012012
:100BB00000205DF808FB00BF4DF808EDFFF7C4FF0B
:100BC00034BF012000205DF808FB00BF2DE9F04193
:100BD00088B000240494059406940794374B9A69CE
:100BE00042F010029A619A6902F010020092009A93
:100BF0009A6942F020029A619A6902F020020192F9
:100C0000019A9A6942F004029A619A6902F0040218
:100C10000292029A9A6942F008029A619B6903F073
:100C200008030393039B264E224642F238113046B6
:100C300001F07DFC234F22464FF48061384601F0DD
:100C400076FC4FF4404304930594069404A91E488F
:100C500001F070FB012504950594069404A91B4836
:100C600001F068FB48F2404304930594069404A9FC
:100C7000304601F05FFB42F2381304930595069469
:100C80004FF00208CDF81C8004A9304601F052FB59
:100C90004FF48063049305950694CDF81C8004A955
:100CA000384601F047FB0A4A536843F0E06343F4D7
:100CB0000043536008B0BDE8F08100BF001002405F
:100CC000000C0140000801400010014000140140E8
:100CD0000000014008B50B480B4B03604FF48273D2
:100CE000436000238360C360036143614FF480224B
:100CF0008261C3610362436283620A23C36200F0BC
:100D000065FE08BDF4000020003001402DE9F041EF
:100D10002A4D2B4B2B600026AE60EE606E614FF4C7
:100D20006023EB616E6006272F61284601F04EFFBD
:100D3000244C26604FF00108C4F80480A6602146C8
:100D4000284601F0CBFDC4F80080022666602146EB
:100D5000284601F0C3FD2146284601F0BFFD0323CC
:100D6000236063602146284601F0B8FD21462846ED
:100D700001F0B4FD2660042363602146284601F09B
:100D8000ADFD2146284601F0A9FD08232360052377
:100D900063602146284601F0A1FD2146284601F066
:100DA0009DFD0923236067602146284601F096FDDA
:100DB0002146284601F092FDBDE8F0819C0000200C
:100DC000002401403400002010B51448144B036087
:100DD0000223436000248460C4604FF42023036135
:100DE0004FF440134361047644768476C4760477E6
:100DF000447700F069FB0B4BD0221A6001225A6045
:100E0000DC609C60082119611C75074BD1211960B9
:100E10005A60DC609C601A611C7510BD5000002097
:100E200000640040D80000208000002010B5034678
:100E300010B900211A4A1160012B1CD0022B1ED0C0
:100E4000032B20D0082B22D0092B24D014490123B6
:100E50004B608B60134C204601F040FD204601F0B2
:100E600019FE4FF47A71204601F0F4FB204601F0A0
:100E7000A9FC80B210BD0121094A1160DEE7022100
:100E8000074A1160DCE70321054A1160DAE708210F
:100E9000034A1160D8E70922014B1A60D6E700BF68
:100EA000340000209C00002010B50220FFF7BEFF98
:100EB000084C20800820FFF7B9FF074B18802388D3
:100EC0001BB1502803DC002010BD002010BD012004
:100ED00010BD00BFCC0000209800002000000000E2
:100EE0002DE9F843284B1888FFF760FB04460D46B0
:100EF000264B1888FFF75AFB06460F46244B1888E6
:100F0000FFF764FB1EA3D3E90023FFF7C5FB0246EE
:100F10000B4620462946FFF70BFA804689463246A3
:100F20003B46FFF705FA05460C46002200232846FB
:100F30002146FFF723FEE8B942464B463046394684
:100F4000FFF7F8F90022134BFFF7A6FB06460F4602
:100F50000022114B28462146FFF79EFB32463B46B6
:100F6000FFF7C4FC00220D4BFFF71CFE28B9002040
:100F7000BDE8F88304F10044DEE70120BDE8F88312
:100F80007B14AE47E17AB43F980000204000002077
:100F9000080000200000E03F00005940000024400D
:100FA00010B50820FFF742FF104B18800920FFF70B
:100FB0003DFF0F4B18804FF47A720E4B1A6009E018
:100FC0000820FFF733FF094B18800920FFF72EFF99
:100FD000074B1880074B1C681CB1FFF781FF0028E6
:100FE000EED10CB1002010BD012010BD98000020F2
:100FF000400000205001002008B5094A094B1B7829
:101000001370094B1B785370084B1B789370084B77
:101010001B78D370074B0849084800F029FB08BD2E
:101020000000002049000020780000204800002037
:10103000540100204C000020D80000205000002067
:1010400008B5034B034A0449044800F011FB08BDEE
:1010500044000020300000208000002050000020CC
:10106000034B1B78834201D2014B1870704700BFBD
:101070003000002008B501211B4801F051FA30BBB7
:10108000FF221A4B1A704FF48041194801F048FAB8
:1010900008BBFF22174B1A704FF40041144801F0AF
:1010A0003FFAE0B9FF22144B1A70134B1B782BB98F
:1010B000104B1B7813B90D4B1B783BB101220F4B22
:1010C0001A70002228210E4801F031FA08BD0022D2
:1010D000064B1A70D7E70022064B1A70DCE7002295
:1010E000054B1A70E1E700BF0014014048000020E2
:1010F000001001407800002049000020300000204E
:10110000000C014030B595B0282200210DEB020003
:10111000FFF790F800240594069407940894099426
:10112000019402940394049402250A9501230E93DA
:1011300010230F930AA800F0EBFC0F2305930694ED
:10114000079408940994214605A800F007FF01952B
:10115000039401A800F0E6FF15B030BD08B5434A7E
:10116000434B1A60434A444B1A604FF4FA72434BA4
:101170001A6000F093FCFFF7C5FFFFF727FDFFF7AC
:10118000A9FDFFF7C3FDFFF71FFE3D4800F042FA3F
:1011900042E00220FFF764FF4FF40041394801F0BC
:1011A000BFF900283ED10420FFF75AFF0220FFF7C5
:1011B0003DFE354B1880354B1B78042B10D02E4B41
:1011C0001B687BBB314B1B7813F0280F2AD0002201
:1011D00008212C4801F0ABF91020FFF741FF21E076
:1011E00040F6B832244B1A600820FFF739FF01227D
:1011F0004FF49C71234801F09AF9E0E700224FF484
:101200008871204801F093F92022204B1A70FFF7D3
:1012100031FF1A4B1B68FBB140211A4801F080F9DD
:101220000128B6D0194B1B78072BF0D9FFF73CFEED
:101230000028E3D1FFF7B4FE0028DFD1134B1B7861
:10124000202BE4D11022114B1A7001224FF4887127
:101250000C4801F06CF9DAE7FFF7CEFEFFF7F0FE7D
:101260004FF4FA72054B1A60D6E700BFA086010062
:1012700050010020C0C62D007C000020D0000020BE
:1012800050000020000C0140CC0000203000002065
:101290007047FEE7FEE7FEE7FEE7704770477047DE
:1012A00008B50A4B1B6813B1013B084A1360084B91
:1012B0001B6813B1013B064A1360064B1B6813B150
:1012C000013B044A136000F0FBFB08BD5001002005
:1012D0007C000020D000002008B5024801F077FA19
:1012E00008BD00BF9C00002008B5024800F042FA8B
:1012F00008BD00BF5000002082B00E4B9A6942F03A
:1013000001029A619A6902F001020092009ADA6978
:1013100042F08052DA61DB6903F080530193019B54
:10132000054A536823F0E06343F08063536002B0E2
:10133000704700BF001002400000014010B588B0A7
:101340000023049305930693079302681C4B9A426B
:1013500001D008B010BD03F56C439A6942F40072E5
:101360009A619A6902F400720192019A9A6942F0B4
:1013700004029A619A6902F004020292029A9A693E
:1013800042F008029A619B6903F008030393039BF0
:101390000F2304930324059404A90A4800F0CAFF0C
:1013A0000494059404A9084800F0C4FF00221146E3
:1013B000122001F0D5F8122001F004F9C9E700BFAE
:1013C0000024014000080140000C014030B587B006
:1013D0000023029303930493059302681B4B9A42E4
:1013E00001D007B030BD03F5D633DA6942F00072A0
:1013F000DA61DA6902F000720092009A9A6942F0AA
:1014000004029A619B6903F004030193019B06ACFB
:101410004FF4006344F8103D0D4D2146284600F07E
:1014200089FF4FF480530293022303930323059310
:101430002146284600F07EFF00221146142001F0CC
:101440008FF8142001F0BEF8CBE700BF0064004025
:101450000008014010B586B0002302930393049363
:1014600005930268164B9A4201D006B010BD03F5F1
:1014700060439A6942F480529A619A6902F48052F8
:101480000092009A9A6942F004029A619B6903F003
:1014900004030193019BB0230293022303930323CC
:1014A0000593084C02A9204600F044FF4023029314
:1014B00000230393049302A9204600F03BFFD4E7E6
:1014C0000030014000080140002800F0A18038B53C
:1014D000044690F82030D3B12268136823F0020349
:1014E000136000F0F9FA054623685A6812F0020FFB
:1014F00010D000F0F1FA401B0A28F5D9636A43F4D2
:1015000000336362052384F82030012038BDFFF7E3
:101510005DFFE1E71A6842F001021A6000F0DCFAB0
:10152000054623685A6812F0010F0DD100F0D4FA75
:10153000401B0A28F5D9636A43F40033636205232C
:1015400084F82030012038BD227E012A3DD01A685F
:1015500022F080021A60637E012B3BD02268136860
:1015600023F040031360A37E012B39D02268136857
:1015700023F020031360E37E012B37D02268136829
:1015800043F010031360237F012B35D022681368CA
:1015900023F008031360637F012B33D022681368A4
:1015A00023F0040313602168A368E26813432269EF
:1015B0001343626913436268013A1343CB6100200D
:1015C0006062012384F8203038BD1A6842F080023E
:1015D0001A60C0E72268136843F040031360C2E753
:1015E0002268136843F020031360C4E7226813687D
:1015F00023F010031360C6E72268136843F0080362
:101600001360C8E72268136843F004031360CAE755
:101610000120704738B590F82030DBB2012B05D09F
:10162000436A43F400234362012038BD0446022389
:1016300080F820300268136823F00103136000F083
:101640004BFA054623685B6813F0010F0DD000F0DC
:1016500043FA401B0A28F5D9636A43F400336362F6
:10166000052384F82030012038BD0020606238BD99
:1016700070B490F820400568AD68013CE4B2012CDC
:1016800006D9436A43F480234362012070BC70474B
:1016900015F0E05F5BD0C5F30165022D3ED8012453
:1016A000AC401C608B68002B3ED104680E68CB6890
:1016B00043EA465605F118031B01E65003680C691E
:1016C00005F1180603EB06135C600B7D012B36D089
:1016D0000468D17993791B0443EA0163517943EAA1
:1016E000012311790B432E013444C4F88C31016875
:1016F000D47893781B0443EA0463547843EA0423C0
:10170000127813433144C1F88831026818352D012D
:10171000535943F0010353510020B7E7436A43F4A0
:10172000000343620120B1E704684E6843EAC60340
:10173000CE68334305F118063601A351BEE70368AE
:1017400003EB0613596841F480715960C0E7436A9E
:1017500043F400134362012098E7704770477047D5
:1017600070477047704770477047704770477047C1
:10177000704770472DE9F84F054603685C695F685C
:101780009E68D3F80C90D3F81080D3F818A014F00A
:10179000010F5AD016F0010F17D001229A6016F0EF
:1017A000020F08D116F0040F30D116F0080F07D041
:1017B0004FF4805B0BE0FFF7D0FF4FF0000B06E02B
:1017C000FFF7CEFF4FF0000B01E04FF0000B16F4D7
:1017D000807F0BD02B684FF480729A6016F4007FE4
:1017E00017D116F4806F18D04BF4005B16F4803FCD
:1017F0002DD02B684FF480329A6016F4003F16D13A
:1018000016F4802F17D04BF4004B20E04FF4006B00
:10181000DDE72846FFF7A2FFE8E716F4006F02D0E5
:101820004BF4804BE2E72846FFF79BFFDEE72846B4
:10183000FFF795FF0BE016F4002F02D04BF4803B2E
:1018400005E02846FFF78EFF01E04FF0000B14F093
:10185000080F07D019F0100F04D04BF4007B2B6851
:101860001022DA6014F0040F02D019F0080F60D1D2
:1018700014F0020F04D02B68DB6813F0030F5FD164
:1018800014F0400F07D018F0100F04D04BF4806B09
:101890002B6810221A6114F0200F02D018F0080FE4
:1018A00052D114F0100F04D02B681B6913F0030FF2
:1018B00051D114F4003F02D017F0100F4FD114F49F
:1018C000803F02D017F0080F50D114F4004F67D0BA
:1018D00017F0040F61D014F4807F04D01AF0010FC8
:1018E00001D04BF0010B14F4007F04D01AF0020F6A
:1018F00001D04BF0020B14F4806F04D01AF0040FE7
:1019000001D04BF0040B14F4006F46D01AF0700AAB
:1019100043D0BAF1300F48D02FD9BAF1500F47D089
:10192000BAF1600F47D0BAF1400F31D14BF0400B04
:101930002EE02B680822DA602846FFF715FF97E7AC
:101940002846FFF710FF9BE72B6808221A612846FC
:10195000FFF70CFFA5E72846FFF707FFA9E72B686D
:1019600010225A602846FFF702FFA8E72B680822DA
:101970005A602846FFF7FCFEA7E7BAF1100F05D022
:10198000BAF1200F04D14BF0100B01E04BF0080B23
:101990002A68936923F0700393612B6804225A60CC
:1019A000BBF1000F0AD1BDE8F88F4BF0200BEFE739
:1019B0004BF0800BECE74BF4807BE9E76B6A4BEA7A
:1019C00003036B622846FFF7D4FEECE700283CD007
:1019D00010B504460023836290F85130002B31D0BB
:1019E000022384F851302268136823F04003136007
:1019F00022686368A1680B43E1680B4321690B43CC
:101A000061690B43A16901F400710B43E1690B4368
:101A1000216A0B43A16A0B4313602268638B03F0B6
:101A20000403616A0B4353602368E26A1A61226807
:101A3000D36923F40063D36100206065012384F837
:101A4000513010BDFFF706FDCAE7012070470000C6
:101A500010B504460E4B18784FF47A73B3FBF0F3CD
:101A60000C4A1068B0FBF3F000F0B8FD68B90F2C19
:101A700001D9012010BD002221464FF0FF3000F0B7
:101A80006FFD054B1C60002010BD012010BD00BF84
:101A90000A000020100000200C00002008B5074AB2
:101AA000136843F010031360032000F047FD00208B
:101AB000FFF7CEFFFFF720FC002008BD002002400A
:101AC000034A1168034B1B780B441360704700BF37
:101AD000580100200A000020014B1868704700BF21
:101AE0005801002082B0084B1B68084AA2FB032360
:101AF0005B0A00FB03F0019000BF019B5A1E01929C
:101B0000002BF9D102B0704710000020D34D6210B5
:101B100070B582B00446036813F0010F3DD0AC4BA2
:101B20005B6803F00C03042B2ED0A94B5B6803F019
:101B30000C03082B23D06368B3F5803F51D0002BF2
:101B400055D103F1804303F504331A6822F480323F
:101B50001A601A6822F480221A606368002B60D031
:101B6000FFF7BAFF05469A4B1B6813F4003F14D1E8
:101B7000FFF7B2FF401B6428F5D90320AFE1944B77
:101B80005B6813F4803FD6D0914B1B6813F4003F81
:101B900003D06368002B00F09F81236813F0020FCD
:101BA00065D08B4B5B6813F00C0F4ED0884B5B6895
:101BB00003F00C03082B43D02369002B79D00122BA
:101BC000844B1A60FFF788FF0546814B1B6813F0B2
:101BD000020F65D1FFF780FF401B0228F5D90320D3
:101BE0007DE17B4A136843F480331360B5E7B3F5B6
:101BF000A02F09D0764B1A6822F480321A601A6836
:101C000022F480221A60A8E703F18043A3F53C3355
:101C10001A6842F480221A601A6842F480321A600C
:101C20009BE7FFF759FF0546694B1B6813F4003F1C
:101C3000B3D0FFF751FF401B6428F5D903204EE1D4
:101C4000634B5B6813F4803FB6D1614B1B6813F0A4
:101C5000020F04D02369012B01D001203FE15C4A2F
:101C6000136823F0F803616943EAC1031360236832
:101C700013F0080F32D0A369002B6ED00122564B0F
:101C80001A60FFF729FF0546514B5B6A13F0020FFC
:101C900021D1FFF721FF401B0228F5D903201EE1C7
:101CA0004B4A136823F0F803616943EAC1031360E8
:101CB000DDE70022474B1A60FFF70EFF0546444B55
:101CC0001B6813F0020FD2D0FFF706FF401B02285B
:101CD000F5D9032003E10120FFF704FF236813F087
:101CE000040F00F099803A4BDB6913F0805F46D116
:101CF000374BDA6942F08052DA61DB6903F08053D6
:101D00000193019B0125354B1B6813F4807F38D06C
:101D1000E368012B49D0002B4DD103F1804303F53B
:101D200004331A6A22F001021A621A6A22F00402CB
:101D30001A62E368002B5DD0FFF7CEFE0646244B07
:101D40001B6A13F0020F66D1FFF7C6FE801B41F23B
:101D500088339842F3D90320C1E000221E4B1A6059
:101D6000FFF7BAFE05461A4B5B6A13F0020FB5D0B7
:101D7000FFF7B2FE401B0228F5D90320AFE0002593
:101D8000C1E7164A136843F480731360FFF7A4FE9B
:101D90000646124B1B6813F4807FB9D1FFF79CFEF7
:101DA000801B6428F5D9032099E0094A136A43F09F
:101DB00001031362BDE7052B12D0054B1A6A22F00E
:101DC00001021A621A6A22F004021A62B1E700BF25
:101DD0000010024000004242800442420070004075
:101DE000414B1A6A42F004021A621A6A42F0010276
:101DF0001A629EE7FFF770FE06463B4B1B6A13F024
:101E0000020F08D0FFF768FE801B41F2883398422A
:101E1000F3D9032063E0E5B9E369002B5ED0324AD1
:101E2000526802F00C02082A5BD0022B17D0002265
:101E30002E4B1A60FFF750FE04462B4B1B6813F025
:101E4000007F47D0FFF748FE001B0228F5D903208A
:101E500045E0254AD36923F08053D361DCE70022B3
:101E6000224B1A60FFF738FE05461F4B1B6813F024
:101E7000007F06D0FFF730FE401B0228F5D9032073
:101E80002DE0236AB3F5803F1AD017494B6823F43D
:101E90007413226A606A024313434B600122134B9E
:101EA0001A60FFF719FE04460F4B1B6813F0007F02
:101EB0000ED1FFF711FE001B0228F5D903200EE01A
:101EC000094A536823F40033A1680B435360DCE7ED
:101ED000002004E0002002E0012000E0002002B029
:101EE00070BD0120FBE700BF0010024060004242CD
:101EF00010B586B0154C94E80F000DF1180E0EE9E0
:101F00000F00238AADF80430114B5B6803F00C021C
:101F1000082A18D1C3F38342724412F8102C13F428
:101F2000803F03D10B4800FB02F00DE0084B5B68DB
:101F3000C3F34043734413F8143C074800FB02F01A
:101F4000B0FBF3F000E0044806B010BD442D0008DB
:101F50000010024000093D0000127A00624B1B682D
:101F600003F007038B420CD25F4A136823F0070388
:101F70000B431360136803F00703994201D001205B
:101F8000704770B5036813F0020F17D013F0040FF9
:101F900004D0564A536843F4E0635360036813F077
:101FA000080F04D0514A536843F4605353604F4ABA
:101FB000536823F0F0038468234353600D460446BE
:101FC000036813F0010F52D04368012B23D0022B7A
:101FD00028D0464A126812F0020F00F0828043496E
:101FE0004A6822F0030213434B60FFF775FD064673
:101FF0006368012B1DD0022B2AD03C4B5B6813F089
:102000000C0F34D0FFF768FD801B41F288339842F3
:10201000F3D9032070BD354A126812F4003FDED1B7
:10202000012070BD314A126812F0007FD7D1012023
:1020300070BD2E4B5B6803F00C03042B17D0FFF729
:102040004BFD801B41F288339842F2D9032070BDCA
:10205000264B5B6803F00C03082B08D0FFF73CFD10
:10206000801B41F288339842F2D9032070BD1E4B89
:102070001B6803F007039D420CD21B4A136823F030
:1020800007032B431360136803F007039D4201D03D
:10209000012070BD236813F0040F06D0134A536863
:1020A00023F4E063E1680B435360236813F0080FE7
:1020B00007D00E4A536823F46053216943EAC103F1
:1020C0005360FFF715FF094B5B68C3F30313084A1E
:1020D000D35CD840074B18600020FFF7B9FC002004
:1020E00070BD012070BD00BF002002400010024002
:1020F0006C2D000810000020014B1868704700BFCD
:102100001000002008B5FFF7F7FF044B5B68C3F32E
:10211000C223034AD35CD84008BD00BF0010024070
:102120007C2D000870B582B00446036813F0010FDF
:1021300034D03E4BDB6913F0805F48D13B4BDA690A
:1021400042F08052DA61DB6903F080530193019B16
:102150000125374B1B6813F4807F3AD0334B1B6A41
:1021600013F4407311D0626802F4407293420CD0B1
:102170002E4A136A23F440702E4901260E60002671
:102180000E60106213F0010F37D1284A136A23F44E
:10219000407361680B431362002D3FD1236813F035
:1021A000020F06D0214A536823F44043A1680B4331
:1021B0005360236813F0100F35D01C4A536823F482
:1021C0008003E1680B435360002002B070BD00251E
:1021D000BFE7174A136843F480731360FFF77CFC72
:1021E0000646134B1B6813F4807FB7D1FFF774FCCE
:1021F000801B6428F5D90320E7E7FFF76DFC06464E
:102200000A4B1B6A13F0020FBFD1FFF765FC801B5E
:1022100041F288339842F3D90320D6E7D36923F0FB
:102220008053D361BAE70020CFE700BF001002401F
:10223000007000404004424230B587B00546384C3B
:1022400094E80F000DF1180E0EE90F00238AADF887
:102250000430022D53D0102D03D0012D2BD000209F
:1022600057E0304B5A681B6813F0807F53D0C2F39D
:10227000834306A90B4413F8100C12F4803F16D0C8
:10228000284B5B68C3F340430B4413F8142C264BD4
:10229000B3FBF2F303FB00F0224B5B6813F4800FF7
:1022A00037D14000214BA3FB0030400831E0204BE8
:1022B00003FB00F0F0E71B4B1B6A40F202321A40AE
:1022C000B2F5817F29D003F44073B3F5007F04D0C9
:1022D000B3F5407F09D000201BE0124A526A12F089
:1022E000020FF5D049F6404013E00E4B1B6813F483
:1022F000003F02D04FF224400BE0002009E0FFF73E
:1023000001FF084B5B68C3F3813301335B00B0FB13
:10231000F3F007B030BD0020FBE74FF40040F8E7D2
:10232000582D00080010024000127A00ABAAAAAA99
:1023300000093D00F0B583B00026344671E0002D61
:1023400000F0A180012D00D1CE68FF2B00F2AF80FC
:102350008646FF2B00F2AE80A500DEF800200F2796
:10236000AF4022EA070206FA05F52A43CEF800201C
:102370004A6812F0805F53D0634A956945F00105C1
:102380009561926902F001020192019AA508AF1CC1
:102390005E4A52F8272004F00307BF004FF00F0EEB
:1023A0000EFA07FE22EA0E02DFF870E1704500F037
:1023B00088800EF5806E704500F086800EF5806E88
:1023C000704500F084800EF5806E704576D04FF039
:1023D000040E0EFA07F73A4302354C4F47F8252012
:1023E0004A6812F4803F75D0494D2A681A432A6022
:1023F0004A6812F4003F73D0454D6A681A436A6018
:102400004A6812F4801F71D0414DAA681A43AA602D
:102410004A6812F4001F6FD03D4DEA681343EB6029
:1024200001340F2C6ED80122A2400B6813409A424F
:10243000F6D14D68122D30D00BD8022D2AD07FF660
:102440007EAF032D2FD0112D7FF47FAFCE680436E1
:102450007BE7304FBD4216D00CD92F4FBD4212D072
:1024600007F58037BD420ED0A7F58017BD427FF437
:102470006CAF08E0A7F58017BD4204D007F58037A0
:10248000BD427FF462AF8D687DB1012D08D04261FD
:1024900008265AE7CE68083657E7CE680C3654E768
:1024A0000261082651E700264FE704264DE700F1B8
:1024B000040E4EE7A4F10805AD004EE74FF0030E01
:1024C00087E74FF0000E84E74FF0010E81E74FF0F1
:1024D000020E7EE70E4D2A6822EA03022A6087E791
:1024E0000B4D6A6822EA03026A6089E7084DAA6810
:1024F00022EA0302AA608BE7054DEA6822EA030399
:10250000EB608DE703B0F0BD001002400000014019
:1025100000040140000021100000311000080140BB
:102520008368194201D1002070470120704712B919
:10253000090401617047016170470000074AD368D0
:1025400023F4E0631B041B0C000200F4E06018435A
:1025500040F0BF6040F40030D060704700ED00E014
:1025600030B4164BDB68C3F30223C3F10704042C19
:1025700028BF04241D1D062D17D9033B012505FA8C
:1025800004F4013C2140994005FA03F3013B134058
:10259000194300280BDB0901C9B200F1604000F5C6
:1025A000614080F8001330BC70470023E6E700F07C
:1025B0000F000901C9B2024B1954F4E700ED00E025
:1025C00014ED00E0420900F01F00012303FA00F0BF
:1025D000014B43F82200704700E100E00138B0F100
:1025E000807F0AD2064B5860F021064A82F82310F9
:1025F0000020986007221A6070470120704700BFD2
:1026000010E000E000ED00E00F4B1A6842F001021C
:102610001A6059680D4A0A405A601A6822F084729A
:1026200022F480321A601A6822F480221A605A68F2
:1026300022F4FE025A604FF41F029A604FF00062CB
:10264000034B9A60704700BF001002400000FFF883
:1026500000ED00E0F0B583B005460C460023019381
:10266000FFF73AFA2B689A6812F4807F23D1064666
:102670005A6812F4807F03D1DB6A13F4700F24D000
:102680004B4B1F680220FFF7D7FDB7FBF0F72B6815
:102690001969484A11422FD1D96802F15C421142AE
:1026A0002AD11969444A114239D1DA68434B1A4296
:1026B00037D029203AE0AB6A43F02003AB62002315
:1026C00085F82430012003B0F0BD2B681B6813F09F
:1026D000020F48D1B4F1FF3FF7D024B1FFF7FCF966
:1026E000801B8442F1D2AB6A43F00403AB62002347
:1026F00085F824300320E6E719692F4A114204D1F6
:10270000D96802F16E4211420DD019692C4A0A4073
:102710005AB9DA682A4B13405BB1FC2006E0292045
:1027200004E0142002E0542000E0FC2007FB00F746
:1027300004E05420FAE7019B01330193019B9F427F
:1027400011D9B4F1FF3FF6D024B1FFF7C5F9801BD2
:102750008442F0D2AB6A43F00403AB62002385F8F5
:1027600024300320AFE72B686FF012021A60AB6AC7
:1027700043F40073AB622B689B6803F46023B3F5EA
:10278000602F01D000209EE7EB686BB9AB6A23F4A1
:102790008073AB62AB6A13F4805F07D1AB6A43F01E
:1027A0000103AB6200208EE700208CE700208AE75F
:1027B00010000020244992249224491292244900B6
:1027C000499224000368D86C70477047704710B571
:1027D000044603685A6812F0200F18D01A6812F0E5
:1027E000020F14D0826A12F0100F03D1826A42F4F1
:1027F000007282629A6802F46022B2F5602F38D0CB
:102800002046FFF7E2FF23686FF012021A60236888
:102810005A6812F0800F22D01A6812F0040F1ED0EE
:10282000A26A12F0100F03D1A26A42F40052A2620F
:102830009A6802F4E042B2F5E04F31D05A6812F4DF
:10284000806F05D19A6802F46022B2F5602F24D01F
:10285000204600F043FA23686FF00C021A602368E8
:102860005A6812F0400F03D01B6813F0010F28D1F3
:1028700010BDE268002AC3D15A6822F020025A60D3
:10288000A36A23F48073A362A36A13F4805FB7D1B1
:10289000A36A43F00103A362B2E7E268002AD7D13A
:1028A0005A6822F080025A60A36A23F48053A3621C
:1028B000A36A13F4807FCBD1A36A43F00103A36220
:1028C000C6E7A36A43F48033A3622046FFF77EFF86
:1028D00023686FF001021A60CAE7000030B482B0CA
:1028E0000023019390F82430012B00F08B800246E6
:1028F000012380F824304B68062B29D80568686BC3
:1029000003EB8303053B1F249C4020EA04000C6872
:1029100004FA03F303436B630B68092B38D915687A
:10292000E86803EB43031E3B07249C4020EA0400B5
:102930008C6804FA03F30343EB600B68103B012B34
:1029400034D90020002382F8243002B030BC704714
:102950000C2B0ED80568286B03EB8303233B1F2445
:102960009C4020EA04000C6804FA03F303432B6341
:10297000D2E70568E86A03EB8303413B1F249C40D0
:1029800020EA04000C6804FA03F30343EB62C3E794
:102990001568286903EB430307249C4020EA0400E0
:1029A0008C6804FA03F303432B61C6E713681648E7
:1029B000834205D0936A43F0200393620120C1E76C
:1029C000986810F4000F1BD1986840F400009860DC
:1029D0000B68102B01D00020B4E70C4B1B680C498E
:1029E000A1FB03139B0C03EB83035900019102E04D
:1029F000019B013B0193019B002BF9D10020A1E732
:102A000000209FE70220A0E70024014010000020E2
:102A100083DE1B4330B583B00023019303689A68BB
:102A200012F0010F2ED19A6842F001029A60174B02
:102A30001B68174AA2FB03239B0C019302E0019B36
:102A4000013B0193019B002BF9D10446FFF744F8A9
:102A5000054623689B6813F0010F11D1FFF73CF87E
:102A6000401B0228F5D9A36A43F01003A362E36A6E
:102A700043F00103E362002384F82430012002E0E4
:102A8000002000E0002003B030BD00BF1000002097
:102A900083DE1B4390F82430012B02D10223184619
:102AA000704710B50446012380F82430FFF7B2FFC9
:102AB000034600285BD1A26A22F4407222F0010290
:102AC00042F48072A26222682B498A4227D0A16A0E
:102AD00021F48011A162516811F4806F05D0A16AC0
:102AE00021F4405141F48051A162A16A11F4805F48
:102AF0002BD0E16A21F00601E162002184F8241064
:102B00006FF0020111602268916801F46021B1F553
:102B1000602F1DD0916841F4801191602AE0A1F5E9
:102B20008061496811F4702FD1D0A16A41F48011FD
:102B3000A1621249496811F4806FD6D0A16A21F4CC
:102B4000405141F48051A162CFE70021E162D4E716
:102B500009498A4204D0916841F4A001916009E0DA
:102B6000A1F58061496811F4702FD3D1F3E70022F9
:102B700084F82420184610BD00280140002401409C
:102B800038B503689A6812F0010F01D1002038BDF2
:102B900004469A6822F001029A60FEF79DFF0546FE
:102BA00023689B6813F0010F0ED0FEF795FF401BC2
:102BB0000228F5D9A36A43F01003A362E36A43F045
:102BC0000103E362012038BD002038BD00287FD01A
:102BD00038B50446836A002B4AD02046FFF7D0FF61
:102BE000A36A13F010036DD100286BD1A26A22F4FE
:102BF000885222F0020242F00202A2626268E16997
:102C00000A43E56842EA4502A168B1F5807F38D001
:102C1000012933D06169012936D02568696821F41A
:102C200069410B436B6021688D682A4B2B4013432D
:102C30008B60A368B3F5807F37D0012B35D000239C
:102C40002568E96A21F470010B43EB6223689968F7
:102C5000214B0B409A422CD0A36A23F0120343F07D
:102C60001003A362E36A43F00103E362012038BD6D
:102C7000C36280F82430FEF761FBAEE74FF4807347
:102C8000C8E74FF48073C5E735B9A169013943EA54
:102C9000413343F40063C0E7A16A41F02001A1621F
:102CA000E16A41F00101E162B7E72369013B1B05DD
:102CB000C6E70023E362A36A23F0030343F00103A2
:102CC000A36238BDA36A43F01003A362012038BD9C
:102CD00001207047FDF7E1FFFE0E1FFF7047000067
:102CE000002103E00B4B5B58435004310A480B4B67
:102CF00042189A42F6D30A4A02E0002342F8043B03
:102D0000084B9A42F9D3FFF77FFCFDF753FAFEF721
:102D100025FA70478C2D00080000002014000020C8
:102D2000140000205C010020FEE70000F8B500BFA1
:102D3000F8BC08BC9E467047F8B500BFF8BC08BC9C
:042D40009E467047F4
:102D440002030405060708090A0B0C0D0E0F1010E8
:102D54000102000002030405060708090A0B0C0D12
:102D64000E0F10100102000000000000000000001F
:102D7400010203040607080900000000010203041D
:042D84007D010008C5
:042D880055010008E9
:102D8C0055555555555555550A0001001000000074
:042D9C0000A24A0443
:0400000508002CE1E2
:00000001FF
