:020000040800F2
:100000000050002099280008A1060008A306000857
:10001000A5060008A7060008A906000800000000C1
:10002000000000000000000000000000AB06000817
:10003000AD06000800000000AF060008B106000889
:10004000E1280008E1280008E1280008E12800086C
:10005000E1280008E1280008E1280008E12800085C
:10006000E1280008E1280008E1280008E12800084C
:10007000E1280008E1280008E1280008E12800083C
:10008000E1280008E1280008E1280008E12800082C
:10009000B9060008E1280008E1280008E128000866
:1000A000E1280008E1280008E1280008E12800080C
:1000B000E1280008E1280008E1280008E1280008FC
:1000C000E1280008E1280008E1280008E1280008EC
:1000D000E1280008E1280008E1280008E1280008DC
:1000E000E1280008E1280008E128000800000000DD
:1000F0000000000000000000000000000000000000
:0C01000000000000000000005FF808F1A3
:10010C0010B5054C237833B9044B13B10448AFF345
:10011C0000800123237010BD74000020000000003B
:10012C00002B000808B5034B1BB103490348AFF380
:10013C00008008BD0000000078000020002B0008A3
:10014C002DE9F04389B00024049405940694079497
:10015C00334B9A6942F010029A619A6902F01002CC
:10016C000092009A9A6942F020029A619A6902F010
:10017C0020020192019A9A6942F004029A619A69EA
:10018C0002F004020292029A9A6942F008029A6101
:10019C009B6903F008030393039BDFF88C902246C2
:1001AC004FF40051484601F00BFFDFF880802246E7
:1001BC004FF48871404601F003FF1A4D22464FF46C
:1001CC000071284601F0FCFE4FF400530493012704
:1001DC00059706940226079604A9484601F006FEE8
:1001EC004FF48873049305970694079604A9404628
:1001FC0001F0FCFD282304930594069404A92846D9
:10020C0001F0F4FD4FF400730493059706940796E0
:10021C0004A9284601F0EAFD09B0BDE8F08300BF4F
:10022C0000100240000C0140001001400008014089
:10023C0070B584B000250195029503950C4C0D4BBF
:10024C002360A560E56065614FF46023E361656040
:10025C0001262661204600F0D3FB08230193029669
:10026C00039501A9204600F009FB04B070BD00BF46
:10027C00E80000200024014038B5144C144B2360D6
:10028C00012363600025A5604FF08073E3604FF499
:10029C00402323614FF48013636125766576A57640
:1002AC00E57625776577204600F032FC094B40F265
:1002BC0021321A60084A5A60DD609D6008221A617A
:1002CC001D75204600F0CAFC38BD00BFB0000020F0
:1002DC000064004014020020F4E5061830B587B025
:1002EC0000240294039404940594009401940D4DFD
:1002FC004FF080432B606C60AC60EC602C61AC61A7
:10030C00284601F03BF94FF48053029302A928468A
:10031C0001F076F8009401946946284601F048F9FA
:10032C0007B030BDD401002030B595B02422002197
:10033C000BA802F005FB002405940694079408947E
:10034C000994019402940394049402250A950123C0
:10035C000E9310230F930AA801F0C8F90F230593ED
:10036C000694079408940994214605A801F0E6FB2D
:10037C000195039401A801F0AFFC15B030BD00004D
:10038C0084B02DE9F04106AC84E80F00DDF86880FC
:10039C001B9F1C9E224B07221A6006221A61002505
:1003AC0001E00135EDB29DF81830AB4234D9002490
:1003BC009DF83A30A342F4D905FB03F3DBB2234496
:1003CC00DBB20133174A13706900481983003344B8
:1003DC001B5D53702944CB00434433F81410090AB5
:1003EC00917013F81430D37007EBC501600831F825
:1003FC001030082B94BF00230123137111F8103017
:10040C005371094B0649094800F056FC0A2001F0CB
:10041C0043F90134E4B2CBE7BDE8F04104B07047D6
:10042C0014020020E000002070010020B000002029
:10043C002DE9F04FA1B016AF01F00AF9FFF774FFE8
:10044C00FFF77EFEFFF7F4FEFFF716FFFFF746FF00
:10045C0002F098F901F01CFF884C204601F048FE90
:10046C00D4F800A0D4F80490D4F80880D4F80CE0A8
:10047C0004F11005EC465034664628686968AA6891
:10048C00EB680FC61035B446A542F5D15046494627
:10049C004246734601F034FF784890F821200378E7
:1004AC0003FB02F251000731C9086C46A4EBC101F1
:1004BC008D460DF1580990F8231003FB01F14C0007
:1004CC000734E4086D46A5EBC404A54616ACBC6025
:1004DC000731C9086C46A4EBC1018D4616A9796099
:1004EC000732D2086946A1EBC20295460DF1580BB2
:1004FC0090F8222003FB02F30733DB086A46A2EBD9
:10050C00C3039D4616AB7B614C465D4644E05B4E97
:10051C0007F1270313937B69129311951094D6F866
:10052C0000B0D6F804A0D6F80890F3683B6106F149
:10053C00100CE8465036C646DCF80000DCF8041017
:10054C00DCF80820DCF80C30AEE80F000CF1100CD5
:10055C00F046B445EFD1584651464A463B6901F046
:10056C002AFE464AD38DDFF828810093138E528ED3
:10057C0097F82710404601F06EFE414E0423B360FD
:10058C00404B42463146404800F096FB0023B36096
:10059C004FF4FA7001F080F8384E1094D6F800B091
:1005AC00D6F804A0D6F80890F3683B6106F1100C5D
:1005BC00E8465036C646DCF80000DCF80410DCF8DF
:1005CC000820DCF80C30AEE80F000CF1100CF046F3
:1005DC00B445EFD1584651464A463B6902F05AF8A9
:1005EC008146A3892381E3896381238AA381638A5A
:1005FC00E38107F11801204602F096F8AB792B71D4
:10060C00EB796B712B7AAB716B7AEB711B4ECDF86E
:10061C0054907B6814937B6913931295BB68119368
:10062C001094D6F800B0D6F804A0B3683B61F36818
:10063C00FB6006F1100CE8465036C646DCF80000AC
:10064C00DCF80410DCF80820DCF80C30AEE80F0005
:10065C000CF1100CF046B445EFD1584651463A69AE
:10066C00FB68FFF78DFEB9F1000F3FF450AF4FF46C
:10067C000051064801F0AAFC49E700BF1801002010
:10068C001402002070010020B00000200010014076
:10069C00D80000207047FEE7FEE7FEE7FEE7704754
:1006AC007047704708B500F0E5FF08BD08B5024873
:1006BC0000F085FB08BD00BFB000002082B00E4BDF
:1006CC009A6942F001029A619A6902F00102009261
:1006DC00009ADA6942F08052DA61DB6903F08053E8
:1006EC000193019B054A536823F0E06343F0806358
:1006FC00536002B0704700BF001002400000014080
:10070C0000B587B00023029303930493059302680A
:10071C00104B9A4202D007B05DF804FB03F56C4312
:10072C009A6942F400729A619A6902F4007200921A
:10073C00009A9A6942F008029A619B6903F00803D7
:10074C000193019B03230293039302A9024801F036
:10075C004DFBE0E700240140000C014010B586B0D1
:10076C000023029303930493059302681A4B9A4255
:10077C0001D006B010BD03F5D633DA6942F0007231
:10078C00DA61DA6902F000720092009A9A6942F01A
:10079C0004029A619B6903F004030193019B4FF4DB
:1007AC00006302930D4C02A9204601F01FFB4FF48D
:1007BC0080530293022303930323059302A920463B
:1007CC0001F014FB00221146142001F015FC14203A
:1007DC0001F046FCCDE700BF00640040000801407A
:1007EC0010B586B00023029303930493059302681B
:1007FC00164B9A4201D006B010BD03F560439A69BE
:10080C0042F480529A619A6902F480520092009AE2
:10081C009A6942F004029A619B6903F00403019304
:10082C00019BA02302930223039303230593084CFB
:10083C0002A9204601F0DAFA402302930023039325
:10084C00049302A9204601F0D1FAD4E7003001400C
:10085C00000801400368B3F1804F00D0704782B0AC
:10086C0003F50433DA6942F00102DA61DB6903F063
:10087C0001030193019B02B07047000030B482B0B9
:10088C000023019390F82430012B00F08B8002465A
:10089C00012380F824304B68062B29D80568686B37
:1008AC0003EB8303053B1F249C4020EA04000C68E7
:1008BC0004FA03F303436B630B68092B38D91568EF
:1008CC00E86803EB43031E3B07249C4020EA04002A
:1008DC008C6804FA03F30343EB600B68103B012BA9
:1008EC0034D90020002382F8243002B030BC704789
:1008FC000C2B0ED80568286B03EB8303233B1F24BA
:10090C009C4020EA04000C6804FA03F303432B63B5
:10091C00D2E70568E86A03EB8303413B1F249C4044
:10092C0020EA04000C6804FA03F30343EB62C3E708
:10093C001568286903EB430307249C4020EA040054
:10094C008C6804FA03F303432B61C6E7136816485B
:10095C00834205D0936A43F0200393620120C1E7E0
:10096C00986810F4000F1BD1986840F40000986050
:10097C000B68102B01D00020B4E70C4B1B680C4902
:10098C00A1FB03139B0C03EB83035900019102E0C1
:10099C00019B013B0193019B002BF9D10020A1E7A6
:1009AC0000209FE70220A0E700240140080000205F
:1009BC0083DE1B4338B503689A6812F0010F01D12E
:1009CC00002038BD04469A6822F001029A6000F0BB
:1009DC005DFE054623689B6813F0010F0ED000F0F6
:1009EC0055FE401B0228F5D9A36A43F01003A362FD
:1009FC00E36A43F00103E3620120E2E70020E0E751
:100A0C0000287FD038B50446836A002B33D02046AB
:100A1C00FFF7D0FFA36A13F010036DD100286BD140
:100A2C00A26A22F4885222F0020242F00202A2626E
:100A3C006268E1690A43E56842EA4502A168B1F5DA
:100A4C00807F21D001291CD0616901291FD0256824
:100A5C00696821F469410B436B6021688D682A4BEE
:100A6C002B4013438B60A368B3F5807F20D0012B00
:100A7C001ED000211FE0C36280F82430FFF740FE37
:100A8C00C5E74FF48073DFE74FF48073DCE735B9CB
:100A9C00A169013943EA413343F40063D7E7A16A02
:100AAC0041F02001A162E16A41F00101E162CEE76F
:100ABC002369013B19052568EB6A23F470030B438A
:100ACC00EB6223689968114B0B409A420BD0A36AD6
:100ADC0023F0120343F01003A362E36A43F0010313
:100AEC00E36201200DE00023E362A36A23F0030319
:100AFC0043F00103A36204E0A36A43F01003A36272
:100B0C00012038BD01207047FDF7E1FFFE0E1FFFED
:100B1C00002800F0A18038B5044690F82030D3B1FD
:100B2C002268136823F00203136000F0AFFD054642
:100B3C0023685A6812F0020F10D000F0A7FD401B7A
:100B4C000A28F5D9636A43F400336362052384F8F9
:100B5C002030012038BDFFF701FEE1E71A6842F0B2
:100B6C0001021A6000F092FD054623685A6812F0E3
:100B7C00010F0DD100F08AFD401B0A28F5D9636ADC
:100B8C0043F400336362052384F820300120E1E74D
:100B9C00227E012A3DD01A6822F080021A60637E00
:100BAC00012B3BD02268136823F040031360A37E13
:100BBC00012B39D02268136823F020031360E37EE5
:100BCC00012B37D02268136843F010031360237F86
:100BDC00012B35D02268136823F008031360637F60
:100BEC00012B33D02268136823F004031360A3682D
:100BFC00E268134322691343626913436268013A42
:100C0C0021681343CB6100206062012384F82030FB
:100C1C00A0E71A6842F080021A60C0E722681368E5
:100C2C0043F040031360C2E72268136843F02003CB
:100C3C001360C4E72268136823F010031360C6E73F
:100C4C002268136843F008031360C8E7226813682E
:100C5C0043F004031360CAE70120704738B590F8DD
:100C6C002030DBB2012B05D0436A43F400234362EE
:100C7C00012038BD0446022380F820300268136836
:100C8C0023F00103136000F001FD054623685B6847
:100C9C0013F0010F0DD000F0F9FC401B0A28F5D918
:100CAC00636A43F400336362052384F82030012027
:100CBC00DFE700206062DCE770B490F82040056844
:100CCC00AD68013CE4B2012C65D815F0E05F5CD056
:100CDC00C5F30165022D05D9436A43F40003436251
:100CEC0001205DE00124AC401C608B68002B39D1E5
:100CFC000E68CB68046843EA465605F118031B01DD
:100D0C00E65003680C6905F1180603EB06135C60EA
:100D1C000B7D012B31D0D17993791B0443EA01630C
:100D2C00517943EA01231479016823432C012144AE
:100D3C00C1F88C31D17893781B0443EA0163517864
:100D4C0043EA0123117802680B432244C2F888312C
:100D5C00016805F118031B01CA5842F00102CA5080
:100D6C0000201DE04C6843EAC403CC6806682343AA
:100D7C0005F1180424013351C3E7036803EB061390
:100D8C00596841F480715960C5E7436A43F4001314
:100D9C004362012004E0436A43F480234362012050
:100DAC0070BC70477047704770477047704770470A
:100DBC0070477047704770477047704770472DE910
:100DCC00F84F054603685C695F689E68D3F80CA011
:100DDC00D3F81090D3F8188014F0010F5AD016F0F5
:100DEC00010F17D001229A6016F0020F08D116F0ED
:100DFC00040F30D116F0080F07D04FF4805B0BE0D6
:100E0C00FFF7D0FF4FF0000B06E0FFF7CEFF4FF0DF
:100E1C00000B01E04FF0000B16F4807F0BD02B6819
:100E2C004FF480729A6016F4007F17D116F4806F1D
:100E3C0018D04BF4005B16F4803F2DD02B684FF488
:100E4C0080329A6016F4003F16D116F4802F17D01A
:100E5C004BF4004B20E04FF4006BDDE72846FFF726
:100E6C00A2FFE8E716F4006F02D04BF4804BE2E7E8
:100E7C002846FFF79BFFDEE72846FFF795FF0BE0C0
:100E8C0016F4002F02D04BF4803B05E02846FFF708
:100E9C008EFF01E04FF0000B14F0080F07D01AF092
:100EAC00100F04D04BF4007B2B681022DA6014F086
:100EBC00040F02D01AF0080F6AD114F0020F04D0FC
:100ECC002B68DB6813F0030F69D114F0400F07D0C7
:100EDC0019F0100F04D04BF4806B2B6810221A61A0
:100EEC0014F0200F02D019F0080F5CD114F0100F81
:100EFC0004D02B681B6913F0030F5BD114F4003F73
:100F0C0002D017F0100F59D114F4803F02D017F013
:100F1C00080F5AD114F4004F35D017F0040F2FD00E
:100F2C0014F4807F04D018F0010F01D04BF0010BAA
:100F3C0014F4007F04D018F0020F01D04BF0020B18
:100F4C0014F4806F04D018F0040F01D04BF0040B94
:100F5C0014F4006F14D018F0700811D0B8F1300FE1
:100F6C0046D039D9B8F1500F48D0B8F1600F48D0FD
:100F7C00B8F1400F3FD02A68936923F07003936156
:100F8C002B6804225A60BBF1000F3DD1BDE8F88FED
:100F9C002B680822DA602846FFF70BFF8DE72846FE
:100FAC00FFF706FF91E72B6808221A612846FFF726
:100FBC0002FF9BE72846FFF7FDFE9FE72B681022F8
:100FCC005A602846FFF7F8FE9EE72B6808225A6005
:100FDC002846FFF7F2FE9DE7B8F1100F05D0B8F1E7
:100FEC00200FC8D14BF0100BC5E74BF0080BC2E734
:100FFC004BF0200BBFE74BF0400BBCE74BF0800BEA
:10100C00B9E74BF4807BB6E76B6A43EA0B036B6280
:10101C002846FFF7D3FEB9E7F8B505460F46164646
:10102C001C463BE02CB100F031FB069BC01AA042E1
:10103C0034D32A68536823F0E00353606B68B3F52C
:10104C00827F0BD0AB6AB3F5005F14D0012385F817
:10105C005130002385F85030032027E0AB68B3F5FE
:10106C00004F02D0B3F5806FECD12A68136823F0DF
:10107C0040031360E6E72A68136823F400531B044B
:10108C001B0C13602A68136843F400531360DDE7EC
:10109C000123B34209D0B4F1FF3FC3D12B689B6845
:1010AC0037EA0303F4D00023F3E70020F8BD10B5B2
:1010BC0082B0044600920B4600228021FFF7ACFF61
:1010CC00034610B9184602B010BD636D43F02003FF
:1010DC0063650323F6E72DE9F04385B098460C9D34
:1010EC0090F85030012B00F0108104460F46164644
:1010FC00012380F8503000F0C9FA814694F8513041
:10110C00DBB26268012B0AD0B2F5827F40F0E88036
:10111C00A268002A40F0EF80042B40F0EE80002FF4
:10112C0000F0ED80002E00F0EC80B8F1000F00F024
:10113C00EA8094F85130DBB2012B2BD0002363658D
:10114C00A663A4F83E80A4F83C802763A4F83680FC
:10115C00A4F834802364636423681A6812F0400F87
:10116C0003D11A6842F040021A60E368B3F5006FCD
:10117C0014D063681BB1E38E9BB2012B07D123689B
:10118C0017F8012B1A73E38E013B9BB2E3864FF0E9
:10119C00010861E0052384F85130CFE763681BB187
:1011AC00E38E9BB2012B07D1236837F8022BDA6050
:1011BC00E38E013B9BB2E3864FF0010813E0E38F13
:1011CC009BB26BB123689A6812F0010F08D0DB68F0
:1011DC0026F8023BE38F013B9BB2E3874FF00108FB
:1011EC00B5F1FF3F1CD1E38E9BB21BB9E38F9BB2D1
:1011FC00002B55D0B8F1000FE1D0E38E9BB2002B41
:10120C00DDD023689A6812F0020FD8D037F8022B81
:10121C00DA60E38E013B9BB2E3864FF00008CEE729
:10122C0000F034FAA0EB0900A842DCD3032358E009
:10123C00E38F9BB26BB123689A6812F0010F08D050
:10124C00DB6806F8013BE38F013B9BB2E3874FF071
:10125C000108B5F1FF3F1BD1E38E9BB213B9E38FAD
:10126C009BB2EBB1B8F1000FE2D0E38E9BB2002B36
:10127C00DED023689A6812F0020FD9D017F8012B30
:10128C001A73E38E013B9BB2E3864FF00008CFE765
:10129C0000F0FCF9A0EB0900A842DDD3032320E009
:1012AC00CDF800902B46012202212046FFF7B4FE18
:1012BC0008B1032315E04A4629462046FFF7F7FEFE
:1012CC00034648B9A26862B903922268D1680391B7
:1012DC0092680392039A04E020236365012300E0E3
:1012EC000223012284F85120002284F85020184651
:1012FC0005B0BDE8F0830223F3E70223F1E70123F5
:10130C00EFE70123EDE70123EBE70223EFE70028EA
:10131C003CD010B504460023836290F85130002B6A
:10132C0031D0022384F851302268136823F0400333
:10133C0013606368A2681343E26813432269134382
:10134C0062691343A26902F400721343E269134306
:10135C00226A1343A16A22680B431360638B03F068
:10136C000403616A22680B4353602368E26A1A61C2
:10137C002268D36923F40063D361002060650123E4
:10138C0084F8513010BDFFF72BFACAE701207047E3
:10139C0010B4036A046A24F001040462846924F022
:1013AC00F00444EA021223F00A030B438261036245
:1013BC0010BC704710B4036A23F0100303628469F5
:1013CC00036A24F4704444EA023223F0A00343EA93
:1013DC0001138261036210BC7047836823F07003B1
:1013EC0041F0070119438160704710B4846824F4FC
:1013FC007F4442EA03230B432343836010BC7047B2
:10140C0090F83C30012B7DD010B50446012380F8B8
:10141C003C30022380F83D300268936823F47F430C
:10142C0023F0770393600B68402B57D010D9702BA7
:10143C003ED01FD8502B47D0602B32D1CA68496898
:10144C000068FFF7B7FF60212068FFF7C6FF28E0B0
:10145C00102B4DD008D9202B4FD0302B21D130213F
:10146C000068FFF7BAFF1CE0DBB900210068FFF74A
:10147C00B4FF16E0B3F5805F0ED0B3F5005F10D16A
:10148C00CB684A6889680068FFF7AFFF22689368E9
:10149C0043F48043936004E00268936823F00703ED
:1014AC009360012384F83D30002084F83C0010BD8B
:1014BC00CB684A6889680068FFF797FF22689368D1
:1014CC0043F077039360ECE7CA6849680068FFF75C
:1014DC005FFF50212068FFF780FFE2E7CA68496888
:1014EC000068FFF755FF40212068FFF776FFD8E72B
:1014FC0010210068FFF771FFD3E720210068FFF788
:10150C006CFFCEE70220704703681B4A90420AD05A
:10151C00B0F1804F07D0A2F59432904203D002F57F
:10152C008062904203D123F070034A681343124A3D
:10153C0090420AD0B0F1804F07D0A2F5943290427D
:10154C0003D002F58062904203D123F44073CA6841
:10155C00134323F080034A69134303608B68C3620F
:10156C000B688362044B984202D00123436170479D
:10157C000B690363F9E700BF002C0140B0B110B553
:10158C00044690F83D3063B1022384F83D30214687
:10159C0051F8040BFFF7B8FF012384F83D3000200D
:1015AC0010BD80F83C30FFF755F9EDE7012070478E
:1015BC0090F83C30012B22D030B4012280F83C2032
:1015CC00022380F83D300468636823F07003636085
:1015DC00046863680D682B4363600468A36823F098
:1015EC008003A3600468A36849680B43A36080F878
:1015FC003D20002380F83C30184630BC7047022058
:10160C007047000010B504460E4B18784FF47A73EF
:10161C00B3FBF0F30C4A1068B0FBF3F000F02CFDB8
:10162C0068B90F2C01D901200AE0002221464FF0A5
:10163C00FF3000F0E1FC054B1C60002000E00120B5
:10164C0010BD00BF00000020080000200400002096
:10165C0008B5074A136843F010031360032000F029
:10166C00B9FC0020FFF7CEFFFFF728F8002008BDDB
:10167C0000200240034A1168034B1B780B44136093
:10168C00704700BF5002002000000020014B18687A
:10169C00704700BF5002002038B50446FFF7F6FF34
:1016AC000546B4F1FF3F02D0044B1B781C44FFF7F6
:1016BC00EDFF401BA042FAD338BD00BF0000002054
:1016CC0082B0084B1B68084AA2FB03235B0A00FB91
:1016DC0003F0019000BF019B5A1E0192002BF9D11F
:1016EC0002B0704708000020D34D621070B582B074
:1016FC000446036813F0010F2CD0AB4B5B6803F06E
:10170C000C03042B1DD0A84B5B6803F00C03082BB7
:10171C0012D06368B3F5803F41D0002B55D103F153
:10172C00804303F504331A6822F480321A601A6875
:10173C0022F480221A6037E09B4B5B6813F4803FE5
:10174C00E7D0994B1B6813F4003F03D06368002B60
:10175C0000F0AE81236813F0020F75D0924B5B68DA
:10176C0013F00C0F5FD0904B5B6803F00C03082B4D
:10177C0054D02369002B00F089808C4B01221A6015
:10178C00FFF784FF0546884B1B6813F0020F74D1DA
:10179C00FFF77CFF401B0228F5D903208DE1824A1C
:1017AC00136843F480331360636843B3FFF76EFF31
:1017BC0005467D4B1B6813F4003FCBD1FFF766FF4A
:1017CC00401B6428F5D9032077E1B3F5A02F09D08D
:1017DC00754B1A6822F480321A601A6822F480223F
:1017EC001A60E1E703F18043A3F53C331A6842F435
:1017FC0080221A601A6842F480321A60D4E7FFF72C
:10180C0045FF0546684B1B6813F4003FA2D0FFF759
:10181C003DFF401B6428F5D903204EE1624B5B6809
:10182C0013F4803FA5D1604B1B6813F0020F03D05B
:10183C002369012B40F03E815B4A136823F0F803C7
:10184C00616943EAC1031360236813F0080F32D0B7
:10185C00A369002B5BD0564B01221A60FFF716FFD1
:10186C000546514B5B6A13F0020F21D1FFF70EFFB7
:10187C00401B0228F5D903201FE14B4A136823F0C3
:10188C00F803616943EAC1031360DDE7474B0022AB
:10189C001A60FFF7FBFE0546434B1B6813F0020F63
:1018AC00D2D0FFF7F3FE401B0228F5D9032004E148
:1018BC000120FFF705FF236813F0040F00F0988058
:1018CC00394BDB6913F0805F33D1374BDA6942F067
:1018DC008052DA61DB6903F080530193019B01258F
:1018EC00344B1B6813F4807F25D0E368012B36D072
:1018FC00002B4CD103F1804303F504331A6A22F018
:10190C0001021A621A6A22F004021A622CE0284BB5
:10191C0000221A60FFF7BAFE0546234B5B6A13F0F0
:10192C00020FC8D0FFF7B2FE401B0228F5D90320E6
:10193C00C3E00025D4E71F4A136843F48073136097
:10194C00FFF7A4FE06461B4B1B6813F4807FCCD11B
:10195C00FFF79CFE801B6428F5D90320ADE0124AEA
:10196C00136A43F001031362E3687BB3FFF78EFE47
:10197C0006460D4B1B6A13F0020F38D1FFF786FE9B
:10198C00801B41F288339842F3D9032095E0052B54
:10199C0012D0054B1A6A22F001021A621A6A22F05E
:1019AC0004021A62E0E700BF00100240000042424D
:1019BC008004424200700040424B1A6A42F004021A
:1019CC001A621A6A42F001021A62CDE7FFF75EFE54
:1019DC0006463C4B1B6A13F0020F08D0FFF756FE6D
:1019EC00801B41F288339842F3D9032065E0E5B9B6
:1019FC00E369002B60D0334A526802F00C02082ACB
:101A0C005DD0022B17D0304B00221A60FFF73EFE40
:101A1C0004462C4B1B6813F0007F47D0FFF736FEB3
:101A2C00001B0228F5D9032047E0264AD36923F08E
:101A3C008053D361DCE7244B00221A60FFF726FEAB
:101A4C000546204B1B6813F0007F06D0FFF71EFEE7
:101A5C00401B0228F5D903202FE0236AB3F5803F01
:101A6C001AD018494B6823F47413226A606A024333
:101A7C0013434B60144B01221A60FFF707FE044618
:101A8C00104B1B6813F0007F0ED1FFF7FFFD001BFE
:101A9C000228F5D9032010E00A4A536823F40033D6
:101AAC00A1680B435360DCE7002006E0002004E053
:101ABC00012002E0012000E0002002B070BD0120F6
:101ACC00FBE700BF001002406000424210B487B038
:101ADC00164C94E80F000DF1180C0CE90F00238A3A
:101AEC00ADF80430124B5B6803F00C02082A03D0EB
:101AFC00104807B010BC7047C3F38342624412F81D
:101B0C00102C13F4803F0CD0094B5B68C3F340439B
:101B1C00634413F8143C074800FB02F0B0FBF3F0ED
:101B2C00E7E7054800FB02F0E3E700BF182B0008CD
:101B3C000010024000127A0000093D00624B1B6845
:101B4C0003F007038B420BD25F4A136823F00703A1
:101B5C000B431360136803F007038B4240F0AE8015
:101B6C0070B5036813F0020F17D013F0040F04D0F4
:101B7C00564A536843F4E0635360036813F0080F4C
:101B8C0004D0524A536843F4605353604F4A53682D
:101B9C0023F0F0038468234353600D460446036826
:101BAC0013F0010F52D04368012B23D0022B28D005
:101BBC00464A126812F0020F00F0828043494A68CC
:101BCC0022F0030213434B60FFF760FD0646636887
:101BDC00012B1DD0022B2AD03C4B5B6813F00C0F51
:101BEC0034D0FFF753FD801B41F288339842F3D970
:101BFC00032062E0354A126812F4003FDED1012066
:101C0C005BE0324A126812F0007FD7D1012054E019
:101C1C002E4B5B6803F00C03042B17D0FFF736FD3B
:101C2C00801B41F288339842F2D9032045E0274BC0
:101C3C005B6803F00C03082B08D0FFF727FD801B13
:101C4C0041F288339842F2D9032036E01E4B1B68D0
:101C5C0003F00703AB420AD91B4A136823F00703AE
:101C6C002B431360136803F00703AB422AD123689C
:101C7C0013F0040F06D0154A536823F4E063E168AF
:101C8C000B435360236813F0080F07D00F4A5368B7
:101C9C0023F46053216943EAC1035360FFF716FF35
:101CAC000A4B5B68C3F30313094AD35CD840094B56
:101CBC0018600020FFF7A6FC002070BD01207047C3
:101CCC000120FAE70120F8E7002002400010024052
:101CDC002C2B00080800002070B582B00446036865
:101CEC0013F0010F34D03E4BDB6913F0805F48D109
:101CFC003B4BDA6942F08052DA61DB6903F08053C6
:101D0C000193019B0125374B1B6813F4807F3AD05C
:101D1C00334B1B6A13F4407311D0626802F44072A7
:101D2C009A420CD02E4A136A23F440702E49012695
:101D3C000E6000260E60106213F0010F37D1284A96
:101D4C00136A23F4407361680B431362002D3FD177
:101D5C00236813F0020F06D0214A536823F4404342
:101D6C00A1680B435360236813F0100F35D01C4A45
:101D7C00536823F48003E1680B435360002002B0E6
:101D8C0070BD0025BFE7174A136843F480731360D6
:101D9C00FFF77CFC0646134B1B6813F4807FB7D10E
:101DAC00FFF774FC801B6428F5D90320E7E7FFF7E5
:101DBC006DFC06460A4B1B6A13F0020FBFD1FFF7EE
:101DCC0065FC801B41F288339842F3D90320D6E797
:101DDC00D36923F08053D361BAE70020CFE700BF6B
:101DEC00001002400070004040044242F0B482B047
:101DFC0000263546A0E0002B58D0012B10D1CE6820
:101E0C000EE0694FBB4251D048D9684FBB424DD010
:101E1C0007F58037BB4249D0A7F58017BB4245D0A8
:101E2C00FF2A57D88446FF2A57D8AC00DCF800307C
:101E3C000F27A74023EA070306FA04F42343CCF840
:101E4C0000304B6813F0805F75D0594B9C6944F09F
:101E5C0001049C619B6903F001030193019BAC0895
:101E6C00A71C544B53F8273005F00307BF004FF065
:101E7C000F0C0CFA07FC23EA0C0C4F4B984232D097
:101E8C0003F58063984270D003F5806398426ED05E
:101E9C0003F58063984224D0042325E0A7F580172E
:101EAC00BB4203D007F58037BB42B9D18B687BB1FD
:101EBC00012B08D044610826B2E7CE680836AFE79C
:101ECC00CE680C36ACE704610826A9E70026A7E724
:101EDC000426A5E700F1040CA5E7A5F10804A4006D
:101EEC00A4E7032300E00023BB4043EA0C030234C5
:101EFC00304F47F824304B6813F4803F39D02F4CC7
:101F0C002368134323604B6813F4003F37D02B4CEA
:101F1C006368134363604B6813F4801F35D0274C00
:101F2C00A3681343A3604B6813F4001F33D0234CF6
:101F3C00E3681A43E26001350F2D32D80124AC401E
:101F4C000A6822409442F6D14B68122BB8D03FF667
:101F5C0058AF022BB1D07FF64EAF032BB6D0112B5E
:101F6C007FF45EAFCE6804365AE70123BCE7022348
:101F7C00BAE7124C236823EA02032360C3E70F4C31
:101F8C00636823EA02036360C5E70C4CA36823EA89
:101F9C000203A360C7E7094CE36823EA0202E2608C
:101FAC00C9E702B0F0BC70470000211000003110EE
:101FBC0000100240000001400008014000040140F4
:101FCC000AB101617047090401617047C368594047
:101FDC00C1607047074AD36823F4E0631B041B0CF1
:101FEC00000200F4E060184340F0BF6040F40030A1
:101FFC00D060704700ED00E030B4174BDB68C3F3E2
:10200C000223C3F10704042C28BF04241D1D062D34
:10201C0001D9033B00E000234FF0FF3505FA04F42F
:10202C0021EA0401994005FA03F322EA0303194358
:10203C00002809DB0901C9B200F1604000F56140DC
:10204C0080F8001330BC704700F00F000901C9B2D2
:10205C00024B1954F6E700BF00ED00E014ED00E070
:10206C0000F01F02400901239340024A42F820303D
:10207C00704700BF00E100E00138B0F1807F0AD268
:10208C00064B5860064AF02182F823100020986015
:10209C0007221A6070470120704700BF10E000E073
:1020AC0000ED00E00F4B1A6842F001021A6059680B
:1020BC000D4A0A405A601A6822F0847222F4803267
:1020CC001A601A6822F480221A605A6822F4FE02FE
:1020DC005A604FF41F029A60044B4FF000629A60F2
:1020EC00704700BF001002400000FFF800ED00E058
:1020FC0001220270002343700C2180F8211008216A
:10210C0080F82210042180F823104AF21041C18477
:10211C004AF2280101854AF27A31418580F824304F
:10212C0080F83A3080F8342080F8352080F836205A
:10213C0080F8372080F8382080F839208387C387CF
:10214C0080F8403080F8413080F8423080F84330DD
:10215C0080F8443080F8453080F8463080F84730BD
:10216C0080F8483080F8493080F84A3080F84B309D
:10217C0080F84C30704784B010B401AC84E80F0088
:10218C00159C208800210DE001339DF826209A42F1
:10219C0007DD04EB011232F813208242F4D2104610
:1021AC00F2E701319DF804308B4201DD0023ECE7AE
:1021BC0010BC04B0704784B0F0B593B018AC84E890
:1021CC000F002C9C2E9D10946E461CAF0FCF0FC68B
:1021DC000FCF0FC60FCF0FC697E80F0086E80F0082
:1021EC0018AB0FCBFFF7C7FF84460026022027E071
:1021FC00002001329DF88230934220DD374606EBF9
:10220C004601CB00234433F81230BDF886109942B6
:10221C0000D20020BDF88C1061448B4203DD05EB2D
:10222C00C7070121B954BDF88A109942E0D3BDF813
:10223C0088109942DDD20028DBD00120D9E7013685
:10224C009DF86030B34201DD0022D3E713B0BDE846
:10225C00F04004B0704730B4BDF80850140A047054
:10226C004270012905D002290DD000238370C37060
:10227C0002E01A0A8270C3700023037143718371E8
:10228C00C37130BC70472B0A8370C570F4E7000033
:10229C00002011E05B009BB2013A002A08DD13F428
:1022AC00804FF7D05B009BB2074909884B40F3E79E
:1022BC00064A22F810300130FF2804DC83B2DB011F
:1022CC009BB20822E9E770470C0000205402002062
:1022DC0030B400241022A0420BDD0B5D83EAD21334
:1022EC00DBB2064D35F9133083EA022292B2013487
:1022FC00F1E7500080B230BC704700BF54020020A0
:10230C0084B038B504AC84E80F000C2000F008FB56
:10231C00044600259DF81030AB4226D904AB2B4463
:10232C005B7CDB0003F0780343F080032370012314
:10233C00637021460220FFF7CBFF030AA370E07005
:10234C00002323716371A371E37123726372211DE6
:10235C000620FFF7BDFF030AA372E0720C21204692
:10236C0000F030FA0135EDB2D4E7204600F0E0FA87
:10237C00BDE8384004B07047F0B587B006460C464F
:10238C001746062000F0CCFA0546E30003F078036C
:10239C0063F07F03C6F302242343DBB20370F2B273
:1023AC0042708DF80C308DF80D2001460220FFF79D
:1023BC008FFF030A8DF80E308DF80F0000238DF877
:1023CC0010308DF811308DF812308DF813308DF8E7
:1023DC0014308DF815308DF816308DF817300C221E
:1023EC0069460DEB020000F023FA9DF804302B70C7
:1023FC009DF805306B709DF80630AB709DF807307A
:10240C00EB709DF808302B719DF809306B712946E3
:10241C000620FFF75DFF9DF80A209DF80B3043EA7C
:10242C000223984212D00020042E11D0062E28D060
:10243C00082E3FD00A2E56D00C2E6DD00E2E00F04A
:10244C008480022E00F08A8007B0F0BD0120EBE7FB
:10245C009DF805301B021BB29DF8042013433B80F2
:10246C009DF807301B021BB29DF8062013437B809E
:10247C009DF809301B021BB29DF808201343BB804A
:10248C00D4E79DF805301B021BB29DF804201343C2
:10249C00FB809DF807301B021BB29DF806201343EE
:1024AC003B819DF809301B021BB29DF80820134399
:1024BC007B81BDE79DF805301B021BB29DF8042003
:1024CC001343BB819DF807301B021BB29DF80620FD
:1024DC001343FB819DF809301B021BB29DF80820A9
:1024EC0013433B82A6E79DF805301B021BB29DF8F7
:1024FC00042013437B829DF807301B021BB29DF80E
:10250C0006201343BB829DF809301B021BB29DF8B9
:10251C0008201343FB828FE79DF805301B021BB28A
:10252C009DF8042013433B809DF807301B021BB21F
:10253C009DF8062013437B809DF809301B021BB2CB
:10254C009DF808201343BB8078E79DF805301B02EB
:10255C001BB29DF804201343FB8072E79DF80430F6
:10256C001B021BB29DF8052013433B809DF80630DF
:10257C001B021BB29DF8072013437B809DF808308B
:10258C001B021BB29DF809201343BB809DF80A3037
:10259C001B021BB29DF80B201343FB8054E700B5C4
:1025AC0083B0C0F303238DF804308DF8050001A926
:1025BC000220FFF78DFE030A8DF806308DF8070018
:1025CC0004210DEB010000F0FDF803B05DF804FBF5
:1025DC0070B582B005460C46022000F0A1F9064603
:1025EC00E30003F0780363F07F03C5F30224234375
:1025FC00DBB20370EDB245708DF804308DF80550E8
:10260C0001460220FFF764FE030A8DF806308DF8B0
:10261C00070004210DEB010000F0D4F8304600F067
:10262C0087F902B070BDF8B507460D46182000F0CA
:10263C0077F9044639464FF41870FFF7C9FF32207A
:10264C00FFF72AF8224639460420FFF795FE064686
:10265C00224639460620FFF78FFE0640F6B2224688
:10266C0039460820FFF788FE0640224639460A20E4
:10267C00FFF782FE064000230B2B06D834F81320FC
:10268C0025F813200133DBB2F6E7204600F050F9B1
:10269C003046F8BD84B02DE9F84300AF07F12004B3
:1026AC0084E80F003E6F97F841305B00073303F46A
:1026BC007E73ADEB030D6D4697F8208008F1070390
:1026CC0003F4FC73ADEB030DE946002401E0013487
:1026DC00E4B2444516D207F1200323442946587826
:1026EC00FFF7A1FF09F8040000230B2BEFD804EB34
:1026FC004401CA00324435F8131022F81310013388
:10270C00DBB2F2E70023012001E00133DBB24345E9
:10271C0005D219F80320002AF7D11046F5E7BD467B
:10272C00BDE8F84304B0704730B587B004460D4699
:10273C0040F22920FFF733FF40F22920FFF72FFF4B
:10274C000F20FEF7A9FF69460020FFF76CFF00235E
:10275C00184603E00122EA540133DBB20B2B0ED8EE
:10276C0034F8132006A901EB430131F8181C521A56
:10277C00B2F57A7FEEDD0022EA540120ECE707B0D7
:10278C0030BD000008B50D480D4B03604FF482734B
:10279C00436000238360C360022202610122426114
:1027AC004FF4802282611822C26103624362836209
:1027BC000A23C362FEF7ABFD08BD00BF5404002022
:1027CC0000300140F0B583B002AF05460C46CB1D7E
:1027DC0003F4FC73ADEB030D02AE00221021124882
:1027EC00FFF7EEFB0A20FEF757FF4FF47A730093C6
:1027FC002346324629460D48FEF76DFC04460B4B2A
:10280C0093F85130DBB2022BF9D00A20FEF744FFCB
:10281C00012210210448FFF7D3FBB4FA84F04009DD
:10282C000437BD46F0BD00BF000801405404002031
:10283C0070B582B004460D46164600221021114890
:10284C00FFF7BEFB0A20FEF727FF4FF47A730093C5
:10285C0033462A4621460C48FEF73DFC04460A4BFB
:10286C0093F85130DBB2022BF9D00A20FEF714FF9B
:10287C00012210210348FFF7A3FBB4FA84F04009AE
:10288C0002B070BD0008014054040020002103E098
:10289C000B4B5B58435004310A480B4B42189A427D
:1028AC00F6D30A4A02E0002342F8043B084B9A4252
:1028BC00F9D3FFF7F7FB00F00FF8FDF7B9FD704700
:1028CC00442B00080000002074000020740000203D
:1028DC00BC040020FEE7000070B500260C4D0D4C2A
:1028EC00641BA410A64209D100F004F900260A4D7D
:1028FC000A4C641BA410A64205D170BD55F8043BCC
:10290C0098470136EEE755F8043B98470136F2E755
:10291C003C2B00083C2B00083C2B0008402B0008EB
:10292C00024B0146186800F05FB800BF1000002091
:10293C00024B0146186800F00BB800BF10000020D5
:10294C0003460244934200D1704703F8011BF9E798
:10295C0038B50546002943D051F8043C0C1F002B18
:10296C00B8BFE41800F0AAF81E4A1368104633B931
:10297C00636014602846BDE8384000F0A5B8A34257
:10298C000BD921686218934201BF1A685B68521810
:10299C00226063600460EDE713465A680AB1A242F4
:1029AC00FAD919685818A0420BD12068014458185C
:1029BC0082421960DED110685268014419605A6075
:1029CC00D8E702D90C232B60D4E7206821188A425F
:1029DC0001BF116852680918216062605C60C9E728
:1029EC0038BD00BF90000020F8B5CD1C25F00305C4
:1029FC0008350C2D38BF0C25002D064601DBA942ED
:102A0C0003D90C2333600020F8BD00F057F821499E
:102A1C000A6814469CB9204F3B6823B921463046BE
:102A2C0000F03CF838602946304600F037F8431C7B
:102A3C0023D10C233046336000F046F8E3E72368DB
:102A4C005B1B17D40B2B03D923601C44256004E0BB
:102A5C006368A2420CBF0B605360304600F034F840
:102A6C0004F10B00231D20F00700C21ACCD01B1A56
:102A7C00A350C9E722466468CCE7C41C24F00304C5
:102A8C00A042E3D0211A304600F008F80130DDD125
:102A9C00CFE700BF900000209400002038B5002341
:102AAC00054C05460846236000F016F8431C02D17D
:102ABC00236803B12B6038BDAC040020014800F042
:102ACC0009B800BFB4040020014800F004B800BFEE
:102ADC00B404002070477047044A05491368002B62
:102AEC0008BF0B4618441060184670479800002029
:102AFC00C0040020F8B500BFF8BC08BC9E46704767
:0C2B0C00F8B500BFF8BC08BC9E4670473E
:102B180002030405060708090A0B0C0D0E0F101016
:102B28000102000000000000000000000102030490
:042B3800060708097B
:042B3C00310100085B
:042B40000D0100087B
:102B4400010000001000000000A24A0499450000A2
:102B5400140000200000000000000000000000003D
:102B64000000000000000000000000000000000061
:102B74000000000000000000000000000000000051
:102B84000000000000000000000000000000000041
:102B94000000000000000000000000000000000031
:102BA4000000000000000000000000000000000021
:042BB400000000001D
:04000005080028992E
:00000001FF
