:020000040800F2
:100000000000022061320008D1090008D30900086D
:10001000D5090008D7090008D90900080000000028
:10002000000000000000000000000000DB090008E4
:10003000DD09000800000000DF090008E1090008F0
:10004000B1320008B1320008B1320008B132000804
:10005000B1320008B1320008B1320008B1320008F4
:10006000B1320008B1320008B1320008B1320008E4
:10007000B1320008B1320008B1320008B1320008D4
:10008000B1320008B1320008B1320008B1320008C4
:10009000E9090008B1320008B1320008B1320008A5
:1000A000B1320008B1320008B1320008B1320008A4
:1000B000B1320008B1320008B1320008B132000894
:1000C000B1320008B1320008B1320008B132000884
:1000D000B1320008B1320008B1320008B132000874
:1000E000B1320008B1320008B1320008B132000864
:1000F000B1320008B1320008B1320008B132000854
:10010000B1320008B1320008B1320008B132000843
:10011000B1320008B1320008B1320008B132000833
:10012000B1320008B1320008B1320008B132000823
:10013000B13200080000000000000000B1320008E9
:10014000F9090008B1320008B1320008B1320008E4
:10015000B1320008B1320008B1320008B1320008F3
:10016000B1320008B1320008B1320008B1320008E3
:10017000B1320008B1320008B132000800000000BE
:1001800000000000B1320008000000000000000084
:10019000B13200080000000000000000B132000889
:1001A000000000000000000000000000B132000864
:1001B000B1320008B1320008B1320008B132000893
:0401C000B132000850
:1001C40010B5054C237833B9044B13B10448AFF38D
:1001D40000800123237010BD98000020000000005F
:1001E400D434000808B5034B1BB103490348AFF3EB
:1001F400008008BD000000009C000020D4340008EA
:1002040053B94AB9002908BF00281CBF4FF0FF3179
:100214004FF0FF3000F074B9ADF1080C6DE904CE75
:1002240000F006F8DDF804E0DDE9022304B07047CD
:100234002DE9F047089E04468846002B40F085804F
:100244008A42154648D9B2FA82F24AB1C2F120076D
:1002540001FA02F320FA07F7954047EA03089440AD
:100264004FEA154E230CB8FBFEF71FFA85FC0EFB74
:10027400178843EA084307FB0CF1994209D9EB18A4
:1002840007F1FF3080F0E380994240F2E080023FC2
:100294002B445B1AA4B2B3FBFEF00EFB103344EA0A
:1002A400034400FB0CFCA44509D92C1900F1FF33CD
:1002B40080F0CB80A44540F2C88002382C4440EA48
:1002C4000740A4EB0C0400271EB1D4400023C6E968
:1002D40000433946BDE8F087002A53D0B2FA82F2CF
:1002E400002A40F0B680491B4FEA154E1FFA85F8E4
:1002F4000127B1FBFEFC230C0EFB1C1143EA014356
:1003040008FB0CF1994207D9EB180CF1FF3002D22B
:10031400994200F2EC808446591AA3B2B1FBFEF074
:100324000EFB101443EA044408FB00F8A04507D967
:100334002C1900F1FF3302D2A04500F2DC801846EC
:10034400A4EB080440EA0C40BEE78B4208D9002E17
:1003540078D00027C6E9000138463946BDE8F08761
:10036400B3FA83F77FB98B4202D3824200F2BD8095
:10037400841A61EB030301209846002EA9D0C6E934
:100384000048A6E7FFDEC7F12005BB4022FA05FCC2
:100394004CEA030C01FA07F420FA05F821FA05F3F4
:1003A4004FEA1C4E48EA0404B3FBFEF9210C0EFB91
:1003B40019331FFA8CF841EA034309FB08FA9A45FA
:1003C40002FA07F200FA07F10BD91CEB030309F157
:1003D400FF3080F088809A4540F28580A9F10209B7
:1003E4006344A3EB0A03A4B2B3FBFEF00EFB103389
:1003F40044EA034400FB08F8A04508D91CEB0404B4
:1004040000F1FF336BD2A04569D90238644440EA55
:100414000940A4EB0804A0FB02894C45C6464B46A0
:1004240054D351D0002E69D0B1EB0E0264EB030417
:1004340004FA05F522FA07F3FC401D43C6E900540B
:10044400002746E73746304643E7184637E707466E
:100454001FE7C2F1200320FA03F7954001FA02F0E6
:1004640021FA03F34FEA154E3843010CB3FBFEF7B0
:100474001FFA85F80EFB173341EA034107FB08F323
:100484008B4204FA02F407D9691807F1FF3C28D219
:100494008B4226D9023F2944CB1A81B2B3FBFEF02A
:1004A4000EFB103341EA034100FB08F38B4207D9EA
:1004B400691800F1FF3C10D28B420ED9023829444E
:1004C400C91A40EA074714E74145ABD2B8EB020E1C
:1004D40069EB0C0201381346A4E76046F0E71846BE
:1004E40095E76746D8E781467BE7384645E7ACF1B0
:1004F400020C2B4410E702382C4421E73746E8E687
:10050400704700BF2DE9F04188B00024039404949F
:1005140005940694079400942D4B1A6B42F0040240
:100524001A631A6B02F004020092009A01941A6B87
:1005340042F001021A631A6B02F001020192019A5D
:1005440002941A6B42F002021A631B6B03F002035B
:100554000293029BDFF8848022464FF40051404608
:1005640002F068FB1B4F22461021384602F062FB62
:10057400194D22464FF48061284602F05BFB4FF48C
:1005840000530393012604960594069403A9404658
:1005940002F072FA1023039304960594069403A9B7
:1005A400384602F069FA4FF4806303930496059485
:1005B400069403A9284602F05FFA202303930494C7
:1005C400059403A9284602F057FA08B0BDE8F08163
:1005D40000380240000002400004024000080240CB
:1005E40070B584B0002500950195029503950F4CD4
:1005F4000F4B23606560A5602561257684F8205043
:10060400E5620C4BA362E5600126E66184F8305094
:100614006661204600F02CFC0823009301960295A5
:100624006946204600F050FC04B070BD84010020EF
:10063400002001400100000F30B58BB0144D154B64
:100644002B6020236B600024AC60EC602C616C6137
:100654002C766C76AC76EC762C776C77284600F0AA
:1006640005FD0594069401230793009401940294D4
:100674000394049408936946284600F09DFD284697
:1006840000F030FE0221284600F069FF0BB030BDB7
:10069400B40200200064004030B58BB01A4D1B4BEF
:1006A4002B6020236B600024AC60EC602C616C61D7
:1006B4002C766C76AC76EC762C776C77284600F04A
:1006C400D5FC0123059306940793009401940294A6
:1006D4000394049408936946284600F06DFD284667
:1006E40000F000FE0221284600F039FF084B40F2DA
:1006F40021321A60074A5A60DC6004229A60082298
:100704001A611C750BB030BDCC010020006800409C
:10071400C8000020F4E5061808B50848084B036033
:100724004FF4E133436000238360C36003610C2210
:1007340042618361C36101F0B8FD08BD100200206D
:100744000010014030B58BB0002408940994019442
:100754000294039404940594069407940F4D104B4B
:100764002B606C60AC60EC602C61AC61284601F0DD
:10077400EDFA0894099408A9284601F0A7FB602320
:100784000193029403940594224601A9284601F09A
:100794002FFB284600F06AFA0BB030BD2001002080
:1007A4000004004010B594B03422002107A802F0E0
:1007B400B3FD0024029403940494059406940094D5
:1007C400164B1A6C42F080521A641B6C03F080536F
:1007D4000093009B0194124A136823F4404343F4AA
:1007E40080431360136803F440430193019B022385
:1007F400079301230A9310230B930D9407A801F088
:1008040057FF0F23029303940494059406942146FE
:1008140002A801F0E9FD14B010BD00BF0038024089
:100824000070004010B5084C084B224600210848CF
:1008340000F0FCFD074B22460021074800F0F6FDBE
:10084400064B01221A7010BDE8000020DC020020D3
:10085400B4020020E0000020CC010020B4000020FD
:1008640098B500AF0A46CB1D03F4FC73ADEB030D42
:1008740069460023934204D2C45CCC540133DBB2F6
:10088400F8E74FF47A73024801F03EFDBD4698BD87
:100894001002002090B58DB004AF02F06BFAFFF7A0
:1008A40081FFFFF72FFEFFF79BFEFFF7C5FEFFF763
:1008B400F3FEFFF731FFFFF745FF02F0C7FB02F03D
:1008C400D9FA374C204602F0BBFA012303936B4656
:1008D400224652F8100F5168926807C32068616875
:1008E400A268E36802F0FEFA2E4B1A682E4B1B68CE
:1008F40003FB02F39B00073323F00703ADEB030D67
:1009040004AC09E04FF40051284802F099F907E0DB
:100914004FF4FA7002F05AFA254B1B78012BF1D0F0
:100924003B8A1A0A3A707B707B8A1A0ABA70FB7087
:10093400BB8A1A0A3A717B71FB8A1A0ABA71FB7173
:100944003B8B1A0A3A727B727B8B1A0ABA72FB725D
:10095400BB8B1A0A3A737B73FB8B1A0ABA73FB7349
:1009640008213846FFF77CFF08217818FFF778FF45
:1009740022461049104802F0E1FB02F03FFC0F4B05
:100984000F4A1049104800F0DBFC0028C0D14FF496
:10099400005100F1804000F5023002F051F9B7E750
:1009A400F40100201800002030000020000802405C
:1009B400B4000020400500204C0500205002002017
:1009C40044050020C8000020CC0100207047FEE749
:1009D400FEE7FEE7FEE770477047704708B502F090
:1009E400E3F908BD08B5024800F0D7FD08BD00BF13
:1009F400B402002008B5024800F0CFFD08BD00BFD6
:100A0400CC01002082B0002100910B4B5A6C42F4BF
:100A140080425A645A6C02F480420092009A019116
:100A24001A6C42F080521A641B6C03F080530193D9
:100A3400019B02B0704700BF0038024000B589B086
:100A4400002303930493059306930793026803F129
:100A5400804303F590339A4202D009B05DF804FB59
:100A64000021019103F58C335A6C42F480725A646C
:100A74005A6C02F480720192019A02911A6B42F04C
:100A840002021A631B6B03F002030293029B03230B
:100A94000393049303A9024801F0EEFFDDE700BFCE
:100AA4000004024010B58AB000230593069307930F
:100AB4000893099303683F4A934204D03E4A934201
:100AC40036D00AB010BD3D4A136801331360012BC0
:100AD40021D0002401943A4B1A6B42F001021A63AC
:100AE4001B6B03F001030193019B4FF4C053059367
:100AF40002230693032308930923099305A9314884
:100B040001F0BAFF22462146142002F0B5F8142061
:100B140002F0E6F8D5E700230093294B1A6C42F063
:100B240000721A641B6C03F000730093009BD0E7FF
:100B340000230293224B1A6C42F080621A641B6CED
:100B440003F080630293029B1C4A13680133136011
:100B5400012B21D000240494194B1A6B42F0020299
:100B64001A631B6B03F002030493049B4FF440537A
:100B7400059302230693032308930923099305A9E4
:100B8400114801F079FF22462146402002F074F812
:100B9400402002F0A5F894E700230393084B1A6C55
:100BA40042F000721A641B6C03F000730393039BFE
:100BB400D0E700BF0064004000680040B800002097
:100BC40000380240000002400004024000B589B031
:100BD4000023039304930593069307930268154B2C
:100BE4009A4202D009B05DF804FB0021019103F59B
:100BF40084335A6C42F480525A645A6C02F4805220
:100C04000192019A02911A6B42F001021A631B6B62
:100C140003F001030293029BE02303930223049352
:100C2400032306930523079303A9034801F024FF34
:100C3400D8E700BF00300140000002400268094BC1
:100C44009A4200D0704782B000230193064B1A6C7D
:100C540042F002021A641B6C03F002030193019B2D
:100C640002B07047000400400038024000B587B06D
:100C740000230193029303930493059302680E4B9C
:100C84009A4202D007B05DF804FB002300930B4B9B
:100C94001A6B42F004021A631B6B03F00403009303
:100CA400009B4023019302230293059301A9044866
:100CB40001F0E2FEE6E700BF000400400038024015
:100CC4000008024000B589B0002303930493059300
:100CD40006930793026803F1804303F588339A422D
:100CE40002D009B05DF804FB0021019103F59433AF
:100CF4005A6C42F010025A645A6C02F010020192CB
:100D0400019A02911A6B42F001021A631B6B03F001
:100D140001030293029B4FF4C063039302230493E1
:100D240001230593032306930723079303A902488A
:100D340001F0A2FED5E700BF000002404A4B5A680A
:100D440022F440325A605A6841680A435A60026881
:100D5400536823F48073536002685368016943EA5B
:100D6400012353600268536823F0407353600268A0
:100D7400536881680B4353600268936823F40063EB
:100D8400936002689368C1680B439360826A374B2F
:100D94009A4257D00268936823F0706393600268A4
:100DA4009368816A0B4393600268936823F040530D
:100DB400936002689368C16A0B4393600268936806
:100DC40023F00203936002689368017E43EA4103BF
:100DD400936090F82030002B3FD00268536843F4AE
:100DE400006353600268536823F4604353600168EE
:100DF4004B68426A013A43EA42334B600268D36A61
:100E040023F47003D3620168CB6AC269013A43EAEE
:100E14000253CB620268936823F400739360026800
:100E2400936890F8301043EA412393600268936812
:100E340023F48063936002689368416943EA8123E1
:100E4400936070470268936823F07063936002684C
:100E5400936823F040539360B0E70268536823F427
:100E640000635360CAE700BF002301400100000F84
:100E740038B310B50446036C43B1236C13F0100F60
:100E84000BD00120002384F83C3010BDFFF7D6FDC1
:100E94000023636484F83C30EFE7236C23F4885325
:100EA40023F0020343F0020323642046FFF746FFC6
:100EB40000206064236C23F0030343F001032364E4
:100EC400E0E701207047000030B482B000230193B2
:100ED40090F83C30012B00F0BC80012380F83C30BA
:100EE4000B68092B3ED90568EA689BB203EB430300
:100EF4001E3B072404FA03F322EA0303EB600568AC
:100F0400EA688C680B8803EB43031E3B04FA03F383
:100F14001343EB604B68062B3AD805686A6B03EB06
:100F24008303053B1F2404FA03F322EA03036B63E0
:100F340005686A6B4B6803EB8303053B0C8804FA72
:100F440003F313436B630268434B9A4250D0026825
:100F5400414B9A4259D0002380F83C30184602B0E5
:100F640030BC704705682A699BB203EB430307242E
:100F740004FA03F322EA03032B6105682A698C68E7
:100F84000B8803EB430304FA03F313432B61C1E718
:100F94000C2B16D805682A6B03EB8303233B1F2411
:100FA40004FA03F322EA03032B6305682A6B4B68F4
:100FB40003EB8303233B0C8804FA03F313432B63EF
:100FC400C1E70568EA6A03EB8303413B1F2404FA83
:100FD40003F322EA0303EB620568EA6A4B6803EB56
:100FE4008303413B0C8804FA03F31343EB62AAE73F
:100FF4000B68122BABD1194B5A6822F400025A60C9
:101004005A6842F480025A60A1E70B68144A93427A
:1010140001D0112B9FD1114B5A6822F480025A60DF
:101024005A6842F400025A600A680D4B9A4292D1FF
:101034000C4B1B680C4AA2FB03239B0C03EB83039E
:101044005A000192019B002B85D0019B013B019327
:10105400F8E7022083E700BF00200140002301409D
:10106400120000100800002083DE1B43002800F05B
:10107400A18038B5044690F82030D3B122681368B3
:1010840023F00203136001F09BFE054623685A68AF
:1010940012F0020F10D001F093FE401B0A28F5D97C
:1010A400636A43F400336362052384F8203001202B
:1010B40038BDFFF7F7FCE1E71A6842F001021A6055
:1010C40001F07EFE054623685A6812F0010F0DD127
:1010D40001F076FE401B0A28F5D9636A43F4003315
:1010E4006362052384F820300120E1E7227E012A8F
:1010F4003DD01A6822F080021A60637E012B3BD037
:101104002268136823F040031360A37E012B39D0B7
:101114002268136823F020031360E37E012B37D089
:101124002268136843F010031360237F012B35D02A
:101134002268136823F008031360637F012B33D004
:101144002268136823F004031360A368E26813435E
:1011540022691343626913436268013A21681343A5
:10116400CB6100206062012384F82030A0E71A6874
:1011740042F080021A60C0E72268136843F040031B
:101184001360C2E72268136843F020031360C4E7C6
:101194002268136823F010031360C6E722681368FB
:1011A40043F008031360C8E72268136843F004039C
:1011B4001360CAE70120704790F82030013BDBB28E
:1011C400012B05D9436A43F480234362012070470D
:1011D40070B4434BD3F8002242F00102C3F800225A
:1011E400D3F8002222F47C52C3F80022D3F8002260
:1011F400486A42EA0022C3F800224A6902F01F0248
:10120400012000FA02F2D3F81C42D0430440C3F890
:101214001C42CB69B3B9324BD3F80C420440C3F837
:101224000C42CE688D884C6945EA0645483443F83B
:1012340034508E680C884D6944EA0644483503EB03
:10124400C5035C60CB69012B1DD08B69002B32D1A7
:10125400234CD4F804320340C4F804320B698BBB2A
:101264001F4BD3F814422040C3F814020B6A012B1D
:101274002FD01B4AD2F8003223F00103C2F8003207
:10128400002070BC7047164BD3F80C421443C3F8CB
:101294000C420E688D884C6945EA0645483443F88B
:1012A40034508E688C894D6944EA0644483503EB12
:1012B400C5035C60C9E70A4CD4F804321343C4F88C
:1012C4000432CBE70648D0F814321343C0F8143282
:1012D400CCE70349D1F81C321A43C1F81C22C8E7F1
:1012E4000064004038B590F82030DBB2012B05D003
:1012F400436A43F400234362012038BD04460223B9
:1013040080F820300268136823F00103136001F0B1
:1013140057FD054623685B6813F0010F0DD001F0FB
:101324004FFD401B0A28F5D9636A43F40033636216
:10133400052384F820300120DFE700206062DCE729
:1013440070B490F820400568AD68013CE4B2012C0B
:1013540065D815F0E05F5CD0C5F30165022D05D9B1
:10136400436A43F40003436201205DE00124AC407E
:101374001C608B68002B39D10E68CB68046843EA83
:10138400465605F118031B01E65003680C6905F184
:10139400180603EB06135C600B7D012B31D0D17969
:1013A40093791B0443EA0163517943EA01231479D5
:1013B400016823432C012144C1F88C31D1789378FE
:1013C4001B0443EA0163517843EA0123117802685C
:1013D4000B432244C2F88831016805F118031B014C
:1013E400CA5842F00102CA5000201DE04C6843EA8A
:1013F400C403CC680668234305F11804240133515F
:10140400C3E7036803EB0613596841F4807159601C
:10141400C5E7436A43F400134362012004E0436ACE
:1014240043F480234362012070BC704730B490F8C9
:101434002040013CE4B2012C00F28A8051B90468D6
:10144400E46814F0030F10D1436A43F400134362B9
:10145400012082E00468246914F0030F05D1436A73
:1014640043F400134362012077E0056801F11B0493
:1014740024012C5904F004049460002C5AD105680A
:1014840001F11B0424012C59640D1460056801F159
:101494001B0424012D59C5F34005D5600568254476
:1014A4006D6805F00F051561056825446D68C5F381
:1014B4000725956105682C446468240C546104680C
:1014C4000A011444D4F8B8411C7004681444D4F8D4
:1014D400B841C4F307245C7004681444D4F8B841D8
:1014E400C4F307449C7004681444D4F8B841240E2F
:1014F400DC7004681444D4F8BC411C7104681444BE
:10150400D4F8BC41C4F307245C7104681444D4F8CF
:10151400BC41C4F307449C7104682244D2F8BC2142
:10152400120EDA7171B90268D36843F02003D360F4
:10153400002012E0056801F11B0424012C59E40881
:101544005460A3E70268136943F020031361EFE7D3
:10155400436A43F480234362012030BC704790F80F
:101564002030013BDBB2012B05D9436A43F48023CD
:10157400436201207047026853690B4353610020A2
:10158400704770477047704770477047704770479F
:10159400704770477047704770472DE9F84F05460C
:1015A40003685C695F689E68D3F80CA0D3F8109058
:1015B400D3F8188014F0010F5AD016F0010F17D089
:1015C40001229A6016F0020F08D116F0040F30D1F0
:1015D40016F0080F07D04FF4805B0BE0FFF7D1FF44
:1015E4004FF0000B06E0FFF7CFFF4FF0000B01E0D8
:1015F4004FF0000B16F4807F0BD02B684FF48072F1
:101604009A6016F4007F17D116F4806F18D04BF44B
:10161400005B16F4803F2DD02B684FF480329A6023
:1016240016F4003F16D116F4802F17D04BF4004B5C
:1016340020E04FF4006BDDE72846FFF7A3FFE8E75F
:1016440016F4006F02D04BF4804BE2E72846FFF714
:101654009CFFDEE72846FFF796FF0BE016F4002F09
:1016640002D04BF4803B05E02846FFF78FFF01E0F2
:101674004FF0000B14F0080F07D01AF0100F04D02D
:101684004BF4007B2B681022DA6014F0040F02D0B4
:101694001AF0080F6AD114F0020F04D02B68DB682B
:1016A40013F0030F69D114F0400F07D019F0100F95
:1016B40004D04BF4806B2B6810221A6114F0200FB5
:1016C40002D019F0080F5CD114F0100F04D02B686D
:1016D4001B6913F0030F5BD114F4003F02D017F021
:1016E400100F59D114F4803F02D017F0080F5AD1CB
:1016F40014F4004F35D017F0040F2FD014F4807F6A
:1017040004D018F0010F01D04BF0010B14F4007F4A
:1017140004D018F0020F01D04BF0020B14F4806FC8
:1017240004D018F0040F01D04BF0040B14F4006F34
:1017340014D018F0700811D0B8F1300F46D039D950
:10174400B8F1500F48D0B8F1600F48D0B8F1400F4D
:101754003FD02A68936923F0700393612B680422B5
:101764005A60BBF1000F3DD1BDE8F88F2B68082209
:10177400DA602846FFF70BFF8DE72846FFF752F89B
:1017840091E72B6808221A612846FFF702FF9BE7BE
:101794002846FFF7FDFE9FE72B6810225A60284673
:1017A400FFF7F8FE9EE72B6808225A602846FFF7E9
:1017B400F2FE9DE7B8F1100F05D0B8F1200FC8D1A3
:1017C4004BF0100BC5E74BF0080BC2E74BF0200BB6
:1017D400BFE74BF0400BBCE74BF0800BB9E74BF491
:1017E400807BB6E76B6A43EA0B036B622846FFF71C
:1017F400D3FEB9E7F8B505460F4616461C462B68D6
:101804009B6837EA03030CBF01230023B34237D09C
:10181400B4F1FF3FF3D001F0D3FA069BC01AA04203
:1018240001D2002CEBD12A68536823F0E003536003
:101834006B68B3F5827F0BD0AB6AB3F5005F14D04D
:10184400012385F85130002385F85030032018E037
:10185400AB68B3F5004F02D0B3F5806FECD12A68C2
:10186400136823F040031360E6E72A68136823F43F
:10187400005313602A68136843F400531360DFE7CE
:101884000020F8BD10B582B0044600920B46002239
:101894008021FFF7AFFF034610B9184602B010BD10
:1018A400636D43F0200363650323F6E700283BD010
:1018B40010B504460023836290F85130002B2ED0DB
:1018C400022384F851302268136823F04003136024
:1018D4006368A2681343E26813432269134362698D
:1018E4001343A26902F400721343E2691343226AA8
:1018F4001343A16A22680B431360638B03F0040350
:10190400616A22680B4353602268D36923F400633D
:10191400D36100206065012384F8513010BD80F844
:101924005030FFF753F9CBE7012070472DE9F0431E
:1019340083B00A9D90F85040012C00F00D811E46A2
:10194400914688460446012380F8503001F038FA65
:10195400074694F85130DBB26268012B0AD0B2F525
:10196400827F40F0DE80A268002A40F0E580042BEC
:1019740040F0E480B8F1000F00F0E280B9F1000F0C
:1019840000F0E080002E00F0DF8094F85130DBB2EC
:10199400042B02D0052384F8513000236365C4F876
:1019A4003890E687A687C4F83080E686A686236446
:1019B400636423681A6812F0400F03D11A6842F076
:1019C40040021A60E368B3F5006F10D063680BB18E
:1019D400012E0AD1226B236812781A73236B013308
:1019E4002363E38E013B9BB2E386012667E06368D1
:1019F4000BB1012E0AD1226B23681288DA60236BA3
:101A040002332363E38E013B9BB2E38601261BE092
:101A140023689A6812F0010F0DD0E28F92B252B18E
:101A2400DA68A36B1A80A36B0233A363E38F013BD1
:101A34009BB2E387012601F0C3F9C01BA84203D37C
:101A4400B5F1FF3F40F08280E38E9BB21BB9E38F78
:101A54009BB2002B50D023689A6812F0020FD7D0A3
:101A6400E28E92B2002AD3D0002ED1D0226B1288FB
:101A7400DA60236B02332363E38E013B9BB2E3867C
:101A84000026C5E723689A6812F0010F0DD0E28F93
:101A940092B252B1DA68A36B1A70A36B0133A363D9
:101AA400E38F013B9BB2E387012601F089F9C01B58
:101AB400A84202D3B5F1FF3F4AD1002D4AD0E38EAC
:101AC4009BB213B9E38F9BB2B3B123689A6812F047
:101AD400020FD7D0E28E92B2002AD3D0002ED1D0FA
:101AE400226B12781A73236B01332363E38E013B59
:101AF4009BB2E3860026C5E73A4629462046FFF70F
:101B0400C1FE034648B9A26862B901922268D1684D
:101B1400019192680192019A04E0202363650123F4
:101B240000E00223012284F85120002284F850208E
:101B3400184603B0BDE8F0830223F3E70223F1E77C
:101B44000123EFE70123EDE70123EBE70323E9E7B3
:101B54000323E7E70323E5E70223E9E730B4036A55
:101B640023F001030362056A4268846924F0730464
:101B74000B681C4325F002058B682B43104DA842CB
:101B840003D005F58065A84205D123F00803CD688C
:101B94002B4323F004030A4DA84203D005F58065C6
:101BA400A84205D122F440724D6915438A692A433B
:101BB400426084614A684263036230BC704700BF7C
:101BC4000000014030B4036A23F480730362036AA3
:101BD4004268C46924F073040D682C4323F4007331
:101BE4008D6843EA0523124DA84203D005F58065AC
:101BF400A84206D123F40063CD6843EA052323F405
:101C040080630B4DA84203D005F58065A84207D137
:101C140022F440524D6942EA05128D6942EA0512E6
:101C24004260C4614A68C263036230BC704700BF4B
:101C34000000014030B4036A23F480530362036A52
:101C44004468C26922F4E6420D6842EA052223F49C
:101C540000538D6843EA0533094DA84203D005F5C6
:101C64008065A84204D124F480444D6944EA851473
:101C74004460C2614A680264036230BC704700BFBA
:101C8400000001400368304A904212D0B0F1804F06
:101C94000FD0A2F57C4290420BD002F580629042B4
:101CA40007D002F58062904203D002F57842904258
:101CB40003D123F070034A681343234A90422AD085
:101CC400B0F1804F27D0A2F57C42904223D002F598
:101CD400806290421FD002F5806290421BD002F5D0
:101CE4007842904217D002F57052904213D002F518
:101CF400806290420FD002F5806290420BD0A2F530
:101D04009832904207D002F58062904203D002F5E7
:101D14008062904203D123F44073CA68134323F0D2
:101D240080034A69134303608B68C3620B68836250
:101D3400054B984203D003F58063984201D10B69A7
:101D4400036301234361704700000140B0B110B543
:101D5400044690F83D3063B1022384F83D302146B7
:101D640051F8040BFFF78EFF012384F83D30002067
:101D740010BD80F83C30FEF761FFEDE701207047AD
:101D840030B4036A23F010030362036A446882696F
:101D940022F4E6420D6842EA052223F020038D680E
:101DA40043EA0513114DA84203D005F58065A84206
:101DB40006D123F08003CD6843EA051323F04003E2
:101DC4000A4DA84203D005F58065A84207D124F442
:101DD40040644D6944EA85048D6944EA850444609D
:101DE40082614A688263036230BC7047000001402C
:101DF40038B590F83C30012B66D00D4604460123DB
:101E040080F83C30022380F83D300C2A1AD8DFE8F1
:101E140002F0071919192019191934191919470049
:101E24000068FFF79BFE2268936943F008039361FF
:101E34002268936923F004039361226893692969F2
:101E44000B439361012384F83D30002084F83C0067
:101E540038BD0068FFF794FF2268936943F4006378
:101E640093612268936923F4806393612268936980
:101E7400296943EA01239361E4E70068FFF7A2FEBE
:101E84002268D36943F00803D3612268D36923F03D
:101E94000403D3612268D36929690B43D361D1E771
:101EA4000068FFF7C7FE2268D36943F40063D36177
:101EB4002268D36923F48063D3612268D3692969D2
:101EC40043EA0123D361BDE70220C1E790F83C3027
:101ED400012B1CD070B4012680F83C60022380F8EA
:101EE4003D3002685568936825F070050C682C43F2
:101EF40023F080054B682B4354600268936080F89C
:101F04003D60002380F83C30184670BC70470220C6
:101F1400704700002DE9F84304460268136923F46E
:101F24004053C1680B4313618368026913434269D8
:101F34001343C2691A430168CB6823F4164323F0A0
:101F44000C031343CB600268536923F44073816923
:101F54000B435361C369B3F5004F60D00368B84ABB
:101F6400934200F0148102F58062934200F00F81E5
:101F740000F0EEFA00EB800000EB80006568AD0035
:101F8400B0FBF5F5AF4FA7FB05356D092E0100F049
:101F9400DFFA00EB800000EB80006568AD00B0FB69
:101FA400F5F900F0D5FA00EB800000EB80006568DD
:101FB400AD00B0FBF5F5A7FB05356D094FF06408DE
:101FC40008FB15952D013235A7FB05356D0905F084
:101FD400F005354400F0BCFA00EB800000EB800013
:101FE4006668B600B0FBF6F600F0B2FA00EB8000CB
:101FF40000EB800063689B00B0FBF3F0A7FB0030AC
:10200400400908FB10684FEA081808F13208A7FBDA
:102014000837C7F3431723682F449F600DE1036813
:10202400874A93425BD002F58062934257D000F016
:102034008FFA00EB800000EB800065686D00B0FB58
:10204400F5F5804FA7FB05356D092E0100F080FAE8
:1020540000EB800000EB800065686D00B0FBF5F9D3
:1020640000F076FA00EB800000EB800065686D00FC
:10207400B0FBF5F5A7FB05356D094FF0640808FBC7
:102084001595ED003235A7FB05356D096D0005F496
:10209400F875354400F05CFA00EB800000EB80003A
:1020A40066687600B0FBF6F600F052FA00EB8000AA
:1020B40000EB800063685B00B0FBF3F3A7FB032332
:1020C4005B0908FB13684FEAC80808F13208A7FB4C
:1020D4000837C7F3421723682F449F60ADE000F030
:1020E40047FA00EB800000EB800065686D00B0FBF0
:1020F400F5F5544FA7FB05356D092E0100F038FAAC
:1021040000EB800000EB800065686D00B0FBF5F922
:1021140000F02EFA00EB800000EB800065686D0093
:10212400B0FBF5F5A7FB05356D094FF0640808FB16
:102134001595ED003235A7FB05356D096D0005F4E5
:10214400F875354400F014FA00EB800000EB8000D1
:1021540066687600B0FBF6F600F00AFA00EB800041
:1021640000EB800063685B00B0FBF3F3A7FB032381
:102174005B0908FB13684FEAC80808F13208A7FB9B
:102184000837C7F3421723682F449F6055E000F0D7
:10219400EFF900EB800000EB80006568AD00B0FB58
:1021A400F5F5284FA7FB05356D092E0100F0E0F980
:1021B40000EB800000EB80006568AD00B0FBF5F932
:1021C40000F0D6F900EB800000EB80006568AD00FC
:1021D400B0FBF5F5A7FB05356D094FF0640808FB66
:1021E40015952D013235A7FB05356D0905F0F00570
:1021F400354400F0BDF900EB800000EB8000666818
:10220400B600B0FBF6F600F0B3F900EB800000EB8B
:10221400800063689B00B0FBF3F0A7FB003040092B
:1022240008FB10684FEA081808F13208A7FB0837C2
:10223400C7F3431723682F449F60BDE8F88300BFAA
:10224400001001401F85EB512DE9F04105460F4672
:1022540016469846069C2B681B6837EA03030CBF96
:1022640001230023B3421DD1B4F1FF3FF3D02CB1BD
:1022740000F0A6FDA0EB0800A042ECD92A68D368C0
:1022840023F4D073D3602A68536923F001035361A4
:10229400202385F8393085F83A30002385F8383022
:1022A400032000E00020BDE8F08158B310B50446D7
:1022B40090F839300BB3242384F839302268D3687A
:1022C40023F40053D3602046FFF724FE22681369E9
:1022D40023F4904313612268536923F02A03536162
:1022E4002268D36843F40053D3600020E0632023C2
:1022F40084F8393084F83A3010BD80F83830FEF76D
:10230400E1FCD8E7012070472DE9F04182B01E4678
:1023140090F83930DBB2202B55D104460D46904657
:10232400002955D0002A55D090F83830012B53D0CD
:10233400012380F838300023C363212380F8393027
:1023440000F03EFD0746A4F82480A4F8268010E09F
:1023540000963B46002280212046FFF775FF0028A7
:102364003CD12B882268C3F3080353602369C3B9A3
:102374000235E38C9BB2B3B1E38C013B9BB2E384A3
:10238400A368B3F5805FE3D000963B46002280212A
:102394002046FFF759FF18BB15F8012B23685A6034
:1023A400E7E70135E5E700963B4600224021204659
:1023B400FFF74AFF0346A8B9202284F839200022F7
:1023C40084F8382000E00223184602B0BDE8F0810A
:1023D4000123F9E70123F7E70223F5E70323F3E7F2
:1023E4000323F1E70323EFE7002800F09A8070B598
:1023F4000446504B1B6803F00F038B4208D2CBB248
:102404004C4A1370136803F00F038B4240F08B8027
:10241400236813F0020F17D013F0040F04D0464AB8
:10242400936843F4E0539360236813F0080F04D0D7
:10243400414A936843F4604393603F4A936823F0AE
:10244400F003A068034393600D46236813F0010F63
:1024540032D06368012B21D09A1E012A25D9364A2D
:10246400126812F0020F60D033498A6822F0030226
:1024740013438B6000F0A4FC06462F4B9B6803F0CB
:102484000C036268B3EB820F16D000F099FC801B3A
:1024940041F288339842F0D9032041E0264A126879
:1024A40012F4003FE0D101203AE0234A126812F00E
:1024B400007FD9D1012033E01E4B1B6803F00F03CA
:1024C400AB4207D9EAB21B4B1A701B6803F00F0327
:1024D400AB422CD1236813F0040F06D0164A93683C
:1024E40023F4E053E1680B439360236813F0080F6F
:1024F40007D0114A936823F46043216943EAC10376
:10250400936000F045F80C4B9B68C3F303130B4A2C
:10251400D35CD8400A4B1860002000F005FC002072
:1025240070BD012070470120FAE70120F8E701207F
:10253400F6E700BF003C024000380240EC340008DB
:1025440008000020014B1868704700BF08000020F5
:1025540008B5FFF7F7FF044B9B68C3F38223034AD4
:10256400D35CD84008BD00BF00380240FC340008EA
:1025740008B5FFF7E7FF044B9B68C3F34233034AF4
:10258400D35CD84008BD00BF00380240FC340008CA
:1025940070B5444B9B6803F00C03082B05D00C2B3F
:1025A40041D0042B7BD0404870BD3E4B5A6802F0AA
:1025B4003F025B6813F4800F12D03A4B5968C1F3A1
:1025C400881100233948A1FB0001FDF719FE354BA2
:1025D4005B68C3F3014301335B00B0FBF3F0E3E753
:1025E400304B5868C0F388100546002643011B1A77
:1025F40066EB0604A10141EA93619801C01A61EBFC
:102604000401CB0043EA5073C4001946601946EB39
:1026140001018B0243EA9053840220461946334653
:10262400FDF7EEFDD3E71F4B5A6802F03F025B68EB
:1026340013F4800F10D01B4B5968C1F38811002389
:102644001A48A1FB0001FDF7DBFD164B5B68C3F3E1
:102654000273B0FBF3F0A7E7124B5868C0F388107D
:102664000546002643011B1A66EB0604A10141EA54
:1026740093619801C01A61EB0401CB0043EA5073E3
:10268400C4001946601946EB01018B0243EA9053DA
:102694008402204619463346FDF7B2FDD5E70348C8
:1026A40082E700BF003802400024F40040787D0136
:1026B40070B582B00446036813F0010F41D0A64BF5
:1026C4009B6803F00C03042B32D0A34B9B6803F0EC
:1026D4000C03082B27D0A04B9B6803F00C030C2B96
:1026E40059D06368B3F5803F5BD0B3F5A02F5ED0BB
:1026F400994B1A6822F480321A601A6822F48022F4
:102704001A606368002B5CD000F05AFB0546924BBC
:102714001B6813F4003F14D100F052FB401B6428E3
:10272400F5D903209FE18C4B5B6813F4800FD2D062
:10273400894B1B6813F4003F03D06368002B00F03F
:102744008D81236813F0020F60D0834B9B6813F0D4
:102754000C0F4AD0804B9B6803F00C03082B3FD02E
:102764007D4B9B6803F00C030C2B68D0E368002BB3
:1027740074D07A4B01221A6000F022FB0546764B96
:102784001B6813F0020F60D100F01AFB401B0228F3
:10279400F5D9032067E1704B5B6813F4800FA0D078
:1027A400C6E76D4A136843F480331360A9E76A4BA4
:1027B4001A6842F480221A601A6842F480321A605D
:1027C4009FE700F0FDFA0546634B1B6813F4003FD6
:1027D400B7D000F0F5FA401B6428F5D9032042E194
:1027E4005D4B5B6813F4800FBAD15B4B1B6813F02D
:1027F400020F03D0E368012B40F03281564A13687C
:1028040023F0F803216943EAC1031360236813F03A
:10281400080F47D06369002B32D0514B01221A6054
:1028240000F0CEFA05464C4B5B6F13F0020F39D122
:1028340000F0C6FA401B0228F5D9032013E1464BE9
:102844005B6813F4800F91D1CFE7434A136823F0F8
:10285400F803216943EAC1031360D7E73F4B002221
:102864001A6000F0ADFA05463B4B1B6813F0020FEB
:10287400CCD000F0A5FA401B0228F5D90320F2E0E1
:10288400374B00221A6000F09BFA0546324B5B6F0F
:1028940013F0020F06D000F093FA401B0228F5D97A
:1028A4000320E0E0236813F0040F79D02A4B1B6C5B
:1028B40013F0805F33D100230193274B1A6C42F04D
:1028C40080521A641B6C03F080530193019B012511
:1028D400244B1B6813F4807F23D0A368012B34D0CE
:1028E400052B41D01C4B1A6F22F001021A671A6F94
:1028F40022F004021A67A368002B3FD000F060FAAC
:102904000646154B1B6F13F0020F48D100F058FA1E
:10291400801B41F288339842F3D90320A3E00025B9
:10292400D6E7104A136843F48073136000F048FA42
:1029340006460C4B1B6813F4807FCED100F040FA9E
:10294400801B0228F5D903208DE0034A136F43F05E
:1029540001031367CFE700BF00380240000047427D
:10296400800E474200700040414B1A6F42F004024F
:102974001A671A6F42F001021A67BCE700F020FAE6
:1029840006463B4B1B6F13F0020F08D000F018FAF9
:10299400801B41F288339842F3D9032063E0E5B900
:1029A400A369002B5ED0324A926802F00C02082A16
:1029B4005BD0022B17D02F4B00221A6000F000FAD4
:1029C40004462B4B1B6813F0007F45D000F0F8F948
:1029D400001B0228F5D9032045E0254A136C23F097
:1029E40080531364DCE7234B00221A6000F0E8F9FB
:1029F40005461F4B1B6813F0007F06D000F0E0F97A
:102A0400401B0228F5D903202DE0E369226A134311
:102A1400626A43EA8213A26A5208013A43EA024311
:102A2400E26A43EA0263226B43EA0273104A536088
:102A3400104B01221A6000F0C3F904460C4B1B68CA
:102A440013F0007F06D100F0BBF9001B0228F5D972
:102A5400032008E0002006E0002004E0012002E05A
:102A6400012000E0002002B070BD0120FBE700BFA0
:102A7400003802406000474200230F2B00F2D08050
:102A8400F0B482B039E0062200E00022B2403A43BA
:102A94000235644E46F82520634A1568E24302EA8B
:102AA40005064F6817F4803F01D044EA05065E4DE1
:102AB4002E606D6802EA05064F6817F4003F01D0E6
:102AC40044EA0506584D6E60AD6802EA05064F6893
:102AD40017F4801F01D044EA0506534DAE60ED683B
:102AE4002A404E6816F4001F01D044EA05024E4CF9
:102AF400E26001330F2B00F2908001229A400C68AF
:102B04001440A242F5D14D68022D01D0122D10D1EE
:102B1400DE08083650F826C003F00705AF000F257D
:102B2400BD402CEA050C0D69BD4045EA0C0540F892
:102B3400265006685F000325BD40ED4305EA060CF8
:102B44004E6806F00306BE4046EA0C0606604E6870
:102B540006F1FF3CBCF1010F03D9112E01D0122E56
:102B640010D1866805EA060CCE68BE4046EA0C061B
:102B74008660466826EA02024E68C6F300169E4046
:102B840016434660C26815408A68BA402A43C26048
:102B94004A6812F0805FACD000220192234A556C3F
:102BA40045F480455564526C02F480420192019AC6
:102BB4009D08AE1C1B4A52F8267003F003029600CF
:102BC4000F22B24027EA0207194A90423FF45DAF50
:102BD40002F58062904216D002F58062904214D0D1
:102BE40002F58062904212D002F58062904210D0C9
:102BF40002F5806290420ED002F5806290423FF46A
:102C040042AF072242E7012240E702223EE70322C5
:102C14003CE704223AE7052238E702B0F0BC7047EB
:102C2400704700BF00380140003C014000380240BA
:102C3400000002400AB18161704709048161704754
:102C4400436931EA030301D081617047090481615A
:102C540070470000074AD36823F4E0631B041B0C8D
:102C6400000200F4E060184340F0BF6040F400301C
:102C7400D060704700ED00E030B4174BDB68C3F35D
:102C84000223C3F10704042C28BF04241D1D062DB0
:102C940001D9033B00E000234FF0FF3505FA04F4AB
:102CA40021EA0401994005FA03F322EA03031943D4
:102CB400002809DB0901C9B200F1604000F5614058
:102CC40080F8001330BC704700F00F000901C9B24E
:102CD400024B1954F6E700BF00ED00E014ED00E0EC
:102CE400002807DB00F01F02400901239340024A39
:102CF40042F82030704700BF00E100E00138B0F135
:102D0400807F0AD2064B5860064AF02182F82310CD
:102D14000020986007221A6070470120704700BFA6
:102D240010E000E000ED00E010B504460E4B18780A
:102D34004FF47A73B3FBF0F30C4A1068B0FBF3F072
:102D4400FFF7DCFF68B90F2C01D901200AE000224B
:102D540021464FF0FF30FFF78FFF054B1C6000202A
:102D640000E0012010BD00BF00000020080000208A
:102D74000400002008B50B4B1A6842F400721A6074
:102D84001A6842F480621A601A6842F480721A6007
:102D94000320FFF75FFF0020FFF7C6FFFDF732FEB9
:102DA400002008BD003C0240034A1168034B1B7815
:102DB4000B441360704700BFE402002000000020B1
:102DC400014B1868704700BFE402002038B5044680
:102DD400FFF7F6FF0546B4F1FF3F02D0044B1B7822
:102DE4001C44FFF7EDFF401BA042FAD338BD00BFDF
:102DF400000000200F49D1F8883043F47003C1F873
:102E040088300D4B1A6842F001021A600020986065
:102E14001A6822F0847222F480321A60074A5A60D7
:102E24001A6822F480221A60D8604FF000638B6025
:102E3400704700BF00ED00E000380240103000246D
:102E44000023837143760122027042708270C27043
:102E54000271427103814381037343738373C373A8
:102E6400037443748374C374037543758375C375A2
:102E740003767047002011E05B009BB2013A002A00
:102E840008DD13F4804FF7D05B009BB20749098833
:102E94004B40F3E7064A22F810300130FF2804DCE7
:102EA40083B2DB019BB20822E9E770470C000020E3
:102EB400E802002030B400241022A0420BDD0B5D98
:102EC40083EAD213DBB2064D35F9133083EA0222CA
:102ED40092B20134F1E7500080B230BC704700BFB9
:102EE400E802002084B02DE9F04F83B00CAC84E8F4
:102EF4000F009DF84CA00C2000F0FEF904469DF84C
:102F04003070FF017FB29DF8313047EA83177FB2FA
:102F14009DF8323047EA43177FB29DF8333047EAD1
:102F240003177FB29DF8343047EAC3077FB29DF898
:102F3400353047EA83077FB29DF936301F43FFB22D
:102F4400BDF838305FFA83FBBDF83A904FEA0918B0
:102F54004FFA88F8C3F3032348EA03085FFA88F8B2
:102F6400C9F307199DF84360F60176B29DF8423023
:102F740046EA831676B29DF8413046EA431676B2A5
:102F84009DF8403046EA031676B29DF83F3046EA93
:102F9400C30676B29DF83E3046EA830676B29DF8C3
:102FA4003D3046EA430676B29DF93C301E43F6B204
:102FB4009DF848301B015BB29DF8472043EAC203E9
:102FC4005BB29DF8462043EA82035BB29DF845203C
:102FD40043EA42035BB29DF944201343DBB20193FD
:102FE4000125554529D8EB0003F0780343F080030D
:102FF40023700123637021460220FFF75BFF030A5D
:10300400A370E070277184F805B084F8068084F812
:1030140007902672019B6372211D0620FFF74AFF69
:10302400030AA372E0720C21204600F02FF86420FA
:10303400FFF7CCFE0135EDB2D3E7204600F064F98A
:1030440003B0BDE8F04F04B07047000008B50D4868
:103054000D4B03604FF48273436000238360C360AD
:1030640002220261012242614FF48022826118220D
:10307400C2610362436283620A23C362FEF716FCE1
:1030840008BD00BFE804002000300140F0B583B063
:1030940002AF05460C46CB1D03F4FC73ADEB030DE8
:1030A40002AE002210210F48FFF7C4FD4FF47A73DB
:1030B40000932346324629460B48FEF737FC044664
:1030C400094B93F85130DBB2022BF9D001221021C5
:1030D4000448FFF7AFFDB4FA84F040090437BD4655
:1030E400F0BD00BF00000240E804002070B4114BA2
:1030F4001C682546104B1E6890ED000A002113E061
:103104000132A2420FDA05FB01F300EB830303EB68
:103114008203D3ED007AB4EEE70AF1EE10FAEFDDA4
:10312400B0EE670AECE70131B14201DA0022E8E7C8
:1031340070BC70471800002030000020F8B5074626
:103144000E461446274B1D681046FFF7CFFF022397
:1031540033600020244B1B68984240DA00220FE0C1
:10316400002333600120F8BD204B93ED007AB4EEC8
:10317400E77AF1EE10FA02D50EB101233360013281
:10318400184B1B689A4228DA05FB00F39B00E118F0
:1031940001EB8201D1ED007A154991ED007AB4EE8C
:1031A400E77AF1EE10FADBD4124991ED007A30EEB1
:1031B400077AB4EEE77AF1EE10FA03D53B44012125
:1031C40043F822100C4B93ED007AB4EEE77AF1EE5B
:1031D40010FAC9D500233360D1E70130BAE70020E3
:1031E400C1E700BF180000203000002028000020A4
:1031F400100000201400002020000020124B1A8828
:10320400110A124B19705A70114B1B68012B06D00E
:10321400022B11D00D4B00229A70DA7005E00D4B91
:103224001A88110A094B9970DA70084B00221A7136
:103234005A719A71DA717047074B1A88110A034B55
:103244009970DA70F1E700BF1C00002044050020EB
:1032540040050020240000202C000020DFF834D09A
:10326400002103E00C4B5B58435004310B480C4BDA
:1032740042189A42F6D30B4A02E0002342F8043B78
:10328400094B9A42F9D3FFF7B5FD00F011F8FDF7A9
:1032940001FB7047000002201435000800000020E4
:1032A4009800002098000020DC060020FEE70000C3
:1032B40070B50D4D0D4C641BA4100026A64209D117
:1032C4000B4D0C4C00F004F9641BA4100026A6421C
:1032D40005D170BD55F8043B98470136EEE755F823
:1032E400043B98470136F2E70C3500080C3500081A
:1032F4000C35000810350008024B0146186800F030
:1033040061B800BF34000020024B0146186800F089
:103314000BB800BF3400002002440346934200D19E
:10332400704703F8011BF9E738B50546002945D075
:1033340051F8043C0C1F002BB8BFE41800F0ACF8A3
:103344001F4A1368104633B9636014602846BDE809
:10335400384000F0A7B8A3420CD921686218934200
:1033640004BF1A685B68636004BF5218226004607B
:10337400ECE713465A680AB1A242FAD919685818F8
:10338400A0420BD120680144581882421960DDD153
:10339400106852685A6001441960D7E702D90C23B7
:1033A4002B60D3E7206821188A4204BF1168526851
:1033B400626004BF091821605C60C7E738BD00BFC4
:1033C400BC000020F8B5CD1C25F0030508350C2DF4
:1033D40038BF0C25002D064601DBA94203D90C2376
:1033E40033600020F8BD00F057F821490A681446FC
:1033F4009CB9204F3B6823B92146304600F03CF885
:1034040038602946304600F037F8431C23D10C239A
:103414003360304600F046F8E3E723685B1B17D4BB
:103424000B2B03D923601C44256004E06368A2428B
:103434000CBF0B605360304600F034F804F10B000D
:10344400231D20F00700C21ACCD01B1AA350C9E7D1
:1034540022466468CCE7C41C24F00304A042E3D0F1
:10346400211A304600F008F80130DDD1CFE700BF63
:10347400BC000020C000002038B5064C00230546DF
:103484000846236000F016F8431C02D1236803B1F8
:103494002B6038BDCC060020014800F009B800BFFD
:1034A400D4060020014800F004B800BFD406002070
:1034B40070477047044A05491368002B08BF0B4640
:1034C4001844106018467047C4000020E00600202D
:1034D400F8B500BFF8BC08BC9E467047F8B500BFFD
:0834E400F8BC08BC9E467047CD
:1034EC0000000000000000000102030406070809A8
:0834FC000000000001020304BE
:0835040030CDFF7F0100000043
:04350C00E9010008C9
:04351000C5010008E9
:1035140001000000100000000024F40099450000A0
:1035240066668640CDCC4C3D08000000A00F00002C
:1035340085EB85400A000000333383403E000000E1
:103544000C00000038000020000000000000000013
:103554000000000000000000000000000000000067
:103564000000000000000000000000000000000057
:103574000000000000000000000000000000000047
:103584000000000000000000000000000000000037
:103594000000000000000000000000000000000027
:0835A40000000000000000001F
:04000005080032615C
:00000001FF
